:020000040800F2
:1000000000000220851A00081D1A00081F1A0008A7
:10001000211A0008231A0008251A00080000000011
:10002000000000000000000000000000271A000887
:10003000291A0008000000002B1A00082D1A0008D9
:10004000D51A0008D51A0008D51A0008D51A0008D4
:10005000D51A0008D51A0008D51A0008D51A0008C4
:10006000D51A0008311A0008D51A0008D51A000858
:10007000D51A0008D51A0008D51A0008D51A0008A4
:10008000D51A0008D51A0008D51A0008D51A000894
:10009000D51A0008D51A0008D51A0008D51A000884
:1000A000D51A0008D51A0008D51A0008D51A000874
:1000B000D51A0008D51A0008D51A0008D51A000864
:1000C000D51A0008D51A0008D51A0008D51A000854
:1000D000D51A0008D51A0008D51A0008D51A000844
:1000E000D51A0008D51A0008D51A0008D51A000834
:1000F000D51A0008D51A0008D51A0008D51A000824
:10010000D51A0008D51A0008D51A0008D51A000813
:10011000D51A0008D51A0008D51A0008D51A000803
:10012000D51A0008D51A0008D51A0008D51A0008F3
:10013000D51A0008D51A0008D51A0008D51A0008E3
:10014000D51A0008D51A0008D51A0008D51A0008D3
:10015000D51A0008D51A0008D51A0008D51A0008C3
:10016000D51A0008D51A0008D51A0008D51A0008B3
:10017000D51A0008D51A0008D51A0008000000009A
:08018000D51A0008D51A000889
:1001880010B5054C237833B9044B13B10448AFF3C9
:1001980000800123237010BD3C00002000000000F7
:1001A800301B000808B5034B1BB103490348AFF3E4
:1001B800008008BD0000000040000020301B00083F
:1001C80053B94AB9002908BF00281CBF4FF0FF31B6
:1001D8004FF0FF3000F072B9ADF1080C6DE904CEB4
:1001E80000F006F8DDF804E0DDE9022304B070470A
:1001F8002DE9F047089E04468846002B4BD18A42D9
:10020800154667D9B2FA82F24AB1C2F1200701FA5B
:1002180002F320FA07F7954047EA030894404FEAAB
:10022800154E230CB8FBFEF71FFA85FC0EFB17884A
:1002380043EA084307FB0CF1994209D9EB1807F187
:10024800FF3080F01B81994240F21881023F2B4415
:100258005B1AA4B2B3FBFEF00EFB103344EA03446E
:1002680000FB0CFCA44509D92C1900F1FF3380F0E0
:100278000781A44540F2048102382C4440EA074033
:10028800A4EB0C0400271EB1D4400023C6E90043A8
:100298003946BDE8F0878B4209D9002E00F0EB8083
:1002A8000027C6E9000138463946BDE8F087B3FAA9
:1002B80083F7002F47D18B4202D3824200F2FA80A3
:1002C800841A61EB030301209846002EE0D0C6E9AA
:1002D8000048DDE702B9FFDEB2FA82F2002A40F0F8
:1002E8008F80491B4FEA154E1FFA85F80127B1FB8D
:1002F800FEFC230C0EFB1C1143EA014308FB0CF126
:10030800994207D9EB180CF1FF3002D2994200F25A
:10031800CD808446591AA3B2B1FBFEF00EFB10142F
:1003280043EA044408FB00F8A04507D92C1900F15A
:10033800FF3302D2A04500F2B6801846A4EB0804A9
:1003480040EA0C409FE7C7F1200CBB4022FA0CFEA4
:100358004EEA030E01FA07F420FA0CF521FA0CF321
:100368004FEA1E482543B3FBF8F92C0C08FB193358
:100378001FFA8EFA44EA034309FB0AF49C4202FA84
:1003880007F200FA07F10BD91EEB030309F1FF305E
:1003980080F087809C4240F28480A9F1020973446E
:1003A8001B1BADB2B3FBF8F008FB103345EA03445E
:1003B80000FB0AFAA24508D91EEB040400F1FF333A
:1003C8006BD2A24569D90238744440EA0940A0FBBF
:1003D8000289A4EB0A044C45C2464B4654D351D07B
:1003E800002E69D0B1EB0A0564EB030404FA0CFC97
:1003F800FD40FC404CEA0505C6E90054002747E7E4
:10040800C2F1200320FA03F7954001FA02F021FA1D
:1004180003F34FEA154E3843010CB3FBFEF71FFAFE
:1004280085F80EFB173341EA034107FB08F38B42BB
:1004380004FA02F407D9691807F1FF3C2FD28B425E
:100448002DD9023F2944CB1A81B2B3FBFEF00EFB33
:10045800103341EA034100FB08F38B4207D96918BE
:1004680000F1FF3C17D28B4215D902382944C91A2A
:1004780040EA07473BE73746304609E70746E7E6DD
:100488001846FBE64145ABD2B8EB020A69EB0E020F
:1004980001381346A4E76046E9E7184695E767463A
:1004A800D1E781467CE702382C4447E7ACF1020CDF
:1004B8002B442FE7384608E73746E9E6704700BF80
:1004C80038B50E4A0E4B054618784FF47A73B3FBCD
:1004D800F0F31068B0FBF3F000F096F8044658B952
:1004E8000F2D09D8024629464FF0FF3000F04AF890
:1004F800044B20461D6038BD0120FCE73800002071
:10050800000000200400002008B50B4B1A6842F4D4
:1005180000721A601A6842F480621A601A6842F41B
:1005280080721A60032000F01BF80020FFF7C8FF54
:1005380001F006FA002008BD003C0240034A044BC3
:1005480011681B780B441360704700BF60000020DF
:1005580000000020014B1868704700BF60000020B1
:10056800074AD36823F4E0631B041B0C43F0BF6302
:10057800000243F4003300F4E0600343D3607047A3
:1005880000ED00E0174B70B5DC68C4F30224C4F139
:100598000705042D04F1040328BF04254FF0FF3696
:1005A800062B06FA05F38CBF033C002421EA03035B
:1005B800A34006FA04F422EA0404002843EA0403E8
:1005C800A8BF00F160404FEA0313BCBF00F00F0062
:1005D800054ADBB2AABF00F56140135480F8003326
:1005E80070BD00BF00ED00E014ED00E0002808DB5E
:1005F8004209012300F01F0003FA00F0014B43F801
:100608002200704700E100E00138B0F1807F0AD293
:10061800064B074A5860F02182F823100020072271
:1006280098601A6070470120704700BF10E000E032
:1006380000ED00E02DE9F04F85B00B68DFF8AC81E4
:10064800684ADFF8AC91019300234FF0010C019C3C
:100658000CFA03FC04EA0C06B44540F0AE804C6882
:1006680024F01007022F16D14FEAD30A00EB8A0AAA
:1006780003F0070BDAF820504FEA8B0B4FF00F0E00
:100688000EFA0BFE25EA0E0E0D6905FA0BF545EA82
:100698000E05CAF820504FEA430A0325D0F800B0E7
:1006A80005FA0AF5ED4304F0030E05EA0B0B0EFA02
:1006B8000AFE013F4EEA0B0E012FC0F800E011D8E8
:1006C800876807EA050BCF6807FA0AFE4EEA0B07A8
:1006D8008760476827EA0C0CC4F300179F4047EA75
:1006E8000C074760C7683D408F6807FA0AF73D4323
:1006F800C560E50061D54FF0000BCDF80CB0D8F817
:100708004470394D47F48047C8F84470D8F84470AD
:1007180007F480470397039F23F0030707F18047F7
:1007280007F59C3703F0030ED7F808A04FEA8E0EA2
:100738004FF00F0C0CFA0EFCA8422AEA0C0C43D01E
:1007480005F58065A84241D005F58065A8423FD0EF
:1007580005F58065A8423DD005F58065A8423BD0E7
:1007680048453BD005F50065A84239D005F58065B8
:10077800A84214BF0825072505FA0EF545EA0C0519
:10078800BD601568F74314F4803F0CBF3D40354306
:100798001560556814F4003F0CBF3D403543556063
:1007A800956814F4801F0CBF3D4035439560D568AB
:1007B800A40254BF3D403543D5600133102B7FF46C
:1007C80044AF05B0BDE8F08F5D46D5E70125D3E716
:1007D8000225D1E70325CFE70425CDE70525CBE79B
:1007E8000625C9E7003C01400000024000380240ED
:1007F800001402400369194214BF01200020704709
:100808000AB1816170470904FBE7436931EA0303D0
:1008180008BF09048161704708B5044B5969014252
:1008280002D0586101F06AF808BD00BF003C0140E1
:100838002DE9F341044618B9012002B0BDE8F08162
:100848000368DD0710D42368980758D423681A076B
:1008580000F19A8023685B0700F1B880A269002A3A
:1008680040F019810020E8E7A64B9A6802F00C02D4
:10087800042A07D09A6802F00C02082A0AD15B6899
:10088800590207D59F4B1B689A03DCD56368002B78
:10089800D9D1D1E763689B4DB3F5803F11D12B685F
:1008A80043F480332B60FFF755FE964D06462B68C0
:1008B8009B03C8D4FFF74EFE801B6428F7D903209A
:1008C800BBE7B3F5A02F04D12B6843F480232B603A
:1008D800E5E72A6822F480322A602A6822F4802216
:1008E8002A60002BDFD1FFF735FE06462B689F03F1
:1008F800A9D5FFF72FFE801B6428F7D9DFE7814BC6
:100908009A6812F00C0F07D09A6802F00C02082AB5
:1009180011D15B685E020ED47A4B1A68950702D52E
:10092800E268012A88D11A68216922F0F80242EAAD
:10093800C1021A608AE7E268734BB2B101221A60F9
:10094800FFF708FE6F4D06462B68980707D52B68FA
:10095800226923F0F80343EAC2032B6076E7FFF726
:10096800F9FD801B0228EFD9A9E71A60FFF7F2FD0D
:10097800644D06462B6899077FF568AFFFF7EAFDD7
:10098800801B0228F6D99AE76269604B7AB1012286
:100998001A60FFF7DFFD5B4D06466B6F9F073FF55B
:1009A80059AFFFF7D7FD801B0228F6D987E71A60F1
:1009B800FFF7D0FD534D06466B6F98077FF54AAF9A
:1009C800FFF7C8FD801B0228F6D978E74D4B1A6C53
:1009D80012F0805228D101921A6C42F080521A64A7
:1009E8001B6C03F080530193019B0126484D2B6833
:1009F800D9051BD5A368434D012B27D12B6F43F095
:100A080001032B67FFF7A6FD3E4D074641F28838E4
:100A18002B6F9B0739D5002E3FF420AF394A136C52
:100A280023F08053136419E70026DFE72B6843F4AB
:100A380080732B60FFF78EFD07462B68DA05D9D443
:100A4800FFF788FDC01B0228F7D938E7052B04D12A
:100A58002B6F43F004032B67D0E72A6F22F00102C3
:100A68002A672A6F22F004022A67002BCAD1FFF7EF
:100A780071FD41F2883807462B6F9807CBD5FFF7F1
:100A880069FDC01B4045F7D919E7FFF763FDC01B97
:100A98004045BDD913E71B4DAB6803F00C03082B89
:100AA8003FF4CAAE1B4E0023022A336034D1FFF74D
:100AB80051FD07462B6899011ED4D4E90732134328
:100AC800626A43EA8213E26A43EA0263A26A0D4C4D
:100AD8005208013A43EA02436B6001233360FFF78F
:100AE80039FD054623689A013FF5BCAEFFF732FD94
:100AF800401B0228F6D9E2E6FFF72CFDC01B0228AE
:100B0800D8D9DCE60038024000004742800E474250
:100B18000070004060004742FFF71CFD04462B6848
:100B28009B017FF59FAEFFF715FD001B0228F6D944
:100B3800C5E600BF134908B58B6803F00C03042B06
:100B480003D0082B03D0104800E0104808BD4A68BD
:100B58004B68496813F4800314BF0C480A48C1F372
:100B6800881118BF002302F03F02A1FB0001FFF724
:100B780027FB044B5B68C3F3014301335B00B0FB05
:100B8800F3F0E3E7003802400024F40040787D01E8
:100B98002DE9F0410D46044610B90120BDE8F08169
:100BA800434B1A6802F00F028A4227D321688F0745
:100BB8002CD4C8073FD43E4B1A6802F00F02AA4251
:100BC80064D8226851076AD4130707D5394A2169BE
:100BD800936823F4604343EAC1039360FFF7AAFFD5
:100BE800344B354A9B68C3F30313D35CD840334B6B
:100BF80018600020FFF764FC0020CFE7CAB21A7023
:100C08001B6803F00F038B42C7D1CFE7294B11F0C4
:100C1800040F1EBF9A6842F4E0529A600E0742BF62
:100C28009A6842F460429A609A68A06822F0F002DA
:100C380002439A60BDE762681E4B012A1CD11B68FB
:100C480013F4003FA9D01B4EB36823F003031343EA
:100C5800B360FFF77FFC41F288380746B3686268E3
:100C680003F00C03B3EB820FA5D0FFF773FCC01B96
:100C78004045F3D9032091E7911E01291B6802D84A
:100C880013F0007FDEE713F0020FDBE7EAB21A7019
:100C98001B6803F00F03AB427FF47FAF91E7054970
:100CA800E0688B6823F4E05303438B608CE700BF54
:100CB800003C0240003802404B1B0008380000206E
:100CC800F8B504460E4615461F4621688A6836EA76
:100CD800020301D000202DE06B1CF7D0FFF73AFC8F
:100CE800C01B8542F1D823685A6822F0E0025A6096
:100CF8006268B2F5827F0AD1A268B2F5004F02D0CD
:100D0800B2F5806F03D11A6822F040021A60A26A15
:100D1800B2F5005F07D11A6822F400521A601A6807
:100D280042F400521A60012384F85130002384F8F9
:100D380050300320F8BD000073B51346124A134E15
:100D480015684268B5FBF6F64FF47A757543B2F547
:100D5800827F044601950BD10A468021FFF7B0FF38
:100D680078B1636D43F020036365032002B070BD62
:100D7800019B33B1019B013B019323689B681B06D0
:100D8800F6D40020F2E700BF3800002000366E01DC
:100D980010B50446002836D00023836290F85130FD
:100DA80003F0FF021BB980F8502000F0E5FD216830
:100DB800A269022384F851300B6823F040030B60CA
:100DC800D4E901300343E0680343206903436069C1
:100DD8000343E0690343206A0343A06A034302F420
:100DE800007003430B60120C636A02F004021A439A
:100DF8004A60CB6923F40063CB610020012360655E
:100E080084F8513010BD0120FCE72DE9F3411E465E
:100E180090F85030012B04460D46904600F09B8018
:100E2800012380F85030FFF795FB074694F85100EE
:100E3800C0B2012840F08D80002D5DD0B8F1000FC0
:100E48005AD0032384F851300020A3686065A0635A
:100E5800A4F83680A087E087C4E9100020682563DD
:100E6800B3F5004F08BF0368A4F8348004BF43F407
:100E7800804303600368E2685B065EBF036843F073
:100E880040030360B2F5006F63683ED113B1B8F157
:100E9800010F07D135F8023BC3602563E38E013BA0
:100EA8009BB2E386E38E9BB2A3B93A46314620460D
:100EB800FFF742FF002849D1A36833B9019323689B
:100EC800DA6801929B680193019B606D003018BF3E
:100ED800012011E022689368980705D5236B33F841
:100EE800021BD1602363D9E7FFF734FBC01BB04274
:100EF800D8D3711CD6D00320012384F851300023A5
:100F080084F8503002B0BDE8F08113B1B8F1010F98
:100F180008D12B780373236B01332363E38E013BE2
:100F28009BB2E386E38E9BB2002BBED023689A68FF
:100F3800920703D5226B12781A73ECE7FFF70AFBC6
:100F4800C01BB042EED3731CECD0D4E720236365FA
:100F5800B2E70220D0E70220D4E72DE9F7431E4686
:100F680090F850300A9F012B04460D46914600F038
:100F7800E280012380F85030FFF7ECFA94F8513002
:100F88006168DBB2012B80460AD0B1F5827F40F060
:100F9800D080A068002840F0CC80042B40F0C980A5
:100FA800002D00F0C480B9F1000F00F0C080002EC1
:100FB80000F0BD8094F85130C4F83890042B1CBF61
:100FC800052384F8513000236365C4E9103323688E
:100FD800E687E6861A68A687500658BF1A6825630A
:100FE80058BF42F04002A68658BF1A60E268B2F5C0
:100FF800006F58D109B1012E07D135F8022BDA60FC
:10100800E38E2563013B9BB2E3860125E38E9BB209
:10101800ABB9E38F9BB293B9424639462046FFF7F6
:101028008BFE002840F08180A368002B32D1236812
:101038000190DA6801929B680193019B2AE022687B
:10104800936899070DD5E38E9BB253B14DB1236BCD
:1010580033F8021BD1602363E38E013B9BB2E38626
:1010680000259368DB070CD5E38F9BB24BB1A36BCC
:10107800D26823F8022BA363E38F013B9BB2E3877B
:101088000125FFF767FAA0EB08008742BED87E1C4F
:10109800BCD00320012384F85130002384F8503059
:1010A80003B0BDE8F08309B1012E08D12A781A737C
:1010B800236B01332363E38E013B9BB2E386012557
:1010C800E38E9BB21BB9E38F9BB2002BA4D022689E
:1010D800936898070ED5E38E9BB25BB155B1236B2D
:1010E8001B781373236B01332363E38E013B9BB29D
:1010F800E386002522689368D9070DD5E38F9BB254
:1011080053B1A36BD2681A70A36B0133A363E38F47
:10111800013B9BB2E3870125FFF71CFAA0EB08000F
:101128008742CDD87B1CCBD0B3E720236365012051
:10113800B0E70220AEE70220B2E70000304A0368B9
:10114800904212D0B0F1804F0FD0A2F57C4290426D
:101158000BD002F58062904207D002F5806290427F
:1011680003D002F57842904219D14A6823F07003FF
:101178001343234A904229D0B0F1804F26D0A2F5DC
:101188007C42904222D002F5806290421ED002F545
:10119800806290421AD002F57842904216D0194ADD
:1011A800904213D002F5806290420FD002F580621F
:1011B80090420BD0A2F59832904207D002F5806297
:1011C800904203D002F58062904203D1CA6823F4AA
:1011D800407313434A6923F08003134303608B6809
:1011E800C3620B688362064B984203D003F58063A1
:1011F800984201D10B69036301234361704700BF23
:10120800000001400040014010B50446A0B190F82C
:101218003D3003F0FF021BB980F83C2000F0E2FBF0
:10122800022384F83D302068211DFFF787FF012342
:1012380084F83D30002010BD0120FCE710B584681B
:101248000A4324F47F4442EA03232343836010BD06
:1012580090F83C30012B70B504464FF0020019D0CD
:1012680084F83D002068012384F83C30836823F427
:101278007F4323F0770383600B68402B65D015D834
:10128800102B0CD007D853B10123002084F83D302F
:1012980084F83C0070BD202B01D0302BF4D182683B
:1012A80043F0070322F0700213431AE0602B34D096
:1012B80019D8502BE8D14A68CE68016A056A25F02A
:1012C80001050562836921F00A0123F0F00343EA6E
:1012D80006130A4383610262836823F0700343F0B4
:1012E80057038360D0E7702B0CD0B3F5005FCBD1E8
:1012F800CB68D1E90121FFF7A1FF2268936843F485
:10130800804308E0CB68D1E90121FFF797FF226805
:10131800936843F077039360B6E74D68CE68016A37
:1013280021F0100101628269036A22F4704223F0FD
:10133800A00343EA051342EA063282610362836826
:1013480023F0700343F06703CBE74A68CE68016A6D
:10135800056A25F001050562836921F00A0123F079
:10136800F00343EA06130A4383610262836823F0A9
:10137800700343F04703B4E790F83C30012B30B5D5
:101388004FF0020314D0046880F83D306268A36807
:101398000D68496822F0700223F080030B432A434A
:1013A8006260A360012380F83D30002380F83C3060
:1013B800184630BD074A136823F004031360064B30
:1013C800C0081870C0EB401300EB8300034BC0004B
:1013D8001880704710E000E05A00002058000020F4
:1013E800094B1B885843094B002258609A601A68B9
:1013F80042F001021A601A6802F00112012AFAD0BA
:1014080000221A609A6070475800002010E000E03F
:10141800094B1B785843094B002258609A601A6898
:1014280042F001021A601A6802F00112012AFAD089
:1014380000221A609A6070475A00002010E000E00D
:1014480030B587B006AC1E4B1E481A88ADF8102080
:10145800012504F80C5D00229B788DF812301021CC
:10146800ADF814208DF81620FFF7CAF92A46214650
:1014780032231548FFF7C9FC0A20FFF7C9FF3223BA
:10148800009305AA04A903230F48FFF766FD9DF8FA
:1014980015409DF814300B48240244EA03439DF894
:1014A80016401C4323024FF001024FF0100148BFC1
:1014B80044F07F44FFF7A4F9204607B030BD00BFD1
:1014C800481B000800000240942F002037B502ACEA
:1014D8000A4D04F8040D002228461021FFF790F960
:1014E8003223214601220648FFF78FFC01221021F2
:1014F8002846FFF785F903B030BD00BF0000024061
:10150800942F002008B5FC20FFF7E0FF0520FFF727
:101518007FFF0020FFF7DAFF0320FFF779FFFFF7CF
:101528008FFF07EE900AB8EEE77ADFED047A044BF6
:1015380087EE270A83ED000A08BD00BF80DBCB4990
:10154800882F002013B50D4C8DF8061040F0500080
:101558008DF804000022204610218DF80520FFF7A1
:101568004FF9642301A903220548FFF74EFC012225
:1015780010212046FFF744F902B010BD00000240D8
:10158800942F002041EA0011C9B20120FFF7DABF09
:1015980001460320FFF7D6BF01460220FFF7D2BF5E
:1015A80038B5054C054D08212846FFF723F908B141
:1015B800013CF8D138BD00BF005A62020000024069
:1015C8002DE9F0410746884616461D460024B442D8
:1015D80001DBBDE8F081FFF7E3FF98F800103878E9
:1015E800FFF790FF0134A5EC010AF0E71FB5FF23D0
:1015F80004AA8DF80E30002302F8013D322300932F
:101608000DF10E0101230448FFF7A7FC9DF80F0018
:1016180005B05DF804FB00BF942F002037B5104CCF
:1016280040F010008DF804000022204610218DF8AB
:101638000520FFF7E5F8322301A902220948FFF740
:10164800E4FB0A20FFF7E4FEFFF7D0FF012205467E
:1016580010212046FFF7D4F8284603B030BD00BF5C
:1016680000000240942F002007B5FFF799FF0020E3
:10167800FFF7D4FF8DF807009DF80700000903B0B5
:101688005DF804FB37B502AC4FF4CA630A4D24F881
:10169800043D284600221021FFF7B2F832232146E4
:1016A80002220648FFF7B1FB012210212846FFF766
:1016B800A7F803B030BD00BF00000240942F0020FF
:1016C80030B5142495B02246002109A800F024FA68
:1016D8002246002103A800F01FFA00241B4B0194A6
:1016E8001A6C42F080521A641B6C03F08053019309
:1016F800019B174B02941A6842F480421A601B68D7
:1017080003F4804302930122029B1023CDE90B23AB
:101718000821A8230225CDE9101308A80423139350
:101728000895CDE90E541295FFF782F80F23CDE9FD
:1017380003354FF4A0504FF48053CDE9060305213B
:1017480003A80594FFF724FA15B030BD003802400D
:101758000070004080B58AB0FEF7D6FEFFF7B0FFF4
:10176800142200210DEB0200002400F0D5F9574B9C
:1017780001941A6B564842F001021A631A6B02F080
:1017880001020192019A02941A6B42F008021A634C
:101798001B6B03F00803224602931021029BFFF7FC
:1017A8002FF822464FF480514A48FFF729F84A4B50
:1017B80047480794082205A9CDE905230125FEF726
:1017C80039FF4FF01008032605A941480795CDE9D0
:1017D80005854FF480570896FEF72CFF05A93D486C
:1017E800CDE90575CDE90744FEF724FF22462146D9
:1017F8000920FEF7C7FE0920FEF7F8FE37483849EA
:1018080084624FF48273C0E90013C0E904452823B9
:101818004FF40075C0E906530A23324DC362C0E98C
:101828000244C0E90844FFF7B3FA4246214605A836
:1018380000F072F92C4B2C612846C5E90034CDE93B
:101848000344C5E90244AC61FFF7DEFC05A928465C
:101858000597FFF7FDFC03A92846CDE90344FFF7E8
:101868008BFDA820FFF7A6FDFFF70CFF2046FFF72A
:1018780093FE3046FFF78CFEFFF7F6FE1B4B1C4C21
:1018880018704FF4FA70FFF7ABFD4FF4FA70FFF7DA
:10189800A7FD4FF4FA70FFF7A3FD4FF4FA70FFF7B6
:1018A8009FFD144B1978144B1878FFF76BFE052031
:1018B800FFF7AEFDB7EE008AD4ED007A77EE887AAE
:1018C8000A20C4ED007AFFF7A3FDF5E700380240CF
:1018D80000000240000C024000002110942F00205C
:1018E8000030014064000020000800405B00002038
:1018F80010000020080000205C000020082810B517
:1019080011D1094B1B78032B0DD14FF48051074897
:10191800FEF77BFF064A074B126807490748BDE8F0
:101928001040FFF74DBE10BD5B000020000C0240C8
:101938000C000020A8000020080000205C00002007
:1019480082B00C4B002100915A6C42F480425A64D8
:101958005A6C02F480420092009A01911A6C42F08B
:1019680080521A641B6C03F080530193019B02B0F0
:10197800704700BF0038024010B5044688B01422F2
:10198800002103A800F0C8F82268144B9A4222D11B
:1019980003F58433002101915A6C114842F48052B6
:1019A8005A645A6C02F480520192019A02911A6B9D
:1019B80042F001021A631B6B03F001030293029BBE
:1019C800E02202230321CDE903230523CDE90613F1
:1019D80003A9FEF72FFE08B010BD00BF003001407C
:1019E800000002400268094B9A4282B00BD10023E2
:1019F8000193074B1A6C42F004021A641B6C03F043
:101A080004030193019B02B0704700BF0008004027
:101A1800003802407047FEE7FEE7FEE7FEE7704742
:101A280070477047FEF78ABD0820FEF7F5BE000034
:101A38000F49D1F8883043F47003C1F888300D4B52
:101A48001A68002042F001021A6098601A6822F0B1
:101A5800847222F480321A60074A5A601A6822F4A3
:101A680080221A60D8604FF000638B60704700BF17
:101A780000ED00E00038024010300024DFF834D0D8
:101A8800002103E00C4B5B58435004310B480C4BCE
:101A980042189A42F6D30B4A02E0002342F8043B6C
:101AA800094B9A42F9D3FFF7C3FF00F011F8FFF78B
:101AB80051FE7047000002206C1B00080000002047
:101AC8003C0000203C000020F02F0020FEE7000032
:101AD80070B50D4E0D4CA41BA4100025A54209D1CC
:101AE8000B4E0C4C00F020F8A41BA4100025A542B6
:101AF80005D170BD56F8253098470135EEE756F800
:101B0800253098470135F2E7641B0008641B00087C
:101B1800641B0008681B000802440346934200D176
:101B2800704703F8011BF9E7F8B500BFF8BC08BC1B
:101B38009E467047F8B500BFF8BC08BC9E46704783
:101B4800FFFFFF0000000000000000010203040680
:041B58000708090071
:081B5C009CE6FF7F0100000080
:041B6400AD010008C7
:041B680089010008E7
:101B6C00010000001000000001000000B80B000094
:101B7C000000304100000040000040400000804068
:101B8C000000A0400000C0400000E0400000004108
:0C1B9C0000001041000020410024F40073
:0400000508001A8550
:00000001FF
