:020000040800F2
:100000000000022075660008B9650008BB6500089D
:10001000BD650008BF650008C1650008000000005C
:1000200000000000000000000000000081540008F3
:10003000C36500080000000011550008C5650008F0
:10004000C5660008C5660008C5660008C5660008E4
:10005000C5660008C5660008C5660008C5660008D4
:10006000C5660008D3650008C5660008D9650008A4
:10007000C5660008C5660008C5660008C5660008B4
:10008000C5660008E5650008C5660008C566000885
:10009000C5660008C5660008C5660008C566000894
:1000A000C5660008C5660008C5660008C566000884
:1000B000C5660008C5660008C5660008D561000869
:1000C000F1650008C5660008C5660008C566000839
:1000D000C5660008C5660008C5660008C566000854
:1000E000C5660008C5660008C5660008C566000844
:1000F000C5660008C5660008C5660008C566000834
:10010000C5660008C5660008C5660008C566000823
:10011000C5660008C5660008C5660008C566000813
:1001200011660008C5660008C56600081D6600085F
:10013000C5660008C5660008C5660008C5660008F3
:10014000C5660008C5660008C5660008C5660008E3
:10015000C5660008C5660008C5660008C5660008D3
:10016000C5660008C5660008C5660008C5660008C3
:10017000C5660008C5660008C566000800000000E6
:08018000C5660008C566000811
:1001900010B5054C237833B9044B13B10448AFF3C1
:1001A00000800123237010BD940000200000000097
:1001B000F067000808B5034B1BB103490348AFF3D0
:1001C000008008BD0000000098000020F0670008D3
:1001D0004B1C012B98BF70472DE9F003911C9B0825
:1001E000B1F80480B1F802900A8831F802CC80445A
:1001F000814402448444D9F80070D8F8006015683E
:10020000DCF80040C9F80060C8F80070CCF8005075
:100210001460D9F80470D8F804605568DCF804401C
:10022000C9F80460C8F80470CCF804505460083170
:10023000013BD5D1BDE8F00370474B1C012B98BFA3
:1002400070472DE9F003911C9B08B1F80480B1F8C8
:1002500002900A8831F802CC00EB580800EB5909EB
:1002600000EB520200EB5C0CD9F80070D8F800608B
:100270001568DCF80040C9F80060C8F80070CCF8D8
:10028000005014600831013BDFD1BDE8F003704736
:1002900081F0004102E000BF83F0004330B54FEA37
:1002A00041044FEA430594EA050F08BF90EA020FA4
:1002B0001FBF54EA000C55EA020C7FEA645C7FEA37
:1002C000655C00F0E2804FEA5454D4EB5555B8BF5A
:1002D0006D420CDD2C4480EA020281EA030382EACB
:1002E000000083EA010180EA020281EA0303362D5D
:1002F00088BF30BD11F0004F4FEA01314FF4801C30
:100300004CEA113102D0404261EB410113F0004F41
:100310004FEA03334CEA133302D0524263EB4303F8
:1003200094EA050F00F0A780A4F10104D5F1200E96
:100330000DDB02FA0EFC22FA05F2801841F10001F1
:1003400003FA0EF2801843FA05F359410EE0A5F1C5
:1003500020050EF1200E012A03FA0EFC28BF4CF0F6
:10036000020C43FA05F3C01851EBE37101F00045AC
:1003700007D54FF0000EDCF1000C7EEB00006EEBB9
:100380000101B1F5801F1BD3B1F5001F0CD3490843
:100390005FEA30004FEA3C0C04F101044FEA44529A
:1003A00012F5800F80F09A80BCF1004F08BF5FEA21
:1003B000500C50F1000041EB045141EA050130BD01
:1003C0005FEA4C0C404141EB010111F4801FA4F1A4
:1003D0000104E9D191F0000F04BF01460020B1FAF9
:1003E00081F308BF2033A3F10B03B3F120020CDA31
:1003F0000C3208DD02F1140CC2F10C0201FA0CF00F
:1004000021FA02F10CE002F11402D8BFC2F1200C73
:1004100001FA02F120FA0CFCDCBF41EA0C01904029
:10042000E41AA2BF01EB0451294330BD6FEA040472
:100430001F3C1CDA0C340EDC04F11404C4F120025D
:1004400020FA04F001FA02F340EA030021FA04F36F
:1004500045EA030130BDC4F10C04C4F1200220FAC6
:1004600002F001FA04F340EA0300294630BD21FA04
:1004700004F0294630BD94F0000F83F4801306BFCA
:1004800081F480110134013D4EE77FEA645C18BFBE
:100490007FEA655C29D094EA050F08BF90EA020F55
:1004A00005D054EA000C04BF1946104630BD91EA4D
:1004B000030F1EBF0021002030BD5FEA545C05D150
:1004C0004000494128BF41F0004130BD14F580048F
:1004D0003CBF01F5801130BD01F0004545F0FE4103
:1004E00041F470014FF0000030BD7FEA645C1ABF38
:1004F000194610467FEA655C1CBF0B46024650EA6F
:10050000013406BF52EA033591EA030F41F400219A
:1005100030BD00BF90F0000F04BF0021704730B520
:100520004FF4806404F132044FF000054FF00001F5
:1005300050E700BF90F0000F04BF0021704730B5B6
:100540004FF4806404F1320410F0004548BF40428B
:100550004FF000013EE700BF42004FEAE2014FEAE0
:1005600031014FEA02701FBF12F07F4393F07F4FBB
:1005700081F06051704732F07F4208BF704793F0BE
:100580007F4F04BF41F40021704730B54FF46074D1
:1005900001F0004521F000411CE700BF50EA0102D4
:1005A00008BF704730B54FF000050AE050EA01027D
:1005B00008BF704730B511F0004502D5404261EBED
:1005C00041014FF4806404F132045FEA915C3FF42E
:1005D000D8AE4FF003025FEADC0C18BF03325FEACB
:1005E000DC0C18BF033202EBDC02C2F1200300FA7C
:1005F00003FC20FA02F001FA03FE40EA0E0021FAA1
:1006000002F11444BDE600BF70B54FF0FF0C4CF48E
:10061000E06C1CEA11541DBF1CEA135594EA0C0F40
:1006200095EA0C0F00F0DEF82C4481EA030621EA7B
:100630004C5123EA4C5350EA013518BF52EA0335B6
:1006400041F4801143F4801338D0A0FB02CE4FF068
:100650000005E1FB02E506F00042E0FB03E54FF098
:100660000006E1FB03569CF0000F18BF4EF0010E90
:10067000A4F1FF04B6F5007F64F5407404D25FEA8C
:100680004E0E6D4146EB060642EAC62141EA55513F
:100690004FEAC52040EA5E504FEACE2EB4F1FD0C81
:1006A00088BFBCF5E06F1ED8BEF1004F08BF5FEAFF
:1006B000500E50F1000041EB045170BD06F00046B1
:1006C00046EA010140EA020081EA0301B4EB5C045E
:1006D000C2BFD4EB0C0541EA045170BD41F4801156
:1006E0004FF0000E013C00F3AB8014F1360FDEBF7B
:1006F000002001F0004170BDC4F10004203C35DA57
:100700000C341BDC04F11404C4F1200500FA05F3D9
:1007100020FA04F001FA05F240EA020001F000427A
:1007200021F0004110EBD37021FA04F642EB0601F0
:100730005EEA430E08BF20EAD37070BDC4F10C041A
:10074000C4F1200500FA04F320FA05F001FA04F2DE
:1007500040EA020001F0004110EBD37041F10001CA
:100760005EEA430E08BF20EAD37070BDC4F12005D5
:1007700000FA05F24EEA020E20FA04F301FA05F23D
:1007800043EA020321FA04F001F0004121FA04F2E5
:1007900020EA020000EBD3705EEA430E08BF20EAB5
:1007A000D37070BD94F0000F0FD101F000464000EF
:1007B00041EB010111F4801F08BF013CF7D041EA71
:1007C000060195F0000F18BF704703F00046520075
:1007D00043EB030313F4801F08BF013DF7D043EA46
:1007E0000603704794EA0C0F0CEA135518BF95EAFC
:1007F0000C0F0CD050EA410618BF52EA4306D1D183
:1008000081EA030101F000414FF0000070BD50EAA1
:10081000410606BF1046194652EA430619D094EA2B
:100820000C0F02D150EA013613D195EA0C0F05D115
:1008300052EA03361CBF104619460AD181EA030169
:1008400001F0004141F0FE4141F470014FF0000021
:1008500070BD41F0FE4141F4780170BD70B54FF0BC
:10086000FF0C4CF4E06C1CEA11541DBF1CEA13553C
:1008700094EA0C0F95EA0C0F00F0A7F8A4EB05041E
:1008800081EA030E52EA03354FEA013100F0888015
:100890004FEA03334FF0805545EA131343EA1263DE
:1008A0004FEA022245EA111545EA10654FEA002693
:1008B0000EF000419D4208BF964244F1FD0404F54C
:1008C000407402D25B084FEA3202B61A65EB0305A8
:1008D0005B084FEA32024FF480104FF4002CB6EB65
:1008E000020E75EB030E22BFB61A754640EA0C00E5
:1008F0005B084FEA3202B6EB020E75EB030E22BF25
:10090000B61A754640EA5C005B084FEA3202B6EB65
:10091000020E75EB030E22BFB61A754640EA9C0024
:100920005B084FEA3202B6EB020E75EB030E22BFF4
:10093000B61A754640EADC0055EA060E18D04FEAB2
:10094000051545EA16754FEA06164FEAC30343EA52
:1009500052734FEAC2025FEA1C1CC0D111F4801F1F
:100960000BD141EA00014FF000004FF0004CB6E718
:1009700011F4801F04BF01430020B4F1FD0C88BFB7
:10098000BCF5E06F3FF6AFAEB5EB030C04BFB6EBC2
:10099000020C5FEA500C50F1000041EB045170BDB5
:1009A0000EF0004E4EEA113114EB5C04C2BFD4EBE2
:1009B0000C0541EA045170BD41F480114FF0000E66
:1009C000013C90E645EA060E8DE60CEA135594EAE2
:1009D0000C0F08BF95EA0C0F3FF43BAF94EA0C0FE5
:1009E0000AD150EA01347FF434AF95EA0C0F7FF45A
:1009F00025AF104619462CE795EA0C0F06D152EAAE
:100A000003353FF4FDAE1046194622E750EA410691
:100A100018BF52EA43067FF4C5AE50EA41047FF4A2
:100A20000DAF52EA43057FF4EBAE12E74FEA410205
:100A3000B2F1E04324BFB3F5001CDCF1FE5C0DD93C
:100A400001F0004C4FEAC0024CEA5070B2F1004F86
:100A500040EB830008BF20F00100704711F0804F89
:100A600021D113F13872BCBF01F00040704741F44E
:100A700080114FEA5252C2F11802C2F1200C10FA52
:100A80000CF320FA02F018BF40F001004FEAC12336
:100A90004FEAD32303FA0CFC40EA0C0023FA02F3DA
:100AA0004FEA4303CCE77FEA625307D150EA0133B0
:100AB0001EBF4FF0FE4040F44000704701F0004080
:100AC00040F0FE4040F40000704700BF53B94AB9FF
:100AD000002908BF00281CBF4FF0FF314FF0FF3046
:100AE00000F072B9ADF1080C6DE904CE00F006F823
:100AF000DDF804E0DDE9022304B070472DE9F0479A
:100B0000089E04468846002B4BD18A42154667D979
:100B1000B2FA82F24AB1C2F1200701FA02F320FAD6
:100B200007F7954047EA030894404FEA154E230C17
:100B3000B8FBFEF71FFA85FC0EFB178843EA084353
:100B400007FB0CF1994209D9EB1807F1FF3080F04F
:100B50001B81994240F21881023F2B445B1AA4B2D8
:100B6000B3FBFEF00EFB103344EA034400FB0CFC25
:100B7000A44509D92C1900F1FF3380F00781A44561
:100B800040F2048102382C4440EA0740A4EB0C04F4
:100B900000271EB1D4400023C6E900433946BDE812
:100BA000F0878B4209D9002E00F0EB800027C6E9C0
:100BB000000138463946BDE8F087B3FA83F7002FC5
:100BC00047D18B4202D3824200F2FA80841A61EB51
:100BD000030301209846002EE0D0C6E90048DDE777
:100BE00002B9FFDEB2FA82F2002A40F08F80491B80
:100BF0004FEA154E1FFA85F80127B1FBFEFC230CC6
:100C00000EFB1C1143EA014308FB0CF1994207D982
:100C1000EB180CF1FF3002D2994200F2CD808446ED
:100C2000591AA3B2B1FBFEF00EFB101443EA0444C0
:100C300008FB00F8A04507D92C1900F1FF3302D2B8
:100C4000A04500F2B6801846A4EB080440EA0C4028
:100C50009FE7C7F1200CBB4022FA0CFE4EEA030EC0
:100C600001FA07F420FA0CF521FA0CF34FEA1E48BA
:100C70002543B3FBF8F92C0C08FB19331FFA8EFA45
:100C800044EA034309FB0AF49C4202FA07F200FA21
:100C900007F10BD91EEB030309F1FF3080F08780C9
:100CA0009C4240F28480A9F1020973441B1BADB23F
:100CB000B3FBF8F008FB103345EA034400FB0AFAE3
:100CC000A24508D91EEB040400F1FF336BD2A24504
:100CD00069D90238744440EA0940A0FB0289A4EBB8
:100CE0000A044C45C2464B4654D351D0002E69D01D
:100CF000B1EB0A0564EB030404FA0CFCFD40FC4074
:100D00004CEA0505C6E90054002747E7C2F1200375
:100D100020FA03F7954001FA02F021FA03F34FEAB3
:100D2000154E3843010CB3FBFEF71FFA85F80EFB96
:100D3000173341EA034107FB08F38B4204FA02F43C
:100D400007D9691807F1FF3C2FD28B422DD9023FFA
:100D50002944CB1A81B2B3FBFEF00EFB103341EAFB
:100D6000034100FB08F38B4207D9691800F1FF3CEF
:100D700017D28B4215D902382944C91A40EA0747CD
:100D80003BE73746304609E70746E7E61846FBE605
:100D90004145ABD2B8EB020A69EB0E0201381346AB
:100DA000A4E76046E9E7184695E76746D1E781463C
:100DB0007CE702382C4447E7ACF1020C2B442FE7C8
:100DC000384608E73746E9E6704700BF38B50E4AAF
:100DD0000E4B054618784FF47A73B3FBF0F31068A6
:100DE000B0FBF3F000F096F8044658B90F2D09D87F
:100DF000024629464FF0FF3000F04AF8044B2046E7
:100E00001D6038BD0120FCE7280000200000002004
:100E10000400002008B50B4B1A6842F400721A60F7
:100E20001A6842F480621A601A6842F480721A608A
:100E3000032000F01BF80F20FFF7C8FF05F0A4FA0D
:100E4000002008BD003C0240034A044B11681B7897
:100E50000B441360704700BF744000200000002066
:100E6000014B1868704700BF74400020074AD368E0
:100E700023F4E0631B041B0C43F0BF63000243F444
:100E8000003300F4E0600343D360704700ED00E0FE
:100E9000174B70B5DC68C4F30224C4F10705042DB8
:100EA00004F1040328BF04254FF0FF36062B06FA91
:100EB00005F38CBF033C002421EA0303A34006FA98
:100EC00004F422EA0404002843EA0403A8BF00F162
:100ED00060404FEA0313BCBF00F00F00054ADBB2CD
:100EE000AABF00F56140135480F8003370BD00BF05
:100EF00000ED00E014ED00E0002808DB42090123CA
:100F000000F01F0003FA00F0014B43F82200704785
:100F100000E100E00138B0F1807F0AD2064B074AB9
:100F20005860F02182F823100020072298601A6090
:100F300070470120704700BF10E000E000ED00E0C6
:100F40000368DAB223F47F7323F003031821103A05
:100F5000B2FBF1F20449032A88BF0433895C83653C
:100F6000C165806D704700BF5068000870B50446C9
:100F7000FFF776FF0546002C71D0002384F834304B
:100F80002268022384F83530136823F001031360CC
:100F900021680B68D8073CD40B68324DA0691D400E
:100FA000D4E901231343E2681343226913436269BE
:100FB0001343E26903431343226A1343626A042A18
:100FC00043EA050302BFD4E90B5635432B430B60BC
:100FD0004B69042A23F0070343EA02030BD1A26AF8
:100FE000E56A13433DB1F8B9012A2DD001D3022A95
:100FF00001D1EA012BD44B612046FFF7A1FFE26D3E
:101000003F239340836000200123606584F83530DE
:1010100009E0FFF725FF401B0528B9D920236365A8
:10102000032084F8350070BDB0F5005F13D1032AAA
:10103000E1D801A050F822F04F100008F30F00088B
:101040004F10000849100008B5F1C07FD3D14023EC
:1010500063650120E5E7022AF9D9032AC8E70120E0
:10106000E1E700BF3F8010F070B590F83440012CEC
:1010700036D0012480F8344090F83540866D012C3C
:101080004FF000054FF0020428D180F83540046885
:101090004565256825F48025256063608368402BBD
:1010A0000EBFA260A160E260C26D08BFE1603F2395
:1010B0009340B360236843F016032360636943F0F1
:1010C00080036361036C1BB1236843F00803236052
:1010D000236843F001032360002070BD80F8345082
:1010E0000220FAE790F83530022B03D080234365C5
:1010F000012070470268052380F83530136823F01B
:101100000103136000207047F7B5002301935C4B87
:10111000856D1F68C36D2E6808229A4032420446CE
:101120000CD001680868400708D5086820F0040062
:101130000860AA60626D42F00102626501229A4075
:10114000324208D021684969090641BFAA60626D30
:1011500042F00202626504229A40324208D02168BD
:101160000968880741BFAA60626D42F004026265A7
:1011700010229A40324210D02368196809070CD512
:10118000AA601A68500337D51B68190301D4236C71
:1011900000E0A36C0BB120469847E16D20228A4005
:1011A00032423AD023681868C60636D5AA6094F849
:1011B0003520052A1A6827D122F016021A605A69CA
:1011C00022F080025A61226C0AB9A26C1AB11A6824
:1011D00022F008021A603F238B40AB60002384F8A2
:1011E0003430012384F83530236D002B45D0204660
:1011F00003B0BDE8F04018471A68D2055EBF1A6810
:1012000022F008021A60C2E7500327D51B681903B1
:1012100031D4636C0BB120469847636D6BB3636D3B
:10122000DA0719D50523226884F83530136823F0CE
:10123000010313604FF41653B7FBF3F7019B01331F
:10124000BB42019302D81368DB07F7D4002384F86C
:101250003430012384F83530E36CC6E71A6812F4A1
:10126000807208D1196821F010011960012384F8F7
:10127000342084F83530E36BCCE703B0F0BD00BF19
:101280002800002090F835007047406D704700003E
:101290002DE9F04F85B00B68DFF8AC81684ADFF8C4
:1012A000AC91019300234FF0010C019C0CFA03FC5C
:1012B00004EA0C06B44540F0AE804C6824F01007F8
:1012C000022F16D14FEAD30A00EB8A0A03F0070B6C
:1012D000DAF820504FEA8B0B4FF00F0E0EFA0BFE90
:1012E00025EA0E0E0D6905FA0BF545EA0E05CAF85A
:1012F00020504FEA430A0325D0F800B005FA0AF55A
:10130000ED4304F0030E05EA0B0B0EFA0AFE013F53
:101310004EEA0B0E012FC0F800E011D8876807EAEB
:10132000050BCF6807FA0AFE4EEA0B07876047688D
:1013300027EA0C0CC4F300179F4047EA0C074760EC
:10134000C7683D408F6807FA0AF73D43C560E5006E
:1013500061D54FF0000BCDF80CB0D8F84470394D82
:1013600047F48047C8F84470D8F8447007F48047C1
:101370000397039F23F0030707F1804707F59C3786
:1013800003F0030ED7F808A04FEA8E0E4FF00F0CB3
:101390000CFA0EFCA8422AEA0C0C43D005F5806535
:1013A000A84241D005F58065A8423FD005F580658B
:1013B000A8423DD005F58065A8423BD048453BD0CA
:1013C00005F50065A84239D005F58065A84214BF2F
:1013D0000825072505FA0EF545EA0C05BD601568D8
:1013E000F74314F4803F0CBF3D403543156055680A
:1013F00014F4003F0CBF3D4035435560956814F42C
:10140000801F0CBF3D4035439560D568A40254BF92
:101410003D403543D5600133102B7FF444AF05B018
:10142000BDE8F08F5D46D5E70125D3E70225D1E77A
:101430000325CFE70425CDE70525CBE70625C9E73A
:10144000003C01400000024000380240001402400D
:101450000369194214BF0120002070470AB181615D
:1014600070470904FBE7436931EA030308BF090435
:101470008161704708B5044B5969014202D0586137
:1014800004F050FF08BD00BF003C014070B50446A9
:1014900008B9012070BD90F83D3003F0FF021BB980
:1014A00080F83C2004F090FF2268242384F83D302B
:1014B000136823F00103136001F0ACF96368414A3B
:1014C00093424DD8404A9042E3D922683F4955683B
:1014D000B0FBF1F125F03F050D435560156A25F08D
:1014E0003F05013129431162D169364D21F44F4145
:1014F000AB4221F0FF0100F1FF3048D85B00B0FBA8
:10150000F3F0431CC3F30B03042B38BF04230B433A
:10151000D361D4E907301168034321F0C0010B43C4
:1015200013609168D4E9030321F40341034321F0DC
:10153000FF010B439360D4E90530D168034321F0E8
:10154000FF010B43D360136843F0010313600020D5
:101550002023206484F83D30206384F83E0099E71E
:101560001B4A904295D92268184E5568B0FBF6F692
:1015700025F03F0535435560156A4FF49671714368
:1015800025F03F054FF47A76B1FBF6F1A9E7A5689F
:1015900055B903EB4303B0FBF3F0431CC3F30B0358
:1015A0006BB143F40043B2E719256B43B0FBF3F092
:1015B000431CC3F30B0313B143F44043A7E70123D8
:1015C000A5E700BFA08601007F841E0040420F00F7
:1015D000FF083D0090F83D30202B10B532D1002996
:1015E0002ED0002A2CD090F83C30012B2AD0046851
:1015F000012380F83C302368DB075EBF236843F09B
:1016000001032360236823F400632360222380F80E
:101610003D30202380F83E30002303644285428D14
:101620000285094AC2622268416242F480622260F5
:10163000626880F83C3042F4E0626260184610BD97
:101640000120FCE70220FAE70000FFFFF8B590F860
:101650003D30202B044617464FD100294BD0002A9D
:1016600049D090F83C30012B47D0012380F83C3022
:1016700003681A68D2075EBF186840F0010018605E
:1016800018681A4620F4006042F8100B0025212348
:10169000202684F83D3084F83E6025646785638D9C
:1016A0001748E062606B174F61629BB22385C76386
:1016B000154FC764C0E9105585640565FFF7D4FC74
:1016C00078B923681A6842F480621A605A6884F80C
:1016D0003C0042F440725A605A6842F400625A6018
:1016E000F8BD84F83D6084F83E50236C84F83C508B
:1016F00043F0100323640120F2E70220F0E700BF6B
:101700000000FFFF5B1700081F17000870477047B5
:10171000704770477047704770477047704738B5DB
:10172000846B636B0025DD63A36BDD63FFF7ADFDA9
:10173000022811D02268136823F4806313602023E9
:10174000658584F83D3084F83E50236C43F01003E7
:1017500023642046FFF7E2FF38BD70B5846B236831
:1017600094F83D2094F83E00E16A5D68666B25F4CC
:1017700040755D600025F563A66BD2B2F56302F09B
:101780002105212DC0B205D002F02205222D23D142
:10179000202821D1596821F400615960292A4FF08D
:1017A000000363850DD121232363282384F83D3072
:1017B0002046FFF7ADFF2268536843F4407353603F
:1017C00070BD2A2AF7D122232363282384F83D30D1
:1017D0002046FFF79EFFEEE794F83E20002AEFD068
:1017E000628D92B2012A02BF1A6822F480621A60E6
:1017F0005A6811F5803F22F440725A6006D00829D9
:1018000004D0B1F12A4F01D0202903D11A6842F443
:1018100000721A605A6822F480525A605A6822F4A0
:1018200000625A6000236385236C1BB12046FFF7DA
:1018300075FFC5E7202284F83D2094F83E2084F807
:101840003E30402A04D123632046FFF766FFB7E706
:10185000122323632046FFF75AFFB1E77047806BDE
:10186000026890F83D1070B51468466B856B0023D4
:1018700024F48064F363EB63146043851468336578
:1018800024F001042B65146090F83D40602CC9B22F
:1018900008D1202280F83D2080F83E300364FFF715
:1018A000DDFF70BD01F0280128290DD1146844F036
:1018B00001041460146844F480641460036380F8C5
:1018C0003D10FFF72BFFECE7202280F83D2080F849
:1018D0003E30F6E790F83D2090F83E10036810295E
:1018E00010B5D2B2044605D1222A02BF196821F4EC
:1018F0000061196002F0280128293AD100222263F0
:1019000084F83D105A6812F4006259D05A68606B2E
:1019100022F400625A6090F83530012B3C4B35D0F0
:101920000365FFF7DFFB50B12268606B136823F09B
:1019300001031360202384F83D30036D984794F829
:101940003D30226C5207DBB212D5282B10D1226811
:10195000536823F4E06353602E4BE362202200239C
:101960002363204684F83D2084F83E30FFF7D3FE01
:1019700010BD5968090504D4602A1CBF202284F8D0
:101980003D200022226384F83E20BBE7A06B036564
:10199000FFF7A8FB0028D2D023685A69520605D564
:1019A0001A69636A1A70636A013363622268A06B02
:1019B000136823F001031360202384F83D30BCE753
:1019C00094F83D10602915D1202184F83D1022643F
:1019D0005A69500605D51A69636A1A70636A013339
:1019E00063622268136823F0010313602046FFF747
:1019F00035FFA4E75A69510605D51A69636A1A705A
:101A0000636A013363622046FFF788FE97E700BFF1
:101A10005F1800080000FFFF036830B55A68C56A08
:101A200090F83E100446C9B290F83D0010298DB0E0
:101A3000C0B202D0402940F0B0829969586910F0D4
:101A4000010F07D1B5F52A0F02D0B5F12A4F52D1B7
:101A50000DB030BD95054ED5E26AB2F52A0F0CD116
:101A60000122E26294F83E20402A11D1226D52B93F
:101A7000626C02F0FE021A61EAE7E26AB2F12A4FF2
:101A8000F0D10822EDE7626C42F00102D2B2F2E737
:101A90002269B2F5804F1BD194F83D20212A626C57
:101AA00012D102F0FE021A61626B12B9A16B002919
:101AB000CED0D26B1AB9A26BD26B002AC8D05A68AA
:101AC00042F400625A60C3E742F00102D2B2EAE790
:101AD000226D32B9626CD21102F0060242F0F002BD
:101AE000C9E7226D012AB3D1626CD21102F006025D
:101AF00042F0F102BFE7050703D5950501D5626CF9
:101B0000E4E7850740F1DD80950540F1DA8094F83F
:101B10003E10E26A256B94F83D002228C9B240F0DD
:101B2000C880206D40B9402906D101905A690192C0
:101B30009B690193019B8BE7216D81B92069B0F509
:101B4000404F0CD102915A6902929A690292029A0C
:101B50001A6842F480721A60236D013328E0618DA7
:101B600089B251B903915A6903929A690392039A0F
:101B70001A6842F400721A6019E0618D89B2012975
:101B80004AD112F5803F1CD11A6822F480621A6093
:101B90005A6812F400620DD01A6822F480621A604A
:101BA000002204925A6904929B690493049B0023C7
:101BB00023654DE705925A6905929A690592059A3F
:101BC000D6E7082A1CD0202A1AD0122D0DD1012ABE
:101BD00016D11A6822F480621A60002206925A69AD
:101BE00006929B690693069BE1E7102AF1D8A0496B
:101BF00021FA02F2D007ECD51A6842F48062EBE7D2
:101C00001A6822F480621A60002207925A690792C9
:101C10009A690792079AABE7618D89B202292AD1A6
:101C2000102A03D89249D140C90720D4196821F459
:101C300080611960196841F40061196059680D05E7
:101C40000DD512F5803F06D0511E1F2907D8894AAD
:101C5000CA40D00703D55A6842F480525A60002225
:101C600008925A6908929B690893089B9FE7196834
:101C700041F48061E1E7196841F4806119605968B5
:101C800009050ED512F5803F07D0013A1F2A08D862
:101C9000784921FA02F2D20703D55A6842F48052F9
:101CA0005A60002209925A6909929B690993099B1B
:101CB0007DE700220A925A690A929B690A930A9B5D
:101CC000C6E611F0040F596800F0A8800D053FF535
:101CD000BFAEC0F38001000669D5550567D5002960
:101CE00068D194F83D20258D94F83E10E06AD2B278
:101CF000C9B2C5B9212A18D1082878D0202876D0B1
:101D000010F5803F73D05A6822F4E0625A601123C4
:101D10002363002384F83E30202384F83D3020469E
:101D2000FFF7F4FC94E6212A05D040297FF490AE19
:101D3000222A7FF48DAE628D92B21AB95A6822F4CB
:101D40008062BFE694F83E20402A26D1226D62B917
:101D5000E26C012AA26C04D1D2B21A61236D023363
:101D600026E7C2F307221A61F6E6226D012A02D1A4
:101D7000A26CD2B2F7E7226D022A7FF469AE94F822
:101D80003D20222A04D11A6842F480721A605FE66C
:101D900094F83D20212A7FF45BAE626A12F8011BA1
:101DA00019616262638D013B9BB2638550E6002935
:101DB0003FF44EAE90057FF54BAEE16A94F83D20BE
:101DC000212A7FF445AE628D92B2002AE5D108291E
:101DD0000DD020290BD011F5803F08D0596821F48F
:101DE000E06159601123236384F83E2094E75A6828
:101DF00022F4E0625A601A6842F400721A6000230A
:101E00002022236384F83D2094F83E2084F83E305D
:101E1000402A204684D1FFF77FFC19E609053FF5EB
:101E200017AE4506C0F380014DD550054BD50029AE
:101E30004CD194F83D20222A7FF40AAE628D92B2F2
:101E4000032A19D91A69636A1A70636A01336362D3
:101E5000638D013B9BB26385638D9BB2032B7FF443
:101E6000F7AD2268536823F480635360F0E500BF48
:101E70001400010081800080E06A02283FF4E8AD90
:101E8000012A3FF6E5AD1A6822F480621A605A68AA
:101E900022F4E0625A601A69636A1A70636A013355
:101EA0006362638D013B9BB26385202384F83D30E0
:101EB00094F83E3084F83E10402B68D121632046D0
:101EC000FFF72BFCC4E500293FF4C2AD92057FF576
:101ED000BFADE26A608D616A80B2042809D15A6898
:101EE00022F480625A601B690B70636A013363627B
:101EF00058E7608D80B203280CD15868042A20F47A
:101F000080605860EFD0022AEDD01A6822F4806217
:101F10001A60E8E7608D80B20228E4D1012A01D07E
:101F2000102A28D11A6822F480621A601B690B708B
:101F3000626A531C6362638D013B9BB263852368B5
:101F40001B695370636A226801336362638D013BCE
:101F50009BB26385536823F440735360202384F855
:101F60003D3094F83E30402B4FF0000384F83E3073
:101F70000DD12363A3E7042A01D0022A03D11A68F2
:101F800042F48062D1E71A6842F40072CDE712236E
:101F900023632046FFF7BBFB5AE5216C21B3596947
:101FA000002511F0020F29D012F4007F26D0226CF8
:101FB00002B19D6994F83D2002F02802282A16D12A
:101FC0005A6822F480625A606FEA95012B064FF03E
:101FD000000301F0010154BFA289228B84F83C3038
:101FE0002046FFF797FB33E59D695969D9E76FF004
:101FF00002025A61002384F83C3029E5CD0640F105
:10200000B180950540F1AE8094F83D505A6822F4B5
:10201000E0625A6000220B925A690B921A6842F0F1
:1020200001021A600B9A1A6822F480621A605A68D8
:102030001105EDB220D505F0F702222A4AD1A06B96
:102040000268526892B26285628D92B21AB1226CB5
:1020500042F0040222645A6822F400625A60FFF7D8
:1020600011F9012808D0A06B794B0365FFF73AF806
:1020700010B1A06B036D9847638D9BB213B32368B7
:102080005A69520709D51A69636A1A70636A01337B
:102090006362638D013B9BB2638523685A69500676
:1020A00009D51A69636A1A70636A01336362638DC2
:1020B000013B9BB26385638D9BB21BB1236C43F0E4
:1020C00004032364236C13B320460DB0BDE83040F5
:1020D000FFF700BC606B0268526892B26285628D45
:1020E00092B21AB1226C42F0040222645A6822F4BD
:1020F00000625A60FFF7C6F80128BDD0606B544BF0
:102100000365FEF7EFFF0028B6D0606BB2E72A2D1B
:1021100006D12363282384F83D302046FFF7F9FADF
:1021200094F83D30282B0CD14A4BE3622022002347
:102130002363204684F83D2084F83E30FFF7EBFA15
:1021400086E4236B222B02D0222D7FF481AC002366
:102150002022236384F83D2084F83E302046FFF798
:10216000D8FA75E400F0F7002128C1F3800535D1D5
:10217000090627D5510525D53DBB94F83D10628D44
:1021800092B2C9B2002A3FF463AC626A12F8015BF2
:102190001D616262628D013A92B26285628D92B275
:1021A000002A7FF455AC29297FF452AC5A6822F4F6
:1021B00080625A602823206384F83D302046FFF770
:1021C000A7FA45E4002D3FF443AC95057FF540ACFC
:1021D000628D92B2002A7FF4E0AD39E4480627D53B
:1021E000510525D53DBB94F83D20618D89B2D2B211
:1021F00000293FF42DAC1969636A1970636A0133D1
:102200006362638D013B9BB26385638D9BB2002B40
:102210007FF41EAC2A2A7FF41BAC2268536823F497
:102220008063536022232363282384F83D3095E79D
:10223000002D3FF40DAC92057FF50AAC628D92B291
:10224000002A3FF405AC1A69636A1A704DE600BFB4
:102250005F1800080000FFFFF8B503685F695E685B
:10226000C7F30025044635B1C6F300251DB16FF450
:1022700080725A610125B90506D5F20542BF6FF497
:10228000007245F002055A61780537D5F10535D55C
:1022900094F83EC0618D94F83D20206BBCF1200F76
:1022A00089B2D2B25AD1002958D102F0F7012129BE
:1022B00003D0282A52D1212850D194F83D20E16A38
:1022C0000829D2B201D020292AD1282A28D12C4A83
:1022D000E2625A6822F4E0625A606FF480625A61E6
:1022E0001A6822F480621A600023202223632046A9
:1022F00084F83D2084F83E30FFF70DFA3A053CD5CE
:10230000F3053AD523686FF4006245F008055A6179
:10231000236C1D4325642046BDE8F840FFF7DABA78
:10232000212A17D11649E1622263202284F83D2038
:10233000002284F83E205A6822F4E0625A606FF46A
:1023400080625A611A6822F480621A602046FFF7A0
:10235000DFF9D3E76FF480625A61CFE76FF48062F0
:102360005A6194F83E20102A04BF1A6842F40072A1
:1023700045F0040508BF1A60C0E7002DC8D1F8BDBC
:102380000000FFFF2DE9F341044618B9012002B017
:10239000BDE8F0810368DD0710D42368980758D49E
:1023A00023681A0700F19A8023685B0700F1B88060
:1023B000A269002A40F019810020E8E7A64B9A683C
:1023C00002F00C02042A07D09A6802F00C02082AD4
:1023D0000AD15B68590207D59F4B1B689A03DCD56D
:1023E0006368002BD9D1D1E763689B4DB3F5803F7B
:1023F00011D12B6843F480332B60FEF731FD964DED
:1024000006462B689B03C8D4FEF72AFD801B642870
:10241000F7D90320BBE7B3F5A02F04D12B6843F411
:1024200080232B60E5E72A6822F480322A602A683C
:1024300022F480222A60002BDFD1FEF711FD064630
:102440002B689F03A9D5FEF70BFD801B6428F7D9E5
:10245000DFE7814B9A6812F00C0F07D09A6802F000
:102460000C02082A11D15B685E020ED47A4B1A68FE
:10247000950702D5E268012A88D11A68216922F0FD
:10248000F80242EAC1021A608AE7E268734BB2B10D
:1024900001221A60FEF7E4FC6F4D06462B68980790
:1024A00007D52B68226923F0F80343EAC2032B60A7
:1024B00076E7FEF7D5FC801B0228EFD9A9E71A6062
:1024C000FEF7CEFC644D06462B6899077FF568AF92
:1024D000FEF7C6FC801B0228F6D99AE76269604BBA
:1024E0007AB101221A60FEF7BBFC5B4D06466B6FAA
:1024F0009F073FF559AFFEF7B3FC801B0228F6D9C2
:1025000087E71A60FEF7ACFC534D06466B6F9807E1
:102510007FF54AAFFEF7A4FC801B0228F6D978E7C6
:102520004D4B1A6C12F0805228D101921A6C42F075
:1025300080521A641B6C03F080530193019B0126A7
:10254000484D2B68D9051BD5A368434D012B27D1D6
:102550002B6F43F001032B67FEF782FC3E4D0746CD
:1025600041F288382B6F9B0739D5002E3FF420AFFE
:10257000394A136C23F08053136419E70026DFE710
:102580002B6843F480732B60FEF76AFC07462B68C8
:10259000DA05D9D4FEF764FCC01B0228F7D938E766
:1025A000052B04D12B6F43F004032B67D0E72A6F70
:1025B00022F001022A672A6F22F004022A67002B08
:1025C000CAD1FEF74DFC41F2883807462B6F9807B9
:1025D000CBD5FEF745FCC01B4045F7D919E7FEF700
:1025E0003FFCC01B4045BDD913E71B4DAB6803F052
:1025F0000C03082B3FF4CAAE1B4E0023022A3360A3
:1026000034D1FEF72DFC07462B6899011ED4D4E97E
:1026100007321343626A43EA8213E26A43EA0263BF
:10262000A26A0D4C5208013A43EA02436B6001234F
:102630003360FEF715FC054623689A013FF5BCAEF2
:10264000FEF70EFC401B0228F6D9E2E6FEF708FC76
:10265000C01B0228D8D9DCE60038024000004742FF
:10266000800E47420070004060004742FEF7F8FBD2
:1026700004462B689B017FF59FAEFEF7F1FB001B24
:102680000228F6D9C5E600BF134908B58B6803F0E8
:102690000C03042B03D0082B03D0104800E0104893
:1026A00008BD4A684B68496813F4800314BF0C489E
:1026B0000A48C1F3881118BF002302F03F02A1FBB2
:1026C0000001FEF703FA044B5B68C3F301430133D7
:1026D0005B00B0FBF3F0E3E7003802400024F400B5
:1026E00040787D012DE9F0410D46044610B90120E6
:1026F000BDE8F081434B1A6802F00F028A4227D3EB
:1027000021688F072CD4C8073FD43E4B1A6802F0CB
:102710000F02AA4264D8226851076AD4130707D56A
:10272000394A2169936823F4604343EAC103936003
:10273000FFF7AAFF344B354A9B68C3F30313D35CFE
:10274000D840334B18600F20FEF740FB0020CFE746
:10275000CAB21A701B6803F00F038B42C7D1CFE7D0
:10276000294B11F0040F1EBF9A6842F4E0529A60A0
:102770000E0742BF9A6842F460429A609A68A06865
:1027800022F0F00202439A60BDE762681E4B012A04
:102790001CD11B6813F4003FA9D01B4EB36823F073
:1027A00003031343B360FEF75BFB41F2883807462F
:1027B000B368626803F00C03B3EB820FA5D0FEF799
:1027C0004FFBC01B4045F3D9032091E7911E01291F
:1027D0001B6802D813F0007FDEE713F0020FDBE77F
:1027E000EAB21A701B6803F00F03AB427FF47FAFAD
:1027F00091E70549E0688B6823F4E05303438B605D
:102800008CE700BF003C024000380240FF0701088F
:1028100028000020044B054A9B68C3F38223D35C45
:10282000034A1068D8407047003802400F0801087A
:1028300028000020F8B504460E4615461F462168BC
:102840008A6836EA020301D000202DE06B1CF7D025
:10285000FEF706FBC01B8542F1D823685A6822F0B8
:10286000E0025A606268B2F5827F0AD1A268B2F5CE
:10287000004F02D0B2F5806F03D11A6822F04002F7
:102880001A60A26AB2F5005F07D11A6822F40052FA
:102890001A601A6842F400521A60012384F8513019
:1028A000002384F850300320F8BD38B51346426841
:1028B000B2F5827F04461FD18268B2F5004F02D084
:1028C000B2F5806F07D125682868B2F5806F20F0D7
:1028D0004000286007D00A4680212046FFF7AAFF63
:1028E00020B9002038BD0A460121F6E7636D43F0A8
:1028F000200363650320F5E70A460121EEE70000A7
:1029000073B51346124A134E15684268B5FBF6F6C6
:102910004FF47A757543B2F5827F044601950BD169
:102920000A468021FFF786FF78B1636D43F02003EC
:102930006365032002B070BD019B33B1019B013B75
:10294000019323689B681B06F6D40020F2E700BFC2
:102950002800002000366E0110B50446002836D04D
:102960000023836290F8513003F0FF021BB980F816
:10297000502003F0B1FD2168A269022384F8513090
:102980000B6823F040030B60D4E901300343E06897
:1029900003432069034360690343E0690343206AFA
:1029A0000343A06A034302F4007003430B60120C5C
:1029B000636A02F004021A434A60CB6923F400639D
:1029C000CB6100200123606584F8513010BD0120E7
:1029D000FCE72DE9F3411E4690F85030012B0446E8
:1029E0000D46904600F09B80012380F85030FEF7A2
:1029F00037FA074694F85100C0B2012840F08D80A4
:102A0000002D5DD0B8F1000F5AD0032384F8513067
:102A10000020A3686065A063A4F83680A087E087E3
:102A2000C4E9100020682563B3F5004F08BF0368B0
:102A3000A4F8348004BF43F4804303600368E26871
:102A40005B065EBF036843F040030360B2F5006FAE
:102A500063683ED113B1B8F1010F07D135F8023BDD
:102A6000C3602563E38E013B9BB2E386E38E9BB29A
:102A7000A3B93A4631462046FFF742FF002849D124
:102A8000A36833B901932368DA6801929B680193C4
:102A9000019B606D003018BF012011E0226893682F
:102AA000980705D5236B33F8021BD1602363D9E760
:102AB000FEF7D6F9C01BB042D8D3711CD6D0032084
:102AC000012384F85130002384F8503002B0BDE86F
:102AD000F08113B1B8F1010F08D12B780373236B88
:102AE00001332363E38E013B9BB2E386E38E9BB20B
:102AF000002BBED023689A68920703D5226B127808
:102B00001A73ECE7FEF7ACF9C01BB042EED3731CAE
:102B1000ECD0D4E720236365B2E70220D0E702209F
:102B2000D4E72DE9F7431E4690F850300A9F012B59
:102B300004460D46914600F0E280012380F85030B3
:102B4000FEF78EF994F851306168DBB2012B8046B4
:102B50000AD0B1F5827F40F0D080A068002840F014
:102B6000CC80042B40F0C980002D00F0C480B9F166
:102B7000000F00F0C080002E00F0BD8094F85130AE
:102B8000C4F83890042B1CBF052384F8513000236F
:102B90006365C4E910332368E687E6861A68A6876A
:102BA000500658BF1A68256358BF42F04002A686F7
:102BB00058BF1A60E268B2F5006F58D109B1012E12
:102BC00007D135F8022BDA60E38E2563013B9BB217
:102BD000E3860125E38E9BB2ABB9E38F9BB293B939
:102BE000424639462046FFF78BFE002840F08180A0
:102BF000A368002B32D123680190DA6801929B68A8
:102C00000193019B2AE02268936899070DD5E38E12
:102C10009BB253B14DB1236B33F8021BD1602363D8
:102C2000E38E013B9BB2E38600259368DB070CD55E
:102C3000E38F9BB24BB1A36BD26823F8022BA36343
:102C4000E38F013B9BB2E3870125FEF709F9A0EB77
:102C500008008742BED87E1CBCD00320012384F824
:102C60005130002384F8503003B0BDE8F08309B13F
:102C7000012E08D12A781A73236B01332363E38E64
:102C8000013B9BB2E3860125E38E9BB21BB9E38F28
:102C90009BB2002BA4D02268936898070ED5E38ED0
:102CA0009BB25BB155B1236B1B781373236B01335C
:102CB0002363E38E013B9BB2E38600252268936881
:102CC000D9070DD5E38F9BB253B1A36BD2681A70AD
:102CD000A36B0133A363E38F013B9BB2E387012521
:102CE000FEF7BEF8A0EB08008742CDD87B1CCBD006
:102CF000B3E7202363650120B0E70220AEE702209E
:102D0000B2E7000038B5044690F85000012870D0B2
:102D1000012084F8500094F85100C0B2012808D076
:102D20006568B5F5827F60D1A568002D5DD1042866
:102D30005BD100295BD0002A59D0002B57D094F8E2
:102D40005100A38604281CBF052084F851000020F0
:102D50006065E386E387A38794F851302163042BF1
:102D6000C4E91000E06C0CBF234B244BA2630BBFE3
:102D700003640364224B234BC3632168224BC36467
:102D8000002303650C31E38FFEF76EF9034650B163
:102D9000636D012043F01003636584F85100002344
:102DA00084F8503038BD2268A06C516841F00101B0
:102DB0005160C0E90F33C0E913330C32E38E216B4D
:102DC000FEF752F90028E3D123681A6852065EBF65
:102DD0001A6842F040021A605A6842F020025A60B3
:102DE0005A6842F002025A60D9E70220D7E7012070
:102DF000D5E70220D6E700BF132E00081F2E0008DB
:102E00004D2E00089F2E00082B2E0008704770479B
:102E1000704708B5806BFFF7FBFF08BD704708B52A
:102E2000806BFFF7FBFF08BD7047806B026808B539
:102E3000536823F003035360436D43F0100343656D
:102E4000012380F85130FFF7EFFF08BD38B5054684
:102E5000846BFEF705F82B681B68DB0502461AD465
:102E60002368596821F020015960596821F0030155
:102E7000596020466421FFF718FD08B120236365DF
:102E80000023E387012384F85130636D1BB1204692
:102E9000FFF7CAFF38BD2046FFF7B8FFFAE738B59D
:102EA0000546846BFDF7DCFF2B681B68DB050246DB
:102EB0001ED421684B6823F020034B602046642118
:102EC000FFF71EFD18B1636D43F0200363652268B0
:102ED000536823F0030353600023E386E387012351
:102EE00084F85130636D1BB12046FFF79DFF38BD5C
:102EF0002046FFF78CFFFAE7B5EEC00AF1EE10FAB4
:102F000010B5044605DB03F01DFC002084ED000A2B
:102F100010BD002303604FF0FF30F9E72DE9F047C3
:102F20004FEA920906460D4617460446CA468846A9
:102F30002034BAF1000F0DD105EB091007F003079B
:102F400006EB491600EB8707B84206F1080635D1B3
:102F5000BDE8F08714ED070A54ED087A20EE000A68
:102F60004046A7EEA70AFFF7C7FF14ED050A54ED88
:102F7000067A20EE000A08F10400A7EEA70AFFF780
:102F8000BBFF14ED030A54ED047A20EE000A08F1A9
:102F90000800A7EEA70AFFF7AFFF14ED010A54EDF2
:102FA000027A20EE000A08F10C00A7EEA70AFFF74C
:102FB000A3FF0AF1FF3A08F11008B9E716ED010A7C
:102FC00056ED027A20EE000A051DA7EEA70AFFF7CC
:102FD00093FF2846B8E7F0B54C1E06464FEA940C1E
:102FE0000025D0ED007A14364FEA8C0E2F46754539
:102FF0000BD100EB0C1004F0030404300C1BA142B5
:1030000034D1C2ED007A1F60F0BD56ED046A16EDB2
:10301000037AF4EEE67AF1EE10FA48BFF0EE667A43
:10302000F4EEC77A48BF6F1C56ED026AF1EE10FA53
:1030300048BFF0EE477AF4EEE67A48BFAF1C16EDD3
:10304000017AF1EE10FA48BFF0EE667AF4EEC77A34
:1030500048BFEF1CF1EE10FA05F1040554BFB0EEC5
:10306000677A2F461036F0EE477AC0E7B0EC017A67
:10307000F4EEC77AF1EE10FA54BFB0EE677A274645
:10308000F0EE477A0134BAE730B5DFED177A8D08F4
:1030900003462C46103384B900EB051001F00303FE
:1030A00000EB830398421AD107EE101AB8EE477A64
:1030B000C7EE876AC2ED006A30BD13ED047A77EE81
:1030C000877A13ED037A77EE877A13ED027A77EE3B
:1030D000877A13ED017A013C77EE877ADAE7B0EC74
:1030E000017A77EE877ADDE700000000F0B54C1E2C
:1030F00006464FEA940C0025D0ED007A14364FEACC
:103100008C0E2F4675450BD100EB0C1004F0030418
:1031100004300C1BA14234D1C2ED007A1F60F0BD17
:1031200056ED046A16ED037AF4EEE67AF1EE10FA43
:10313000C8BFF0EE667AF4EEC77AC8BF6F1C56EDD2
:10314000026AF1EE10FAC8BFF0EE477AF4EEE67AC2
:10315000C8BFAF1C16ED017AF1EE10FAC8BFF0EE51
:10316000667AF4EEC77AC8BFEF1CF1EE10FA05F1EB
:103170000405D4BFB0EE677A2F461036F0EE477ADA
:10318000C0E7B0EC017AF4EEC77AF1EE10FAD4BFE2
:10319000B0EE677A2746F0EE477A0134BAE70000CE
:1031A000DFED1E7A38B515468A0803461446F0EE60
:1031B000676A1033BCB900EB021001F0030300EBA7
:1031C0008303984221D107EE101AB8EE477A87EEB2
:1031D000870AB5EEC00AF1EE10FA1BDB03F0B2FA73
:1031E00085ED000A38BD13ED047AE7EE077A013C5D
:1031F00013ED037AE7EE077A13ED027AE7EE077A2A
:1032000013ED017AE7EE077AD3E7B0EC017AE7EE47
:10321000077AD6E7C5ED006AE4E700BF00000000CA
:10322000012938B59FED2A5A154602D185ED005A7D
:1032300038BD8A0803461446F0EE457AB0EE457A6A
:1032400010331CBB00EB021001F0030300EB8303FF
:10325000984235D106EE901AF8EE666AF7EE005AFB
:1032600076EEE55A87EE266A87EEA50AC6EEA57ABF
:1032700026EE466AA6EE270AB5EEC00AF1EE10FA6F
:10328000D4DB03F05FFA85ED000AD1E753ED046A61
:10329000E6EEA67A013C37EE267A53ED036AE6EEB7
:1032A000A67A37EE267A53ED026AE6EEA67A37EE74
:1032B000267A53ED016A37EE267AE6EEA67ABFE764
:1032C000F0EC016A37EE267AE6EEA67AC0E700BF98
:1032D00000000000012930B5DFED257A02D1C2EDF2
:1032E000007A30BD8D0803462C46B0EE677A103365
:1032F000E4B900EB051001F0030300EB83039842EF
:103300002ED106EE901AF8EE666AF7EE005A76EEC7
:10331000E55A87EE266A87EEA57AC6EEA57A26EEEE
:10332000466AA6EE277AF0EE477AD8E753ED046AAC
:10333000E6EEA67A013C37EE267A53ED036AE6EE16
:10334000A67A37EE267A53ED026AE6EEA67A37EED3
:10335000267A53ED016A37EE267AE6EEA67AC6E7BC
:10336000F0EC016A37EE267AE6EEA67AC7E700BFF0
:10337000000000002DE9F04781462DED028BB9F8E1
:103380000070D9F8042001EB8708084679088B0003
:10339000FF08C51806464344444602EB0717944607
:1033A000BC4506F1100605F1100503F1100304F108
:1033B00010040FD18CB22146022300F0FBFABDECC1
:1033C000028BD9F80420214640460223BDE8F0478D
:1033D00000F0F0BA14ED040A16ED046A54ED030A85
:1033E00016ED034A53ED046A53ED034A14ED027AD5
:1033F00014ED015A55ED032A15ED023A55ED013A47
:1034000053ED027A53ED015A16ED021A15ED042A16
:1034100056ED011A36EE008A36EE406A06ED048A51
:1034200034EE208A34EE604A06ED038A31EE078AD4
:103430000CF1100C06ED028A31EE858A31EEC55A88
:1034400072EE261A06ED018A45ED041A72EEA41AF0
:1034500074EEE24A45ED031A73EE271A77EEC37A4B
:1034600045ED021A73EEA51A75EEE35A45ED011A01
:103470005CED033A1CED043A64EE232A76EEC26A50
:10348000E6EE032A23EEC66A44ED042AA4EE036A9C
:1034900031EE477A04ED036A23EE646AA6EEA36A6E
:1034A00066EE836A03ED046AE4EEA36A43ED036A01
:1034B0001CED026A5CED016A65EE264AE7EE064AFB
:1034C00026EEC77A44ED024AA5EE067A04ED017AAB
:1034D00026EE657AA7EEA67A67EE867A03ED027A83
:1034E000E5EEA67A43ED017A5AE72DE9F04F2DED8E
:1034F000048B8FB00390039B039A08461988D0ED84
:10350000007A5268029249088B00C418E61896EDBA
:10351000007AD6ED015AD4ED013A37EE876A77EE9C
:10352000C77A90ED017A77EE256A77EE655A94EDC9
:10353000007AF518D5ED004A95ED014A37EE065AA6
:103540004A0835EE245A089215EE101A024636EE55
:10355000476A42F8081B94ED015A95ED013A0A9228
:1035600036EE855A224635EE035A36EE646A80ED11
:10357000015A33EEA75A77EEE37A35EE445A76EEE7
:10358000E36A15EE101A35EEC75A42F8081B35EEFD
:10359000245A0B9216EE101A324684ED015A77EE39
:1035A000847A42F8081B76EEC46A0C9217EE901AE1
:1035B0002A46C6ED016A42F8081B37EE257A0D92BD
:1035C000029A37EE647A083285ED017A0992089AF8
:1035D000911E4A080492099A0592A5F1040C049AD6
:1035E000079263440022A4F1040AA6F1040E019399
:1035F00000F1100904F1100706F1100805F110019F
:103600000692069A18ED027A58ED012A19ED025A2F
:1036100019ED016A57ED025A57ED017A019B11ED40
:10362000024A11ED013A083A0692059A75EE473AB8
:1036300076EE624A35EE075A36EE226A083234EEEA
:10364000E52A77EEA36A35EE657A76EE672A75EE9F
:10365000A44A73EEE77A75EE855A0592079A083BFD
:1036600076EEC36A32EE042A37EE447A72EEC32A4B
:1036700077EE837A74EEC44A75EE845AAAF1080A8A
:10368000AEF1080EACF1080C019309F108090837F6
:1036900008F108080831002A74D1049B099ADF0058
:1036A0000A9B3A443B449A461146029B049ACAED4F
:1036B000005A4FF0180E03EB021C0EFB023E0B9A51
:1036C0003A4490460C9AD8ED015A3A4491460D9AE4
:1036D0003A4436EE256AD2ED015ABDF8207036EE36
:1036E000256A04238AED016A91ED015AD1ED005A51
:1036F00025EE026A3946A5EEA66A66EEC56A88ED31
:10370000006AE5EE826AC8ED016ADCED055A9CEDBF
:10371000046A65EEA26AE6EE076A27EE657AC9EDED
:10372000006AA6EE227A89ED017A9EED076ADEED47
:10373000066A26EE247AA6EEA77A67EEC67A82EDAE
:10374000007AE6EEA47AC2ED017A029A00F032F92C
:10375000039A394620460423526800F02BF9039A55
:10376000394630460423526800F024F9039A52681F
:103770000423394628460FB0BDEC048BBDE8F04F5A
:1037800000F018B949ED045A57ED035A019B059A08
:1037900036EE256A51ED035A36EE256A6FF0010BBD
:1037A00009ED036A9CED016ADAED011ADAED023ADD
:1037B000D3ED020A9EED025A93ED013A9EED018A85
:1037C00031EE864A71EEC61A9CED026A73EE868A65
:1037D00035EE609A73EEC63A38EEC56A35EE285A71
:1037E00034EE481A35EE205A73EEC85A8AED025A62
:1037F0009EED015A34EE054A93ED015A029B34EED8
:10380000054A75EE835A8AED014A12ED015A12ED0E
:10381000024A069A31EE431A33EE483A39EE210A4B
:1038200073EE633A25EE023A0BFB023BA4EE263A16
:1038300066EEC56A07ED043AE4EE026A36EE606AA7
:1038400047ED036A64EE406A79EE611AE5EE856A37
:1038500065EE845ACEED026AE0EE055ACEED015ACD
:10386000DBED015ADBED006A25EEA25AA2EB820BDA
:10387000A6EE875A9B4427EE657A08ED045AA6EE19
:10388000A27A08ED037A25EEC17AA6EE667A26EED4
:10389000256A8CED027AA1EE666A8CED016ADBED99
:1038A000006A9BED017A019B079A27EE246A013A90
:1038B000A6EEA76A079267EEC77A01ED046AE6EE04
:1038C000A47A41ED037A66EEE17AE3EE877AC3EDFE
:1038D000027A63EEA67AE1EE877AC3ED017A90E68A
:1038E000012A2DE9F04106460D4617469846048800
:1038F00039D0B4F5807F49D021D8202C46D01AD8B1
:10390000102C3ED0B8F1000F04D0B268B18928461F
:10391000FCF75EFC012F0CD107EE904AF8EE677AB7
:10392000F7EE006A86EEA77A0023A34205F10805A8
:1039300031D3BDE8F081402C08D0802CE1E7B4F50C
:10394000806F1ED009D8B4F5007FDBD101237268E7
:103950002146284600F02EF8D4E7B4F5006F15D0C4
:10396000B4F5805FF1E70B1D0022A24203F10803CA
:10397000BFD253ED027AF1EE677A43ED027A01325B
:10398000F3E729463046FFF7F5FCBBE7294630460A
:10399000FFF7ABFDB6E755ED027A67EE877A0133A4
:1039A00045ED027A55ED017A67EEC77A45ED017A69
:1039B000BBE700002DE9F04F2DED108BDFEDCE5A67
:1039C0009DB09B4601900D9102920391B0EE655A15
:1039D000039B0199DA08540101EB040E1820D10071
:1039E00000FB02F5179128206FF01701514318953D
:1039F00000FB02F50EEB010C3020169515010CEBC7
:103A00000407159500FB02F538207E1850430C95ED
:103A10000490351901982944DB0001EB040900F1F9
:103A200004084FF0000ADEED007A18ED017ADCEDB3
:103A3000003AD6ED004A99ED003AD1ED002A77EE32
:103A4000276A37EE677AD7ED007A33EEA76A73EE0E
:103A5000E73AD5ED007A34EEA74A74EEE77A72EED3
:103A6000834A36EEC48A36EE640A76EE846A36EE0F
:103A7000246A72EEC32A76EE864A76EEC66A48ED6E
:103A8000014ACEED006AD8ED004A9EED016A9CED38
:103A9000014A96ED013AD9ED011A74EE866A34EEC8
:103AA000C66AD7ED014A34EE242A34EE644AD5EDD5
:103AB000014A33EE241A73EE644A91ED013A73EE33
:103AC000210A33EE613A76EEC11A76EE816A32EE61
:103AD000601A32EE202A76EE820A76EEC26AC8EDCD
:103AE000000ACEED016A78EE016A38EE412AC6ED91
:103AF000006A71EEC06A85ED002AC6ED016A70EEBB
:103B0000216A34EE432AC5ED016A73EEA26A73EEB0
:103B1000E21A34EE034AF0EE673AE6EEE53A9E44E6
:103B20001E44E6EEA57A1D449844F0EE462AF0EED7
:103B3000466AB0EE646AB0EE473AA4EE256AA1EE9A
:103B4000A57AE2EE652AE2EE256AB0EE642AA1EEDD
:103B5000E53AA4EE652A77EE064A37EE467ACCEDD2
:103B6000004A89ED007A33EE027A33EE423A87ED6D
:103B7000007A36EEE77A77EEA67A81ED003A8CEDA0
:103B8000017AC9ED017A72EEE37A73EEA23AC7EDDB
:103B9000017AC1ED013A039882440D9850459C4446
:103BA0001F44194499443FF63EAF072A40F2CF81A3
:103BB0004FEACB0114911498029901440B914FEAFA
:103BC0000B1113911398029901440A91182101FBDA
:103BD0000BF1129112980299014409914FEA4B118D
:103BE00011911198029901440891282101FB0BF1D0
:103BF00010911098029901440791302101FB0BF1BB
:103C00000F910F98029901440691382101FB0BF1A5
:103C10000E910E98029901440591019901980C4466
:103C2000179901448E46169901448C461599014412
:103C30000F460C9901440E46189901440D4604990B
:103C400001440120049004F10C0015900EF10C00C9
:103C500016900CF10C00179007F10C00189006F16B
:103C60000C008846199005F10C001A9008F10C0020
:103C700000211B900B98049CD0ED001A0A9890ED3F
:103C8000008A0998D0ED004A089890ED009A0798AC
:103C9000D0ED003A0698D0ED000A0598D0ED002A44
:103CA0000B9890ED011A0A98D0ED018A099890EDD1
:103CB000014A0898D0ED019A079890ED013A0698CC
:103CC00090ED010A059890ED012A019800EBC409D6
:103CD000159800EB0108169800EB010E179800EB01
:103CE000010C18984718199846181A9845181B98E7
:103CF000441804980C9001E0F304353F58ED017A24
:103D00005EED016A1CED017A99ED00AA17ED01BA8A
:103D100015ED01EA3AEE276A36EEC7DA3AEE67AAFF
:103D200076EE877A56ED016A3BEE267A3BEE66BA6E
:103D300054ED016A7EEE26AA36EE47FA77EEEAEAFD
:103D400036EE076A77EEAA7A3EEE66EA36EE277A14
:103D500076EE67AA89ED007A99ED016AD8ED007ACE
:103D6000DEED00CAD7ED006AD5ED00FAD4ED00DA39
:103D700036EE277A76EE67BADCED007A3CEEA76A7B
:103D80007CEEE7CAD6ED007A36EEA7CA76EEE77A81
:103D90007FEEAD6A7FEEEDDA77EE4CFA37EE0CCAC5
:103DA00036EE667A36EE266A7FEE076A3FEE477A8F
:103DB0003CEE06FA3CEE46CA89ED01FA29EE8C6A21
:103DC0003FEEEEFAA9EE2A6A99447EEEAFEA08EDDC
:103DD000016A2AEEE96A7DEE4EAAA9EE0C6AB0EEFF
:103DE0004ACA88ED006A28EE8F6AAAEEC5CA9844CE
:103DF000A8EE266A66EEE86A07ED016AE8EE0F6A49
:103E00003CEEED6AC7ED006A60EE2E6AAAEE85AA66
:103E10001F44E0EE876A27EE407A46ED016AA0EE85
:103E2000AE7A7DEE0E6A86ED007A3CEEAD7AF0EE6B
:103E30006BCAE6EE05BA1E44E6EE45CAB0EE6B6A02
:103E4000F0EE67BAE7EE45BAE7EE057AF0EE4BAA78
:103E5000A6EE85BA3CEE2B7AE6EEC5AA7AEE276A84
:103E60007AEE677A3CEE6BAA36EE4BCA3BEE066AF8
:103E700061EE0CBA3CEEEABAE1EEA6BA66EEC16AB1
:103E80004EED01BAE1EE8C6A7AEEACAACEED006A94
:103E900062EE066A9E44E2EEA76A44ED016A67EEAE
:103EA000C26A63EE0B7AE2EE866AE3EE877AC4EDCD
:103EB000006A27EE437A4CED017A64EE2A7AA3EE8B
:103EC0008B7A1C44E4EE8A7A8CED007A45ED017A17
:103ED0006AEE447A9C44E4EEAA7AC5ED007A0C9826
:103EE0008246039882440D98CDF830A082460C9803
:103EF00082451D443FF602AF0498149C01300490A3
:103F00000B9820440B90139C0A9820440A90129C12
:103F1000099820440990119C089820440890109C0E
:103F20000798204407900F9C0698204406900E9C0A
:103F30000598204405900498824201F108017FF41D
:103F400099AE4FEACB031FFA83FB039240E51DB005
:103F5000BDEC108BBDE8F08F08B500F089FE0020A5
:103F600008BD70B5054646692A69B5F908400B4693
:103F700086B0D0E9001076B1AD6965B1842C14BF6C
:103F800003340024CDE90165009400F0CBFD0590D9
:103F9000059806B070BD842C14BF0334002405AD11
:103FA00092B2CDE9004500F0F4FD0128F0D00020E8
:103FB000EFE737B544680D466CB101291BD10323E7
:103FC0000022009328462346114600F041F9054699
:103FD000284603B030BD01290FD1284603222146CF
:103FE00000F07FF905460028F2D0234622462146FC
:103FF00000F09CF9ECE70025EAE72546E8E713B571
:10400000034607C83AB1DB682BB10024009400F0E6
:104010001FF902B010BD002202B0BDE8104000F050
:1040200060B908B501F0BAF8012803D0BDE808402E
:1040300001F0A0BA08BD00F108034FF0FF32436061
:10404000C0E902230361002303607047002303617A
:10405000704743684B609A688A609A6851609960BB
:10406000036808610133036070470A68531C30B568
:104070000AD103695A684A6091608B60596003688D
:1040800008610133036030BD00F108035C682568F6
:104090009542EFD82346F9E7D0E9011203698A6017
:1040A000826851605968814208BF5A6000220261EB
:1040B0001A68013A1A601868704710B5044601F092
:1040C000F1F9A46B01F010FAB4FA84F0400910BDC4
:1040D00070B51546026C866B044642B905689DB9F9
:1040E000406801F0BDF865600136A66370BD6DB92A
:1040F000806802F013FBA368226C13446268A3601B
:10410000934201D32368A3600020EDE7C06802F06A
:1041100005FB236CE26821685B421A448A42E26034
:104120003EBF62689B18E360022DEDD10EB1013EE7
:10413000EAE73046D8E7034610B41A6C084662B185
:10414000D9685C681144A142D96024BF1968D9605C
:10415000D9685DF8044B02F0E1BA5DF8044B704792
:1041600070B5044601F09EF994F8455004F1240618
:104170006DB2002D14DCFF2384F8453001F0B4F952
:1041800001F090F994F8445004F110066DB2002D3E
:1041900012DCFF2384F84430BDE8704001F0A4B97C
:1041A000636A002BE7D0304600F068FF08B100F0EA
:1041B000EFFF013D6DB2DCE72369002BE9D030460B
:1041C00000F05CFF08B100F0E3FF013D6DB2DEE7F7
:1041D00038B50D46044640B94FF0500383F31188BB
:1041E000BFF36F8FBFF34F8FFEE701F05BF9D4E9A8
:1041F0000F302268A2604343D1181B1A1344616038
:10420000E3600021FF23A16384F8443084F8453043
:1042100095B9236963B104F1100000F02FFF38B1A4
:104220000A4B4FF080521A60BFF34F8FBFF36F8F6E
:1042300001F05AF9012038BD04F11000FFF7FBFE30
:1042400004F12400FFF7F7FEF2E700BF04ED00E001
:1042500013B51C4640B94FF0500383F31188BFF3E8
:104260006F8FBFF34F8FFEE743B94FF0500383F3D7
:104270001188BFF36F8FBFF34F8FFEE74AB191B93B
:104280004FF0500383F31188BFF36F8FBFF34F8F4D
:10429000FEE741B14FF0500383F31188BFF36F8FF6
:1042A000BFF34F8FFEE748230193019B482B08D0B3
:1042B0004FF0500383F31188BFF36F8FBFF34F8F1D
:1042C000FEE70123002908BF2246C4E90F0184F854
:1042D0004630226019462046FFF77AFF204602B09A
:1042E00010BD70B50D46064640B94FF0500383F33C
:1042F0001188BFF36F8FBFF34F8FFEE748434830FD
:1043000001F040FA044650B1002380F8463045B928
:104310002060C4E90F6501212046FFF759FF2046C0
:1043200070BD00F148030360F3E700002DE9FF478B
:10433000884601921F46044640B94FF0500383F36C
:104340001188BFF36F8FBFF34F8FFEE751B9036C36
:1043500043B14FF0500383F31188BFF36F8FBFF366
:104360004F8FFEE7022F0BD1E36B012B08D04FF0EC
:10437000500383F31188BFF36F8FBFF34F8FFEE7B6
:1043800000F00CFF50B9019E4EB14FF0500383F383
:104390001188BFF36F8FBFF34F8FFEE700264FF0FA
:1043A0000009DFF8E8A037E0019D1DB901F09CF895
:1043B000002050E016B902A800F0A2FE01F094F827
:1043C00000F08CFC01F06EF894F84430FF2B08BF2D
:1043D00084F8449094F84530FF2B08BF84F845904A
:1043E00001F082F801A902A800F096FE002846D14B
:1043F00001F058F8A26BE36B9A422FD101F074F8E8
:10440000019904F1100000F01FFE2046FFF7A8FEFE
:1044100000F0FEFC50B3012601F044F8A26BE36B00
:104420009A4201D3022FBFD13A4641462046FFF7B8
:104430004FFE636A1BB104F1240000F01FFE38B187
:10444000124B4FF080521A60BFF34F8FBFF36F8F44
:1044500001F04AF8012004B0BDE8F08701F044F80B
:104460002046FFF77DFE00F0D3FCD4E74FF08053E9
:10447000CAF80030BFF34F8FBFF36F8FCBE72046F2
:10448000FFF76EFE00F0C4FC92E700BF04ED00E011
:1044900070B50D46044640B94FF0500383F31188C0
:1044A000BFF36F8FBFF34F8FFEE7036C43B14FF045
:1044B000500383F31188BFF36F8FBFF34F8FFEE775
:1044C000036853B9436843B14FF0500383F3118835
:1044D000BFF36F8FBFF34F8FFEE701F001F9EFF3EA
:1044E00011864FF0500383F31188BFF36F8FBFF332
:1044F0004F8FA26BE36B93421CD994F84530013285
:104500005BB2A2635A1C10D1636A0BB9012009E0A7
:1045100004F1240000F0B2FD0028F7D0002DF5D002
:104520000120286086F3118870BD01335BB284F8E6
:104530004530EBE70020F5E72DE9F04385B00F4665
:104540000192044640B94FF0500383F31188BFF342
:104550006F8FBFF34F8FFEE751B9036C43B14FF03C
:10456000500383F31188BFF36F8FBFF34F8FFEE7C4
:1045700000F014FE50B9019E4EB14FF0500383F38A
:104580001188BFF36F8FBFF34F8FFEE700264FF008
:104590000008DFF8E0903BE0019D1DB900F0A4FFAA
:1045A000002052E016B902A800F0AAFD00F09CFF1E
:1045B00000F094FB00F076FF94F84430FF2B08BF26
:1045C00084F8448094F84530FF2B08BF84F8458078
:1045D00000F08AFF01A902A800F09EFD00283DD14D
:1045E0002046FFF76AFD98B3019904F1240000F01A
:1045F0002BFD2046FFF7B4FD00F00AFC38B94FF060
:104600008053C9F80030BFF34F8FBFF36F8F01267F
:1046100000F048FFA56B002DBED039462046013D75
:10462000FFF789FDA563236963B104F1100000F071
:1046300025FD38B10F4B4FF080521A60BFF34F8FFA
:10464000BFF36F8F00F050FF012005B0BDE8F0838D
:104650002046FFF785FD00F0DBFBD8E72046FFF79B
:104660007FFD00F0D5FB2046FFF727FD0028CED0C8
:1046700096E700BF04ED00E02DE9FF4104460191FB
:1046800040B94FF0500383F31188BFF36F8FBFF32E
:104690004F8FFEE7056C45B14FF0500383F311884F
:1046A000BFF36F8FBFF34F8FFEE700F077FD50B978
:1046B000019D45B14FF0500383F31188BFF36F8F15
:1046C000BFF34F8FFEE72E460027DFF82C814FE027
:1046D000019B63B945B14FF0500383F31188BFF3D9
:1046E0006F8FBFF34F8FFEE700F0FEFE5EE016B95E
:1046F00002A800F005FD00F0F7FE00F0EFFA00F070
:10470000D1FE94F84430FF2B08BF84F8447094F82D
:104710004530FF2B08BF84F8457000F0E5FE01A985
:1047200002A800F0F9FC00284AD12046FFF7C5FC9A
:1047300000283FD023683BB900F0B4FE606800F069
:104740003DFD054600F0D0FE019904F1240000F083
:104750007BFC2046FFF704FD00F05AFB38B94FF010
:104760008053C8F80030BFF34F8FBFF36F8F01261F
:1047700000F098FEA36B002BAAD0013BA363236833
:1047800013B900F017FE6060236963B104F11000F3
:1047900000F074FC38B1184B4FF080521A60BFF330
:1047A0004F8FBFF36F8F00F09FFE0125284604B0A6
:1047B000BDE8F0812046FFF7D3FC00F029FBD6E7E7
:1047C0002046FFF7CDFC00F023FB2046FFF775FCE9
:1047D0000028CCD0002DE9D000F064FE616A19B148
:1047E000236B1968C1F10701606800F089FD00259D
:1047F00000F07AFEDAE700BF04ED00E010B50446F1
:1048000040B94FF0500383F31188BFF36F8FBFF3AC
:104810004F8FFEE700F046FEA46B00F065FE2046D9
:1048200010BD00002DE9F041064600F03BFE2E4B86
:104830002E4C1A682E4F01321A602568002D48D17F
:1048400026601B68012B1FD14FF0140808FB057070
:104850000135FFF7F0FB072DF8D1DFF8C080254DBB
:104860004046FFF7E8FB2846FFF7E5FB2248FFF745
:10487000E2FB2248FFF7DFFB2148FFF7DCFB214B7F
:10488000C3F80080204B1D60204A21491368086846
:1048900001331360F26A01239340034314200B6039
:1048A00000FB0270311DFFF7D4FB00F01DFE194B19
:1048B0001B6863B12368DA6AF36A9A4207D2164B1F
:1048C0004FF080521A60BFF34F8FBFF36F8FBDE878
:1048D000F081104B1B68002BD6D12368DA6AF36A8B
:1048E0009A4298BF2660CFE748010020B000002020
:1048F000BC0000207401002090010020BC010020B9
:10490000A8010020B4000020B800002058010020B9
:104910005C010020A401002004ED00E06001002003
:1049200010B590F8513004463BB9006B00F0B6FF6B
:104930002046BDE8104000F0B1BF012BF9D0022B9A
:1049400008D04FF0500383F31188BFF36F8FBFF38C
:104950004F8FFEE710BD000080B5DFF85C80124F7E
:10496000124C134D236863B9124B1B68012BF8D905
:104970004FF08053C8F80030BFF34F8FBFF36F8FF5
:10498000EEE700F08FFDFB68DE68301DFFF784FB6B
:104990002B68013B2B602368013B236000F0A4FDE2
:1049A0003046FFF7BDFFDDE7BC0100204C010020D1
:1049B00048010020BC00002004ED00E040B94FF0A9
:1049C000500383F31188BFF36F8FBFF34F8FFEE760
:1049D0004269064B9A4207D1806A054B984203D040
:1049E000B0FA80F04009704700207047A80100200D
:1049F00090010020064A13681968064B19B94FF058
:104A0000FF321A6070471268D268D2685268F8E7BD
:104A1000B4000020880100202DE9F047DDE9098479
:104A200002F18042266B013A06EB82069A468146E5
:104A30004B1E26F0070604F134020F3113F8010F64
:104A400002F8010B187808B18B42F7D1089D062DAA
:104A500028BF06250027E562C4E91157201D84F808
:104A60004370FFF7F3FAC5F1070504F11800FFF7EB
:104A7000EDFAE7642461A561646284F850705246DF
:104A80004946304600F0E0FC2060B8F1000F01D04C
:104A9000C8F80040BDE8F087F8B51B4B1B4E1C68FA
:104AA0000546306804300F46FFF7F6FA334640B942
:104AB0003168174EC96A32680120884022EA000234
:104AC00032606A1C07D137B1196812480431BDE859
:104AD000F840FFF7BEBA1A686419546007D30E4A4B
:104AE00010681968BDE8F8400431FFF7BEBA0B4AF8
:104AF000106819680431FFF7B8FA094B1A68A24226
:104B000088BF1C60F8BD00BFD0010020B0000020AD
:104B10005C010020A8010020B8000020B4000020A3
:104B20008801002070B586B0DDE90B5445B94FF01F
:104B3000500383F31188BFF36F8FBFF34F8FFEE7EE
:104B400044B94FF0500383F31188BFF36F8FBFF365
:104B50004F8FFEE754260496049E542E08D04FF043
:104B6000500383F31188BFF36F8FBFF34F8FFEE7BE
:104B70002563022584F8515005AD01950A9D0294E4
:104B80000095FFF749FF2046FFF74CFE059806B059
:104B900070BD2DE9F043074685B090008846164663
:104BA000994600F0EFFD0546E8B1542000F0EAFD1B
:104BB0000446A8B1002380F851300D9B0563019392
:104BC0000C9B0290009332464B4641463846FFF715
:104BD00023FF2046FFF726FE012005B0BDE8F08345
:104BE000284600F05BFE4FF0FF30F6E770B5044654
:104BF00040B94FF0500383F31188BFF36F8FBFF3B9
:104C00004F8FFEE7164D2B68834228D000F04AFCF8
:104C10002046FFF7D3FEF0B1261D3046FFF73CFAE1
:104C20001049E26A08680123934003430B600E4B6E
:104C3000142000FB02303146FFF70BFA2B68E26AC2
:104C4000DB6A9A4207D3094B4FF080521A60BFF3D8
:104C50004F8FBFF36F8FBDE8704000F045BC70BD53
:104C6000B00000205C010020BC00002004ED00E04A
:104C700010B588B0002407AA06A905A8CDE9054407
:104C800000F0C4FE059B0293069B079A0E490F484D
:104C9000CDE900432346FFF745FF90B14FF05003A5
:104CA00083F31188BFF36F8FBFF34F8F084B4FF023
:104CB000FF321A60074B01221A60074B1C6000F09C
:104CC00089FC08B010BD00BFE80701085949000879
:104CD00088010020A4010020D0010020024A1368AE
:104CE00001331360704700BF540100202DE9F84FD5
:104CF0003C4B1B68002B6ED13B4B1C6801341C6085
:104D0000BCB93A4B1A68126842B14FF0500383F3B2
:104D10001188BFF36F8FBFF34F8FFEE7344A1968D6
:104D2000106818601160334A136801331360FFF78D
:104D300061FE314D314F2B68A3424FF0000B11D96A
:104D40003A682F4BD16A14224A439A58022A28BF44
:104D50004FF0010B2B4A1268002A0CBF5846012065
:104D6000BDE8F88FDFF884A0DFF8A090DAF8002023
:104D700012681AB94FF0FF322A60E1E7DAF8002032
:104D8000D268D66871688C4201D22960D8E706F1F2
:104D900004084046FFF780F9B16A19B106F118001E
:104DA000FFF77AF9F06AD9F80030012202FA00F12F
:104DB0001943134BC9F800104FF0140C41460CFB7B
:104DC0000030FFF746F93868F16AC26A914228BF9D
:104DD0004FF0010BCAE70C4A1368013313604FF020
:104DE000000BB7E754010020D0010020B4000020E0
:104DF000B80000208C01002088010020B0000020B5
:104E0000BC000020D4010020500100205C010020E3
:104E10002DE9F843304C236843B94FF0500383F336
:104E20001188BFF36F8FBFF34F8FFEE700F03AFB9F
:104E30002368013B236024682CB1002400F054FB5C
:104E40002046BDE8F883254B1B68002BF5D0244D88
:104E5000244EDFF8A4801FE0EB68DC6804F104094D
:104E600004F11800FFF718F94846FFF715F9E26A50
:104E70003168012707FA02F314200B4300FB02807C
:104E800049463360FFF7E5F8174BE26A1B68DB6AB7
:104E90009A4201D3154B1F602B68002BDCD10CB15B
:104EA000FFF7A8FD124D2C6844B1104E0127FFF703
:104EB0001DFF00B13760013CF9D12C600B4B1B6822
:104EC000002BBAD00B4B4FF080521A60BFF34F8FBC
:104ED000BFF36F8F0124B1E7540100204801002087
:104EE000900100205C010020B0000020D4010020CF
:104EF0005001002004ED00E0BC000020174B1A68B0
:104F0000174B10B512B101221A6010BD1A60154B73
:104F10001B68B3FA83F3DBB2C3F11F0314221249F7
:104F20005A4388188C5844B94FF0500383F31188C2
:104F3000BFF36F8FBFF34F8FFEE74468083264689A
:104F400044600A44944204BF62684260142202FB37
:104F500003135B68DA68054BD6E700BF54010020F5
:104F6000D40100205C010020BC000020B000002023
:104F700070B504462C4E00F095FA04B93468251D2E
:104F80002846FFF789F860B9E06A284B14214143AD
:104F90005B5833B9264901220B68824023EA020399
:104FA0000B60A36A1BB104F11800FFF775F82946DE
:104FB0002048214DFFF74DF894F85030012B04BFE5
:104FC000002384F8503000F08FFA2A682AB100F0EC
:104FD00069FAFFF70FFD00F087FA3368A34215D195
:104FE0002B68A3B1154B1B6843B14FF0500383F3FB
:104FF0001188BFF36F8FBFF34F8FFEE7104B4FF059
:1050000080521A60BFF34F8FBFF36F8F70BD094A94
:1050100011680C4A1268914201D13360F6E7BDE88D
:105020007040FFF76BBF00BFB0000020BC00002045
:105030005C010020A8010020A401002054010020F0
:1050400004ED00E04801002010B50C4640B94FF0D7
:10505000500383F31188BFF36F8FBFF34F8FFEE7C9
:10506000054B19681831FFF700F820460121BDE80B
:105070001040FFF711BD00BFB000002038B5C36875
:10508000DC6844B94FF0500383F31188BFF36F8F8E
:10509000BFF34F8FFEE704F118052846FEF7FCFF2B
:1050A000114B1B68E3B9251D2846FEF7F5FF0F4994
:1050B000E26A08680123934003430B600C4B142001
:1050C000294600FB0230FEF7C4FF0A4BE26A1B6868
:1050D000DB6A9A4283BF084B01201860002038BD6C
:1050E00029460648EFE700BF540100205C0100207C
:1050F000BC000020B0000020D4010020900100205E
:10510000034B1B680360034B1B684360704700BF81
:105110008C010020D0010020F8B50C46054640B9AE
:105120004FF0500383F31188BFF36F8FBFF34F8F9E
:10513000FEE741B94FF0500383F31188BFF36F8F3F
:10514000BFF34F8FFEE700F0ADF90F4B68681968A9
:1051500023685E1CA1EB00020DD00C4E2F68366850
:10516000B74201D088420DD9934209D99B1A2360D6
:105170002846FFF7C5FF002400F0B6F92046F8BD29
:10518000002323600124F7E7D00100208C010020D8
:10519000014B01221A607047D4010020054B1B68A7
:1051A00033B1054B1B68002B0CBF02200020704759
:1051B00001207047A4010020540100202DE9F04196
:1051C000044658B3234AC36A1168C96A8B4217461A
:1051D00038D28269204D002AA1BF3A68D26AC2F152
:1051E000070282611426426906FB03539A4217D1D3
:1051F00000F104084046FEF74FFF184BB0B13A6883
:105200001968D26AE262012404FA02F008431860C5
:105210001420414600FB0250FEF71BFF204603E02E
:105220003B68DB6AC3620120BDE8F081E06A464367
:10523000AA59002AE3D11A680121814022EA010219
:105240001A60DCE71368406CDC6AA0422CBF0020C7
:105250000120E9E7B0000020BC0000205C01002034
:10526000F8B5044608B90020F8BD224B1B688342FC
:1052700008D04FF0500383F31188BFF36F8FBFF353
:105280004F8FFEE79B6C43B94FF0500383F31188B7
:10529000BFF36F8FBFF34F8FFEE7C16A426C013BD4
:1052A00091428364DFD0002BDDD1051D2846FEF737
:1052B000F3FE114E114A50B9E76A1421794373582D
:1052C0002BB913680120B84023EA00031360636C14
:1052D000E362C3F10701A1611168012404FA03F03C
:1052E00008431060142000FB03602946FEF7B1FE5E
:1052F0002046B9E7B0000020BC0000205C0100207F
:10530000F8B5044600284ED0826C42B94FF05003E5
:1053100083F31188BFF36F8FBFF34F8FFEE7436CAA
:10532000994238BF1946C36A8B423CD0012A3AD110
:105330001D4A1268824208D14FF0500383F311884E
:10534000BFF36F8FBFF34F8FFEE78269174DC162C6
:10535000002A4FF014064269A8BFC1F1070106FBFD
:105360000353A8BF81619A421DD1071D3846FEF73D
:1053700093FEE26A0E4C48B956430123A85903FA3A
:1053800002F118B9236823EA01032360216801238D
:1053900093400B4314202360394600FB0250BDE8C4
:1053A000F840FEF756BEF8BDB0000020BC0000205B
:1053B0005C010020044B1A681AB119688A6C01322A
:1053C0008A641868704700BFB000002082B00023D4
:1053D00001930D4B1B68013308D04FF0500383F34A
:1053E0001188BFF36F8FBFF34F8FFEE74FF050036D
:1053F00083F31188BFF36F8FBFF34F8F019B002B97
:10540000FCD002B0704700BF0800002008480068C8
:10541000006880F308884FF0000080F3148862B6BB
:1054200061B6BFF34F8FBFF36F8F00DF00BF000087
:1054300008ED00E0DFF80C00016841F47001016044
:105440007047000088ED00E04FF0807340F8043CA6
:10545000074B40F80C3C21F001016FF0020340F8CB
:10546000081C40F8202C40F8243C4438704700BF0A
:10547000CD53000800000000000000000000000004
:10548000074B19680868B0E8F04F80F30988BFF34C
:105490006F8F4FF0000080F311887047AFF30080EA
:1054A000B00000204FF0500383F31188BFF36F8FDB
:1054B000BFF34F8F0A4A13680133012B13600DD1DC
:1054C000084B1B6813F0FF0F08D04FF0500383F315
:1054D0001188BFF36F8FBFF34F8FFEE7704700BF98
:1054E0000800002004ED00E0084A136843B94FF0BB
:1054F000500383F31188BFF36F8FBFF34F8FFEE725
:10550000013B13600BB983F311887047080000203A
:10551000EFF30980BFF36F8F154B1A681EF0100F61
:1055200008BF20ED108A20E9F04F10602DE9090036
:105530004FF0500080F31188BFF34F8FBFF36F8F90
:10554000FFF7DCFC4FF0000080F3118809BC1968FC
:105550000868B0E8F04F1EF0100F08BFB0EC108ADA
:1055600080F30988BFF36F8F704700BFAFF30080EF
:10557000B000002008B54FF0500383F31188BFF34B
:105580006F8FBFF34F8FFFF7B1FB18B1034B4FF095
:1055900080521A60002383F3118808BD04ED00E0F7
:1055A000084A0949002313600B60084B4FF47A71D5
:1055B0001B68B3FBF1F30649013B0B600723136043
:1055C000704700BF10E000E018E000E02800002075
:1055D00014E000E0394B3A4A13B51968914208D1FA
:1055E0004FF0500383F31188BFF36F8FBFF34F8FDA
:1055F000FEE71A68334B9A4208D14FF0500383F309
:105600001188BFF36F8FBFF34F8FFEE72E4B1A78D1
:10561000D2B20192FF221A701B782C4ADBB28DF8AD
:1056200003309DF8033003F050031370284B07221A
:105630001A6000219DF80300000602F1FF340DD42A
:1056400001B11A601A68032A11D04FF0500383F396
:105650001188BFF36F8FBFF34F8FFEE79DF80320D4
:105660005200D2B28DF8032001212246E2E7120255
:1056700002F4E0621A60019B134ADBB21370154B0F
:105680001A6842F470021A601A6842F070421A6096
:10569000FFF786FF104B00241C60FFF7CBFE0F4A7C
:1056A000136843F040431360FFF7B0FEFFF726FC9A
:1056B000FFF78CFE204602B010BD00BF00ED00E0F9
:1056C00071C20F4170C20F4100E400E0D801002018
:1056D000DC01002020ED00E00800002034EF00E0B5
:1056E000EFF305830F2B0ED9104A9B5C104A1278FA
:1056F0009A4208D94FF0500383F31188BFF36F8F9C
:10570000BFF34F8FFEE70B4B0B4A1B68126803F485
:10571000E063934208D94FF0500383F31188BFF33D
:105720006F8FBFF34F8FFEE7704700BFF0E300E0DD
:10573000D80100200CED00E0DC01002010B50F4B7B
:105740001A68824218D35C681919884201BF4168FF
:10575000184609195960446801198A4207D1084955
:1057600009688A421FBF516812680919416098424E
:10577000026018BF186010BD1346E1E7F03D00203D
:10578000E00100202DE9F0410446FFF7A7FA3D496A
:105790003D4D0B68FBB93D4A560702F570531DBFDE
:1057A000073222F007029B1A4FF470531344384E0D
:1057B000083B23F00703002070603260C3E900005B
:1057C000981A0B60C2E90030324B1860324B1860F7
:1057D0004FF000432B602F6827424ED1002C3FD062
:1057E00004F1080358071CBF23F007030833002BFC
:1057F00043D0294A16689E4290463ED3244A1568F3
:105800006868984201D22C68A4B90968A94234D0CA
:10581000296814681160C21A102A12D9E8184107C1
:105820000BD04FF0500383F31188BFF36F8FBFF39A
:105830004F8FFEE72A462546E2E742606B60FFF79E
:105840007DFF14496B680868F61A1F4386424FF0C3
:105850000003C8F8006038BF0E6008346F602B602A
:10586000FFF7D6FA63070AD04FF0500383F311888D
:10587000BFF36F8FBFF34F8FFEE70024F0E72046A2
:10588000BDE8F081E0010020E43D0020E4010020BB
:10589000F03D0020EC3D0020E83D002010B504461E
:1058A00070B3184A50F8043C1268134208D14FF004
:1058B000500383F31188BFF36F8FBFF34F8FFEE761
:1058C00050F8081C41B14FF0500383F31188BFF327
:1058D0006F8FBFF34F8FFEE723EA020340F8043CCB
:1058E000FFF7FCF9084A54F8043C1168A4F10800D9
:1058F0000B441360FFF722FFBDE81040FFF788BAA2
:1059000010BD00BFE43D0020E83D002082B0F9B1A9
:1059100000231829019310DD00EB81001A23013BBD
:1059200011D0F0EC017A9DED017AF4EEC77AF1EE38
:1059300010FAC8BFCDED017AF1E7193900EB81000B
:105940003323013B06D1094B019903EB8202D1615C
:1059500002B07047F0EC017A9DED017AF4EEC77A5F
:10596000F1EE10FAC8BFCDED017AEAE7B0400020B1
:10597000074A136823F004031360064BC00818702D
:10598000C0EB401300EB8300034BC000188070474E
:1059900010E000E0FA3D0020F83D0020094B1B8894
:1059A0005843094B002258609A601A6842F001027D
:1059B0001A601A6802F00112012AFAD000221A6055
:1059C0009A607047F83D002010E000E0094B1B781A
:1059D0005843094B002258609A601A6842F001024D
:1059E0001A601A6802F00112012AFAD000221A6025
:1059F0009A607047FA3D002010E000E0014B1E2243
:105A00001A6070471C41002070470000034B036080
:105A1000034B0B6080231360704700BFFC3F0020E6
:105A2000FC3D0020F8B52A4D2A4C28684FF4FA7145
:105A3000FEF722FE0128F8D1274B1B78002BF4D16A
:105A4000264E2749274803233246FDF75BF9737832
:105A50003278DFED256A1B0243EA0243B278134332
:105A600013F4000F214A18BF43F07F431360D2EDB7
:105A7000007A1F4BF8EEE77A87EEA67A83ED007A7C
:105A8000236804EB830282ED027A62680133934259
:105A9000236019D1174E1849306800231A46FEF7C3
:105AA00045FC07463068FEF7A9FE144B012F18602D
:105AB00003D1134B1868FFF799F800234FF40051F6
:105AC00010482360FBF7CFFC0820FFF79DFFACE7F1
:105AD000E0410020F0410020C08201205040002021
