:020000040800F2
:1000000000000220B12200085122000853220008FB
:10001000552200085722000859220008000000005D
:100020000000000000000000000000005B2200084B
:100030005D220008000000005F2200086122000825
:100040000123000801230008012300080123000800
:1000500001230008012300080123000801230008F0
:1000600001230008012300080123000801230008E0
:1000700001230008012300080123000801230008D0
:1000800001230008012300080123000801230008C0
:1000900001230008012300080123000801230008B0
:1000A00001230008012300080123000801230008A0
:1000B0000123000801230008012300080123000890
:1000C0000123000801230008012300080123000880
:1000D0000123000801230008012300080123000870
:1000E0000123000801230008012300080123000860
:1000F0000123000801230008012300080123000850
:10010000012300080123000801230008012300083F
:10011000012300080123000801230008012300082F
:10012000012300080123000801230008012300081F
:10013000012300080123000801230008012300080F
:1001400001230008012300080123000801230008FF
:1001500001230008012300080123000801230008EF
:1001600001230008012300080123000801230008DF
:1001700001230008012300080123000800000000FB
:0801800001230008012300081F
:1001880010B5054C237833B9044B13B10448AFF3C9
:1001980000800123237010BD808000200000000033
:1001A8001424000808B5034B1BB103490348AFF3F7
:1001B800008008BD0000000084800020142400088E
:1001C8004B1C012B98BF70472DE9F003911C9B082D
:1001D800B1F80480B1F802900A8831F802CC804462
:1001E800814402448444D9F80070D8F80060156846
:1001F800DCF80040C9F80060C8F80070CCF800507E
:100208001460D9F80470D8F804605568DCF8044024
:10021800C9F80460C8F80470CCF804505460083178
:10022800013BD5D1BDE8F00370474B1C012B98BFAB
:1002380070472DE9F003911C9B08B1F80480B1F8D0
:1002480002900A8831F802CC00EB580800EB5909F3
:1002580000EB520200EB5C0CD9F80070D8F8006093
:100268001568DCF80040C9F80060C8F80070CCF8E0
:10027800005014600831013BDFD1BDE8F00370473E
:1002880081F0004102E000BF83F0004330B54FEA3F
:1002980041044FEA430594EA050F08BF90EA020FAC
:1002A8001FBF54EA000C55EA020C7FEA645C7FEA3F
:1002B800655C00F0E2804FEA5454D4EB5555B8BF62
:1002C8006D420CDD2C4480EA020281EA030382EAD3
:1002D800000083EA010180EA020281EA0303362D65
:1002E80088BF30BD11F0004F4FEA01314FF4801C38
:1002F8004CEA113102D0404261EB410113F0004F4A
:100308004FEA03334CEA133302D0524263EB430300
:1003180094EA050F00F0A780A4F10104D5F1200E9E
:100328000DDB02FA0EFC22FA05F2801841F10001F9
:1003380003FA0EF2801843FA05F359410EE0A5F1CD
:1003480020050EF1200E012A03FA0EFC28BF4CF0FE
:10035800020C43FA05F3C01851EBE37101F00045B4
:1003680007D54FF0000EDCF1000C7EEB00006EEBC1
:100378000101B1F5801F1BD3B1F5001F0CD349084B
:100388005FEA30004FEA3C0C04F101044FEA4452A2
:1003980012F5800F80F09A80BCF1004F08BF5FEA29
:1003A800500C50F1000041EB045141EA050130BD09
:1003B8005FEA4C0C404141EB010111F4801FA4F1AC
:1003C8000104E9D191F0000F04BF01460020B1FA01
:1003D80081F308BF2033A3F10B03B3F120020CDA39
:1003E8000C3208DD02F1140CC2F10C0201FA0CF017
:1003F80021FA02F10CE002F11402D8BFC2F1200C7C
:1004080001FA02F120FA0CFCDCBF41EA0C01904031
:10041800E41AA2BF01EB0451294330BD6FEA04047A
:100428001F3C1CDA0C340EDC04F11404C4F1200265
:1004380020FA04F001FA02F340EA030021FA04F377
:1004480045EA030130BDC4F10C04C4F1200220FACE
:1004580002F001FA04F340EA0300294630BD21FA0C
:1004680004F0294630BD94F0000F83F4801306BFD2
:1004780081F480110134013D4EE77FEA645C18BFC6
:100488007FEA655C29D094EA050F08BF90EA020F5D
:1004980005D054EA000C04BF1946104630BD91EA55
:1004A800030F1EBF0021002030BD5FEA545C05D158
:1004B8004000494128BF41F0004130BD14F5800497
:1004C8003CBF01F5801130BD01F0004545F0FE410B
:1004D80041F470014FF0000030BD7FEA645C1ABF40
:1004E800194610467FEA655C1CBF0B46024650EA77
:1004F800013406BF52EA033591EA030F41F40021A3
:1005080030BD00BF90F0000F04BF0021704730B528
:100518004FF4806404F132044FF000054FF00001FD
:1005280050E700BF90F0000F04BF0021704730B5BE
:100538004FF4806404F1320410F0004548BF404293
:100548004FF000013EE700BF42004FEAE2014FEAE8
:1005580031014FEA02701FBF12F07F4393F07F4FC3
:1005680081F06051704732F07F4208BF704793F0C6
:100578007F4F04BF41F40021704730B54FF46074D9
:1005880001F0004521F000411CE700BF50EA0102DC
:1005980008BF704730B54FF000050AE050EA010285
:1005A80008BF704730B511F0004502D5404261EBF5
:1005B80041014FF4806404F132045FEA915C3FF436
:1005C800D8AE4FF003025FEADC0C18BF03325FEAD3
:1005D800DC0C18BF033202EBDC02C2F1200300FA84
:1005E80003FC20FA02F001FA03FE40EA0E0021FAA9
:1005F80002F11444BDE600BF70B54FF0FF0C4CF497
:10060800E06C1CEA11541DBF1CEA135594EA0C0F48
:1006180095EA0C0F00F0DEF82C4481EA030621EA83
:100628004C5123EA4C5350EA013518BF52EA0335BE
:1006380041F4801143F4801338D0A0FB02CE4FF070
:100648000005E1FB02E506F00042E0FB03E54FF0A0
:100658000006E1FB03569CF0000F18BF4EF0010E98
:10066800A4F1FF04B6F5007F64F5407404D25FEA94
:100678004E0E6D4146EB060642EAC62141EA555147
:100688004FEAC52040EA5E504FEACE2EB4F1FD0C89
:1006980088BFBCF5E06F1ED8BEF1004F08BF5FEA07
:1006A800500E50F1000041EB045170BD06F00046B9
:1006B80046EA010140EA020081EA0301B4EB5C0466
:1006C800C2BFD4EB0C0541EA045170BD41F480115E
:1006D8004FF0000E013C00F3AB8014F1360FDEBF83
:1006E800002001F0004170BDC4F10004203C35DA5F
:1006F8000C341BDC04F11404C4F1200500FA05F3E2
:1007080020FA04F001FA05F240EA020001F0004282
:1007180021F0004110EBD37021FA04F642EB0601F8
:100728005EEA430E08BF20EAD37070BDC4F10C0422
:10073800C4F1200500FA04F320FA05F001FA04F2E6
:1007480040EA020001F0004110EBD37041F10001D2
:100758005EEA430E08BF20EAD37070BDC4F12005DD
:1007680000FA05F24EEA020E20FA04F301FA05F245
:1007780043EA020321FA04F001F0004121FA04F2ED
:1007880020EA020000EBD3705EEA430E08BF20EABD
:10079800D37070BD94F0000F0FD101F000464000F7
:1007A80041EB010111F4801F08BF013CF7D041EA79
:1007B800060195F0000F18BF704703F0004652007D
:1007C80043EB030313F4801F08BF013DF7D043EA4E
:1007D8000603704794EA0C0F0CEA135518BF95EA04
:1007E8000C0F0CD050EA410618BF52EA4306D1D18B
:1007F80081EA030101F000414FF0000070BD50EAAA
:10080800410606BF1046194652EA430619D094EA33
:100818000C0F02D150EA013613D195EA0C0F05D11D
:1008280052EA03361CBF104619460AD181EA030171
:1008380001F0004141F0FE4141F470014FF0000029
:1008480070BD41F0FE4141F4780170BD70B54FF0C4
:10085800FF0C4CF4E06C1CEA11541DBF1CEA135544
:1008680094EA0C0F95EA0C0F00F0A7F8A4EB050426
:1008780081EA030E52EA03354FEA013100F088801D
:100888004FEA03334FF0805545EA131343EA1263E6
:100898004FEA022245EA111545EA10654FEA00269B
:1008A8000EF000419D4208BF964244F1FD0404F554
:1008B800407402D25B084FEA3202B61A65EB0305B0
:1008C8005B084FEA32024FF480104FF4002CB6EB6D
:1008D800020E75EB030E22BFB61A754640EA0C00ED
:1008E8005B084FEA3202B6EB020E75EB030E22BF2D
:1008F800B61A754640EA5C005B084FEA3202B6EB6E
:10090800020E75EB030E22BFB61A754640EA9C002C
:100918005B084FEA3202B6EB020E75EB030E22BFFC
:10092800B61A754640EADC0055EA060E18D04FEABA
:10093800051545EA16754FEA06164FEAC30343EA5A
:1009480052734FEAC2025FEA1C1CC0D111F4801F27
:100958000BD141EA00014FF000004FF0004CB6E720
:1009680011F4801F04BF01430020B4F1FD0C88BFBF
:10097800BCF5E06F3FF6AFAEB5EB030C04BFB6EBCA
:10098800020C5FEA500C50F1000041EB045170BDBD
:100998000EF0004E4EEA113114EB5C04C2BFD4EBEA
:1009A8000C0541EA045170BD41F480114FF0000E6E
:1009B800013C90E645EA060E8DE60CEA135594EAEA
:1009C8000C0F08BF95EA0C0F3FF43BAF94EA0C0FED
:1009D8000AD150EA01347FF434AF95EA0C0F7FF462
:1009E80025AF104619462CE795EA0C0F06D152EAB6
:1009F80003353FF4FDAE1046194622E750EA41069A
:100A080018BF52EA43067FF4C5AE50EA41047FF4AA
:100A18000DAF52EA43057FF4EBAE12E74FEA41020D
:100A2800B2F1E04324BFB3F5001CDCF1FE5C0DD944
:100A380001F0004C4FEAC0024CEA5070B2F1004F8E
:100A480040EB830008BF20F00100704711F0804F91
:100A580021D113F13872BCBF01F00040704741F456
:100A680080114FEA5252C2F11802C2F1200C10FA5A
:100A78000CF320FA02F018BF40F001004FEAC1233E
:100A88004FEAD32303FA0CFC40EA0C0023FA02F3E2
:100A98004FEA4303CCE77FEA625307D150EA0133B8
:100AA8001EBF4FF0FE4040F44000704701F0004088
:100AB80040F0FE4040F40000704700BF53B94AB907
:100AC800002908BF00281CBF4FF0FF314FF0FF304E
:100AD80000F072B9ADF1080C6DE904CE00F006F82B
:100AE800DDF804E0DDE9022304B070472DE9F047A2
:100AF800089E04468846002B4BD18A42154667D982
:100B0800B2FA82F24AB1C2F1200701FA02F320FADE
:100B180007F7954047EA030894404FEA154E230C1F
:100B2800B8FBFEF71FFA85FC0EFB178843EA08435B
:100B380007FB0CF1994209D9EB1807F1FF3080F057
:100B48001B81994240F21881023F2B445B1AA4B2E0
:100B5800B3FBFEF00EFB103344EA034400FB0CFC2D
:100B6800A44509D92C1900F1FF3380F00781A44569
:100B780040F2048102382C4440EA0740A4EB0C04FC
:100B880000271EB1D4400023C6E900433946BDE81A
:100B9800F0878B4209D9002E00F0EB800027C6E9C8
:100BA800000138463946BDE8F087B3FA83F7002FCD
:100BB80047D18B4202D3824200F2FA80841A61EB59
:100BC800030301209846002EE0D0C6E90048DDE77F
:100BD80002B9FFDEB2FA82F2002A40F08F80491B88
:100BE8004FEA154E1FFA85F80127B1FBFEFC230CCE
:100BF8000EFB1C1143EA014308FB0CF1994207D98B
:100C0800EB180CF1FF3002D2994200F2CD808446F5
:100C1800591AA3B2B1FBFEF00EFB101443EA0444C8
:100C280008FB00F8A04507D92C1900F1FF3302D2C0
:100C3800A04500F2B6801846A4EB080440EA0C4030
:100C48009FE7C7F1200CBB4022FA0CFE4EEA030EC8
:100C580001FA07F420FA0CF521FA0CF34FEA1E48C2
:100C68002543B3FBF8F92C0C08FB19331FFA8EFA4D
:100C780044EA034309FB0AF49C4202FA07F200FA29
:100C880007F10BD91EEB030309F1FF3080F08780D1
:100C98009C4240F28480A9F1020973441B1BADB247
:100CA800B3FBF8F008FB103345EA034400FB0AFAEB
:100CB800A24508D91EEB040400F1FF336BD2A2450C
:100CC80069D90238744440EA0940A0FB0289A4EBC0
:100CD8000A044C45C2464B4654D351D0002E69D025
:100CE800B1EB0A0564EB030404FA0CFCFD40FC407C
:100CF8004CEA0505C6E90054002747E7C2F120037E
:100D080020FA03F7954001FA02F021FA03F34FEABB
:100D1800154E3843010CB3FBFEF71FFA85F80EFB9E
:100D2800173341EA034107FB08F38B4204FA02F444
:100D380007D9691807F1FF3C2FD28B422DD9023F02
:100D48002944CB1A81B2B3FBFEF00EFB103341EA03
:100D5800034100FB08F38B4207D9691800F1FF3CF7
:100D680017D28B4215D902382944C91A40EA0747D5
:100D78003BE73746304609E70746E7E61846FBE60D
:100D88004145ABD2B8EB020A69EB0E0201381346B3
:100D9800A4E76046E9E7184695E76746D1E7814644
:100DA8007CE702382C4447E7ACF1020C2B442FE7D0
:100DB800384608E73746E9E6704700BF38B50E4AB7
:100DC8000E4B054618784FF47A73B3FBF0F31068AE
:100DD800B0FBF3F000F088F8044658B90F2D09D895
:100DE800024629464FF0FF3000F04AF8044B2046EF
:100DF8001D6038BD0120FCE71480002000000020A1
:100E08000400002008B50B4B1A6842F400721A60FF
:100E18001A6842F480621A601A6842F480721A6092
:100E2800032000F01BF80020FFF7C8FF01F0F0F9DD
:100E3800002008BD003C0240034A044B11681B789F
:100E48000B441360704700BFA4C0002000000020BE
:100E5800014B1868704700BFA4C00020074AD36838
:100E680023F4E0631B041B0C43F0BF63000243F44C
:100E7800003300F4E0600343D360704700ED00E006
:100E8800174B70B5DC68C4F30224C4F10705042DC0
:100E980004F1040328BF04254FF0FF36062B06FA99
:100EA80005F38CBF033C002421EA0303A34006FAA0
:100EB80004F422EA0404002843EA0403A8BF00F16A
:100EC80060404FEA0313BCBF00F00F00054ADBB2D5
:100ED800AABF00F56140135480F8003370BD00BF0D
:100EE80000ED00E014ED00E00138B0F1807F0AD297
:100EF800064B074A5860F02182F823100020072289
:100F080098601A6070470120704700BF10E000E049
:100F180000ED00E02DE9F341044618B9012002B0C4
:100F2800BDE8F0810368DD0710D42368980758D41A
:100F380023681A0700F19A8023685B0700F1B880DC
:100F4800A269002A40F019810020E8E7A64B9A68B8
:100F580002F00C02042A07D09A6802F00C02082A50
:100F68000AD15B68590207D59F4B1B689A03DCD5E9
:100F78006368002BD9D1D1E763689B4DB3F5803FF7
:100F880011D12B6843F480332B60FFF761FF964D36
:100F980006462B689B03C8D4FFF75AFF801B6428BA
:100FA800F7D90320BBE7B3F5A02F04D12B6843F48E
:100FB80080232B60E5E72A6822F480322A602A68B9
:100FC80022F480222A60002BDFD1FFF741FF06467A
:100FD8002B689F03A9D5FFF73BFF801B6428F7D92F
:100FE800DFE7814B9A6812F00C0F07D09A6802F07D
:100FF8000C02082A11D15B685E020ED47A4B1A687B
:10100800950702D5E268012A88D11A68216922F079
:10101800F80242EAC1021A608AE7E268734BB2B189
:1010280001221A60FFF714FF6F4D06462B689807D8
:1010380007D52B68226923F0F80343EAC2032B6023
:1010480076E7FFF705FF801B0228EFD9A9E71A60AA
:10105800FFF7FEFE644D06462B6899077FF568AFDB
:10106800FFF7F6FE801B0228F6D99AE76269604B03
:101078007AB101221A60FFF7EBFE5B4D06466B6FF3
:101088009F073FF559AFFFF7E3FE801B0228F6D90B
:1010980087E71A60FFF7DCFE534D06466B6F98072B
:1010A8007FF54AAFFFF7D4FE801B0228F6D978E710
:1010B8004D4B1A6C12F0805228D101921A6C42F0F2
:1010C80080521A641B6C03F080530193019B012624
:1010D800484D2B68D9051BD5A368434D012B27D153
:1010E8002B6F43F001032B67FFF7B2FE3E4D074617
:1010F80041F288382B6F9B0739D5002E3FF420AF7B
:10110800394A136C23F08053136419E70026DFE78C
:101118002B6843F480732B60FFF79AFE07462B6811
:10112800DA05D9D4FFF794FEC01B0228F7D938E7AF
:10113800052B04D12B6F43F004032B67D0E72A6FEC
:1011480022F001022A672A6F22F004022A67002B84
:10115800CAD1FFF77DFE41F2883807462B6F980702
:10116800CBD5FFF775FEC01B4045F7D919E7FFF748
:101178006FFEC01B4045BDD913E71B4DAB6803F09C
:101188000C03082B3FF4CAAE1B4E0023022A33601F
:1011980034D1FFF75DFE07462B6899011ED4D4E9C8
:1011A80007321343626A43EA8213E26A43EA02633C
:1011B800A26A0D4C5208013A43EA02436B600123CC
:1011C8003360FFF745FE054623689A013FF5BCAE3C
:1011D800FFF73EFE401B0228F6D9E2E6FFF738FE8D
:1011E800C01B0228D8D9DCE600380240000047427C
:1011F800800E47420070004060004742FFF728FE1B
:1012080004462B689B017FF59FAEFFF721FE001B6C
:101218000228F6D9C5E600BF134908B58B6803F064
:101228000C03042B03D0082B03D0104800E010480F
:1012380008BD4A684B68496813F4800314BF0C481A
:101248000A48C1F3881118BF002302F03F02A1FB2E
:101258000001FFF733FC044B5B68C3F30143013320
:101268005B00B0FBF3F0E3E7003802400024F40031
:1012780040787D012DE9F0410D46044610B9012062
:10128800BDE8F081434B1A6802F00F028A4227D367
:1012980021688F072CD4C8073FD43E4B1A6802F048
:1012A8000F02AA4264D8226851076AD4130707D5E7
:1012B800394A2169936823F4604343EAC103936080
:1012C800FFF7AAFF344B354A9B68C3F30313D35C7B
:1012D800D840334B18600020FFF770FD0020CFE79F
:1012E800CAB21A701B6803F00F038B42C7D1CFE74D
:1012F800294B11F0040F1EBF9A6842F4E0529A601D
:101308000E0742BF9A6842F460429A609A68A068E1
:1013180022F0F00202439A60BDE762681E4B012A80
:101328001CD11B6813F4003FA9D01B4EB36823F0EF
:1013380003031343B360FFF78BFD41F28838074678
:10134800B368626803F00C03B3EB820FA5D0FFF714
:101358007FFDC01B4045F3D9032091E7911E012969
:101368001B6802D813F0007FDEE713F0020FDBE7FB
:10137800EAB21A701B6803F00F03AB427FF47FAF29
:1013880091E70549E0688B6823F4E05303438B60D9
:101398008CE700BF003C024000380240BCC3000894
:1013A80014800020B5EEC00AF1EE10FA10B504461C
:1013B80005DB00F0D5FF002084ED000A10BD0023F6
:1013C80003604FF0FF30F9E72DE9F0474FEA920943
:1013D80006460D4617460446CA4688462034BAF1E2
:1013E800000F0DD105EB091007F0030706EB4916AE
:1013F80000EB8707B84206F1080635D1BDE8F0874B
:1014080014ED070A54ED087A20EE000A4046A7EECC
:10141800A70AFFF7C7FF14ED050A54ED067A20EE78
:10142800000A08F10400A7EEA70AFFF7BBFF14EDB6
:10143800030A54ED047A20EE000A08F10800A7EE2A
:10144800A70AFFF7AFFF14ED010A54ED027A20EE68
:10145800000A08F10C00A7EEA70AFFF7A3FF0AF19C
:10146800FF3A08F11008B9E716ED010A56ED027ABD
:1014780020EE000A051DA7EEA70AFFF793FF2846EE
:10148800B8E7F0B54C1E06464FEA940C0025D0ED9F
:10149800007A14364FEA8C0E2F4675450BD100EBB7
:1014A8000C1004F0030404300C1BA14234D1C2ED2B
:1014B800007A1F60F0BD56ED046A16ED037AF4EE6B
:1014C800E67AF1EE10FA48BFF0EE667AF4EEC77AE3
:1014D80048BF6F1C56ED026AF1EE10FA48BFF0EEF5
:1014E800477AF4EEE67A48BFAF1C16ED017AF1EEC2
:1014F80010FA48BFF0EE667AF4EEC77A48BFEF1CE0
:10150800F1EE10FA05F1040554BFB0EE677A2F46E4
:101518001036F0EE477AC0E7B0EC017AF4EEC77AFD
:10152800F1EE10FA54BFB0EE677A2746F0EE477A2C
:101538000134BAE72DE9F04781462DED028BB9F861
:101548000070D9F8042001EB8708084679088B0059
:10155800FF08C51806464344444602EB071794465D
:10156800BC4506F1100605F1100503F1100304F15E
:1015780010040FD18CB22146022300F0FBFABDEC17
:10158800028BD9F80420214640460223BDE8F047E3
:1015980000F0F0BA14ED040A16ED046A54ED030ADB
:1015A80016ED034A53ED046A53ED034A14ED027A2B
:1015B80014ED015A55ED032A15ED023A55ED013A9D
:1015C80053ED027A53ED015A16ED021A15ED042A6D
:1015D80056ED011A36EE008A36EE406A06ED048AA8
:1015E80034EE208A34EE604A06ED038A31EE078A2B
:1015F8000CF1100C06ED028A31EE858A31EEC55ADF
:1016080072EE261A06ED018A45ED041A72EEA41A46
:1016180074EEE24A45ED031A73EE271A77EEC37AA1
:1016280045ED021A73EEA51A75EEE35A45ED011A57
:101638005CED033A1CED043A64EE232A76EEC26AA6
:10164800E6EE032A23EEC66A44ED042AA4EE036AF2
:1016580031EE477A04ED036A23EE646AA6EEA36AC4
:1016680066EE836A03ED046AE4EEA36A43ED036A57
:101678001CED026A5CED016A65EE264AE7EE064A51
:1016880026EEC77A44ED024AA5EE067A04ED017A01
:1016980026EE657AA7EEA67A67EE867A03ED027AD9
:1016A800E5EEA67A43ED017A5AE72DE9F04F2DEDE4
:1016B800048B8FB00390039B039A08461988D0EDDA
:1016C800007A5268029249088B00C418E61896ED11
:1016D800007AD6ED015AD4ED013A37EE876A77EEF3
:1016E800C77A90ED017A77EE256A77EE655A94ED20
:1016F800007AF518D5ED004A95ED014A37EE065AFD
:101708004A0835EE245A089215EE101A024636EEAB
:10171800476A42F8081B94ED015A95ED013A0A927E
:1017280036EE855A224635EE035A36EE646A80ED67
:10173800015A33EEA75A77EEE37A35EE445A76EE3D
:10174800E36A15EE101A35EEC75A42F8081B35EE53
:10175800245A0B9216EE101A324684ED015A77EE8F
:10176800847A42F8081B76EEC46A0C9217EE901A37
:101778002A46C6ED016A42F8081B37EE257A0D9213
:10178800029A37EE647A083285ED017A0992089A4E
:10179800911E4A080492099A0592A5F1040C049A2C
:1017A800079263440022A4F1040AA6F1040E0193EF
:1017B80000F1100904F1100706F1100805F11001F5
:1017C8000692069A18ED027A58ED012A19ED025A86
:1017D80019ED016A57ED025A57ED017A019B11ED97
:1017E800024A11ED013A083A0692059A75EE473A0F
:1017F80076EE624A35EE075A36EE226A083234EE41
:10180800E52A77EEA36A35EE657A76EE672A75EEF5
:10181800A44A73EEE77A75EE855A0592079A083B53
:1018280076EEC36A32EE042A37EE447A72EEC32AA1
:1018380077EE837A74EEC44A75EE845AAAF1080AE0
:10184800AEF1080EACF1080C019309F1080908374C
:1018580008F108080831002A74D1049B099ADF00AE
:101868000A9B3A443B449A461146029B049ACAEDA5
:10187800005A4FF0180E03EB021C0EFB023E0B9AA7
:101888003A4490460C9AD8ED015A3A4491460D9A3A
:101898003A4436EE256AD2ED015ABDF8207036EE8C
:1018A800256A04238AED016A91ED015AD1ED005AA7
:1018B80025EE026A3946A5EEA66A66EEC56A88ED87
:1018C800006AE5EE826AC8ED016ADCED055A9CED16
:1018D800046A65EEA26AE6EE076A27EE657AC9ED44
:1018E800006AA6EE227A89ED017A9EED076ADEED9E
:1018F800066A26EE247AA6EEA77A67EEC67A82ED05
:10190800007AE6EEA47AC2ED017A029A00F032F982
:10191800039A394620460423526800F02BF9039AAB
:10192800394630460423526800F024F9039A526875
:101938000423394628460FB0BDEC048BBDE8F04FB0
:1019480000F018B949ED045A57ED035A019B059A5E
:1019580036EE256A51ED035A36EE256A6FF0010B13
:1019680009ED036A9CED016ADAED011ADAED023A33
:10197800D3ED020A9EED025A93ED013A9EED018ADB
:1019880031EE864A71EEC61A9CED026A73EE868ABB
:1019980035EE609A73EEC63A38EEC56A35EE285AC7
:1019A80034EE481A35EE205A73EEC85A8AED025AB8
:1019B8009EED015A34EE054A93ED015A029B34EE2E
:1019C800054A75EE835A8AED014A12ED015A12ED65
:1019D800024A069A31EE431A33EE483A39EE210AA2
:1019E80073EE633A25EE023A0BFB023BA4EE263A6D
:1019F80066EEC56A07ED043AE4EE026A36EE606AFE
:101A080047ED036A64EE406A79EE611AE5EE856A8D
:101A180065EE845ACEED026AE0EE055ACEED015A23
:101A2800DBED015ADBED006A25EEA25AA2EB820B30
:101A3800A6EE875A9B4427EE657A08ED045AA6EE6F
:101A4800A27A08ED037A25EEC17AA6EE667A26EE2A
:101A5800256A8CED027AA1EE666A8CED016ADBEDEF
:101A6800006A9BED017A019B079A27EE246A013AE6
:101A7800A6EEA76A079267EEC77A01ED046AE6EE5A
:101A8800A47A41ED037A66EEE17AE3EE877AC3ED54
:101A9800027A63EEA67AE1EE877AC3ED017A90E6E0
:101AA800012A2DE9F04106460D4617469846048856
:101AB80039D0B4F5807F49D021D8202C46D01AD807
:101AC800102C3ED0B8F1000F04D0B268B189284676
:101AD800FEF776FB012F0CD107EE904AF8EE677AF5
:101AE800F7EE006A86EEA77A0023A34205F10805FF
:101AF80031D3BDE8F081402C08D0802CE1E7B4F563
:101B0800806F1ED009D8B4F5007FDBD1012372683D
:101B18002146284600F02EF8D4E7B4F5006F15D01A
:101B2800B4F5805FF1E70B1D0022A24203F1080320
:101B3800BFD253ED027AF1EE677A43ED027A0132B1
:101B4800F3E729463046FFF7F5FCBBE72946304660
:101B5800FFF7ABFDB6E755ED027A67EE877A0133FA
:101B680045ED027A55ED017A67EEC77A45ED017ABF
:101B7800BBE700002DE9F04F2DED108BDFEDCE5ABD
:101B88009DB09B4601900D9102920391B0EE655A6B
:101B9800039B0199DA08540101EB040E1820D100C7
:101BA80000FB02F5179128206FF017015143189593
:101BB80000FB02F50EEB010C3020169515010CEB1D
:101BC8000407159500FB02F538207E1850430C9544
:101BD8000490351901982944DB0001EB040900F150
:101BE80004084FF0000ADEED007A18ED017ADCED0A
:101BF800003AD6ED004A99ED003AD1ED002A77EE89
:101C0800276A37EE677AD7ED007A33EEA76A73EE64
:101C1800E73AD5ED007A34EEA74A74EEE77A72EE29
:101C2800834A36EEC48A36EE640A76EE846A36EE65
:101C3800246A72EEC32A76EE864A76EEC66A48EDC4
:101C4800014ACEED006AD8ED004A9EED016A9CED8E
:101C5800014A96ED013AD9ED011A74EE866A34EE1E
:101C6800C66AD7ED014A34EE242A34EE644AD5ED2B
:101C7800014A33EE241A73EE644A91ED013A73EE89
:101C8800210A33EE613A76EEC11A76EE816A32EEB7
:101C9800601A32EE202A76EE820A76EEC26AC8ED23
:101CA800000ACEED016A78EE016A38EE412AC6EDE7
:101CB800006A71EEC06A85ED002AC6ED016A70EE11
:101CC800216A34EE432AC5ED016A73EEA26A73EE07
:101CD800E21A34EE034AF0EE673AE6EEE53A9E443D
:101CE8001E44E6EEA57A1D449844F0EE462AF0EE2E
:101CF800466AB0EE646AB0EE473AA4EE256AA1EEF1
:101D0800A57AE2EE652AE2EE256AB0EE642AA1EE33
:101D1800E53AA4EE652A77EE064A37EE467ACCED28
:101D2800004A89ED007A33EE027A33EE423A87EDC3
:101D3800007A36EEE77A77EEA67A81ED003A8CEDF6
:101D4800017AC9ED017A72EEE37A73EEA23AC7ED31
:101D5800017AC1ED013A039882440D9850459C449C
:101D68001F44194499443FF63EAF072A40F2CF81F9
:101D78004FEACB0114911498029901440B914FEA50
:101D88000B1113911398029901440A91182101FB30
:101D98000BF1129112980299014409914FEA4B11E3
:101DA80011911198029901440891282101FB0BF126
:101DB80010911098029901440791302101FB0BF111
:101DC8000F910F98029901440691382101FB0BF1FC
:101DD8000E910E98029901440591019901980C44BD
:101DE800179901448E46169901448C461599014469
:101DF8000F460C9901440E46189901440D46049962
:101E080001440120049004F10C0015900EF10C001F
:101E180016900CF10C00179007F10C00189006F1C1
:101E28000C008846199005F10C001A9008F10C0076
:101E380000211B900B98049CD0ED001A0A9890ED95
:101E4800008A0998D0ED004A089890ED009A079802
:101E5800D0ED003A0698D0ED000A0598D0ED002A9A
:101E68000B9890ED011A0A98D0ED018A099890ED27
:101E7800014A0898D0ED019A079890ED013A069822
:101E880090ED010A059890ED012A019800EBC4092C
:101E9800159800EB0108169800EB010E179800EB57
:101EA800010C18984718199846181A9845181B983D
:101EB800441804980C9001E0F304353F58ED017A7A
:101EC8005EED016A1CED017A99ED00AA17ED01BAE1
:101ED80015ED01EA3AEE276A36EEC7DA3AEE67AA56
:101EE80076EE877A56ED016A3BEE267A3BEE66BAC5
:101EF80054ED016A7EEE26AA36EE47FA77EEEAEA54
:101F080036EE076A77EEAA7A3EEE66EA36EE277A6A
:101F180076EE67AA89ED007A99ED016AD8ED007A24
:101F2800DEED00CAD7ED006AD5ED00FAD4ED00DA8F
:101F380036EE277A76EE67BADCED007A3CEEA76AD1
:101F48007CEEE7CAD6ED007A36EEA7CA76EEE77AD7
:101F58007FEEAD6A7FEEEDDA77EE4CFA37EE0CCA1B
:101F680036EE667A36EE266A7FEE076A3FEE477AE5
:101F78003CEE06FA3CEE46CA89ED01FA29EE8C6A77
:101F88003FEEEEFAA9EE2A6A99447EEEAFEA08ED32
:101F9800016A2AEEE96A7DEE4EAAA9EE0C6AB0EE55
:101FA8004ACA88ED006A28EE8F6AAAEEC5CA984424
:101FB800A8EE266A66EEE86A07ED016AE8EE0F6A9F
:101FC8003CEEED6AC7ED006A60EE2E6AAAEE85AABD
:101FD8001F44E0EE876A27EE407A46ED016AA0EEDC
:101FE800AE7A7DEE0E6A86ED007A3CEEAD7AF0EEC2
:101FF8006BCAE6EE05BA1E44E6EE45CAB0EE6B6A59
:10200800F0EE67BAE7EE45BAE7EE057AF0EE4BAACE
:10201800A6EE85BA3CEE2B7AE6EEC5AA7AEE276ADA
:102028007AEE677A3CEE6BAA36EE4BCA3BEE066A4E
:1020380061EE0CBA3CEEEABAE1EEA6BA66EEC16A07
:102048004EED01BAE1EE8C6A7AEEACAACEED006AEA
:1020580062EE066A9E44E2EEA76A44ED016A67EE04
:10206800C26A63EE0B7AE2EE866AE3EE877AC4ED23
:10207800006A27EE437A4CED017A64EE2A7AA3EEE1
:102088008B7A1C44E4EE8A7A8CED007A45ED017A6D
:102098006AEE447A9C44E4EEAA7AC5ED007A0C987C
:1020A8008246039882440D98CDF830A082460C9859
:1020B80082451D443FF602AF0498149C01300490F9
:1020C8000B9820440B90139C0A9820440A90129C69
:1020D800099820440990119C089820440890109C65
:1020E8000798204407900F9C0698204406900E9C61
:1020F8000598204405900498824201F108017FF474
:1021080099AE4FEACB031FFA83FB039240E51DB05B
:10211800BDEC108BBDE8F08F30B5142495B0224685
:10212800002109A800F014F92246002103A800F0B4
:102138000FF900241B4B01941A6C42F080521A6468
:102148001B6C03F080530193019B174B02941A6890
:1021580042F480421A601B6803F480430293012210
:10216800029B1023CDE90B230821A8230225CDE9E2
:10217800101308A8042313930895CDE90E5412955B
:10218800FEF7C8FE0F23CDE903354FF4A0504FF4F6
:102198008053CDE90603052103A80594FFF76AF8E3
:1021A80015B030BD003802400070004037B5FEF76A
:1021B80029FEFFF7B1FF0E4B0E4A0F4D1B78127820
:1021C8000E490F480F4CFFF76BFC2A680E490B4865
:1021D800FFF7FAF8234601AA29680B48FFF751F9D7
:1021E8000A4B22681B689A4200D0FEE7FEE700BF50
:1021F800088000209C8000200C800020080000201F
:10220800ACC30008A0800020A4800020108000201B
:1022180082B00C4B002100915A6C42F480425A64FF
:102228005A6C02F480420092009A01911A6C42F0B2
:1022380080521A641B6C03F080530193019B02B017
:10224800704700BF003802407047FEE7FEE7FEE730
:10225800FEE7704770477047FEF7EEBD0F49D1F8AB
:10226800883043F47003C1F888300D4B1A68002099
:1022780042F001021A6098601A6822F0847222F40F
:1022880080321A60074A5A601A6822F480221A605B
:10229800D8604FF000638B60704700BF00ED00E02E
:1022A8000038024010300024DFF834D0002103E069
:1022B8000C4B5B58435004310B480C4B42189A4264
:1022C800F6D30B4A02E0002342F8043B094B9A423A
:1022D800F9D3FFF7C3FF00F017F8FFF767FF704760
:1022E80000000220E4C300080000002080800020D5
:1022F80080800020A8C00020FEE70000014B18687D
:10230800704700BF1880002070B50D4E0D4CA41BFF
:10231800A4100025A54209D10B4E0C4C00F076F80C
:10232800A41BA4100025A54205D170BD56F8253080
:1023380098470135EEE756F8253098470135F2E71A
:10234800DCC30008DCC30008DCC30008E0C30008E5
:1023580002440346934200D1704703F8011BF9E792
:1023680010B52DED028B8AB0B0EE408A00F048F827
:10237800214B93F90040631C2CD0B4EE488AF1EE4F
:1023880010FA27D6B5EEC08AF1EE10FA22D501234D
:1023980000931A4B019318EE100A00230893FEF7D6
:1023A800D3F80022CDE90401CDE902010023ACB93C
:1023B800CDE90623684600F026F8B8B1089B1BB1A2
:1023C800FFF79CFF089B0360DDE90601FEF726FB8B
:1023D80000EE100A0AB0BDEC028B10BD104619467B
:1023E800FEF734FA022CCDE90601E3D1FFF786FFA8
:1023F80021230360E2E700BF7C800020CCC30008F3
:10240800B1EEC00A7047002070470000F8B500BF61
:10241800F8BC08BC9E467047F8B500BFF8BC08BCBD
:042428009E46704715
:10242C0008000010100000201800003020000040B0
:10243C00280000503000006038000070400000029E
:10244C004800001250000022580000326000004288
:10245C006800005270000062780000728000000476
:10246C00880000149000002498000034A000004460
:10247C00A8000054B0000064B8000074C00000064E
:10248C00C8000016D0000026D8000036E000004638
:10249C00E8000056F0000066F80000760001000825
:1024AC00080100181001002818010038200100480C
:1024BC002801005830010068380100784001000AFA
:1024CC004801001A5001002A5801003A6001004AE4
:1024DC006801005A7001006A7801007A8001000CD2
:1024EC008801001C9001002C9801003CA001004CBC
:1024FC00A801005CB001006CB801007CC001000EAA
:10250C00C801001ED001002ED801003EE001004E93
:10251C00E801005EF001006EF801007E0802401038
:10252C001002402018024030200240402802405047
:10253C003002406038024070480240125002402283
:10254C0058024032600240426802405270024062BF
:10255C0078024072800240048802401490024024A9
:10256C0098024034A0024044A8024054B002406497
:10257C00B8024074C0024006C8024016D002402681
:10258C00D8024036E0024046E8024056F00240666F
:10259C00F802407600034008080340181003402856
:1025AC001803403820034048280340583003406843
:1025BC00380340784003400A4803401A5003402A2D
:1025CC005803403A6003404A6803405A7003406A1B
:1025DC007803407A8003400C8803401C9003402C05
:1025EC009803403CA003404CA803405CB003406CF3
:1025FC00B803407CC003400EC803401ED003402EDD
:10260C00D803403EE003404EE803405EF003406ECA
:10261C00F803407E080480101004802018048030D9
:10262C00200480402804805030048060380480707E
:10263C004804801250048022580480326004804286
:10264C00680480527004806278048072880480145C
:10265C009004802498048034A0048044A8048054FE
:10266C00B0048064B8048074C0048006C80480166A
:10267C00D0048026D8048036E0048046E8048056D6
:10268C00F0048066F8048076000580080805801840
:10269C0010058028180580382005804828058058AA
:1026AC0030058068380580784005800A4805801A16
:1026BC005005802A5805803A6005804A6805805A82
:1026CC007005806A7805807A8005800C8805801CEE
:1026DC009005802C9805803CA005804CA805805C5A
:1026EC00B005806CB805807CC005800EC805801EC6
:1026FC00D005802ED805803EE005804EE805805E32
:10270C00F005806EF805807E0806C0101006C0200B
:10271C001806C0302006C0402806C0503006C060E5
:10272C003806C0704806C0125006C0225806C03287
:10273C006006C0426806C0527006C0627806C0725D
:10274C008806C0149006C0249806C034A006C04465
:10275C00A806C054B006C064B806C074C806C0163B
:10276C00D006C026D806C036E006C046E806C056DD
:10277C00F006C066F806C0760007C0080807C01847
:10278C001007C0281807C0382007C0482807C058B1
:10279C003007C0683807C0784007C00A4807C01A1D
:1027AC005007C02A5807C03A6007C04A6807C05A89
:1027BC007007C06A7807C07A8007C00C8807C01CF5
:1027CC009007C02C9807C03CA007C04CA807C05C61
:1027DC00B007C06CB807C07CC007C00EC807C01ECD
:1027EC00D007C02ED807C03EE007C04EE807C05E39
:1027FC00F007C06EF807C07E080800111008002111
:10280C0018080031200800412808005130080061E8
:10281C00380800714808001350080023580800338A
:10282C006008004368080053700800637808007360
:10283C00880800159008002598080035A008004568
:10284C00A8080055B0080065B8080075C80800173E
:10285C00D0080027D8080037E0080047E8080057E0
:10286C00F0080067F808007708090019100900291A
:10287C001809003920090049280900593009006954
:10288C00380900794009000B4809001B5009002B3E
:10289C005809003B6009004B6809005B7009006B2C
:1028AC007809007B8009000D8809001D9009002D16
:1028BC009809003DA009004DA809005DB009006D04
:1028CC00B809007DC009000FC809001FD009002FEE
:1028DC00D809003FE009004FE809005FF009006FDC
:1028EC00F809007F080A4011100A4021180A4031EB
:1028FC00200A4041280A4051300A4061380A407190
:10290C00480A4013500A4023580A4033600A404397
:10291C00680A4053700A4063780A4073880A40156D
:10292C00900A4025980A4035A00A4045A80A40550F
:10293C00B00A4065B80A4075C80A4017D00A40274B
:10294C00D80A4037E00A4047E80A4057F00A406787
:10295C00F80A4077080B4019100B4029180B403926
:10296C00200B4049280B4059300B4069380B4079FB
:10297C00480B401B500B402B580B403B600B404B03
:10298C00680B405B700B406B780B407B800B400DF1
:10299C00880B401D900B402D980B403DA00B404DDB
:1029AC00A80B405DB00B406DB80B407DC00B400FC9
:1029BC00C80B401FD00B402FD80B403FE00B404FB3
:1029CC00E80B405FF00B406FF80B407F080C801158
:1029DC00100C8021180C8031200C8041280C805167
:1029EC00300C8061380C8071480C8013500C8023A3
:1029FC00580C8033600C8043680C8053700C8063DF
:102A0C00780C8073880C8015900C8025980C803580
:102A1C00A00C8045A80C8055B00C8065B80C807556
:102A2C00C80C8017D00C8027D80C8037E00C80475E
:102A3C00E80C8057F00C8067F80C8077080D801933
:102A4C00100D8029180D8039200D8049280D8059D2
:102A5C00300D8069380D8079480D801B500D802B0E
:102A6C00580D803B600D804B680D805B700D806B4A
:102A7C00780D807B880D801D900D802D980D803DEC
:102A8C00A00D804DA80D805DB00D806DB80D807DC2
:102A9C00C00D800FC80D801FD00D802FD80D803F2A
:102AAC00E00D804FE80D805FF00D806FF80D807F9A
:102ABC00080EC011100EC021180EC031200EC041DE
:102ACC00280EC051300EC061380EC071480EC013B4
:102ADC00500EC023580EC033600EC043680EC05356
:102AEC00700EC063780EC073880EC015900EC02592
:102AFC00980EC035A00EC045A80EC055B00EC065CE
:102B0C00B80EC075C80EC017D00EC027D80EC0376F
:102B1C00E00EC047E80EC057F00EC067F80EC07745
:102B2C00080FC019100FC029180FC039200FC04949
:102B3C00280FC059300FC069380FC079480FC01B1F
:102B4C00500FC02B580FC03B600FC04B680FC05BC1
:102B5C00700FC06B780FC07B880FC01D900FC02DFD
:102B6C00980FC03DA00FC04DA80FC05DB00FC06D39
:102B7C00B80FC07DC80FC01FD00FC02FD80FC03FDB
:102B8C00E00FC04FE80FC05FF00FC06FF80FC07FB1
:102B9C001010082018100830201008402810085079
:102BAC0030100860381008704810081250100822B5
:102BBC0058100832601008426810085270100862F1
:102BCC007810087288100814901008249810083493
:102BDC00A0100844A8100854B0100864B810087469
:102BEC00C8100816D0100826D8100836E010084671
:102BFC00E8100856F0100866F81008760811081846
:102C0C0010110828181108382011084828110858E4
:102C1C0030110868381108784811081A5011082A20
:102C2C005811083A6011084A6811085A7011086A5C
:102C3C007811087A8811081C9011082C9811083CFE
:102C4C00A011084CA811085CB011086CB811087CD4
:102C5C00C811081ED011082ED811083EE011084EDC
:102C6C00E811085EF011086EF811087E1012482069
:102C7C001812483020124840281248503012486030
:102C8C00381248705012482258124832601248428A
:102C9C0068124852701248627812487288124814AE
:102CAC009012482498124834A0124844A812485450
:102CBC00B0124864B8124874C8124816D01248268C
:102CCC00D8124836E0124846E8124856F0124866C8
:102CDC00F812487608134818101348281813483867
:102CEC00201348482813485830134868381348783C
:102CFC004813481A5013482A5813483A6013484A44
:102D0C006813485A7013486A7813487A8813481C19
:102D1C009013482C9813483CA013484CA813485CBB
:102D2C00B013486CB813487CC813481ED013482EF7
:102D3C00D813483EE013484EE813485EF013486E33
:102D4C00F813487E101488201814883020148840FA
:102D5C0028148850301488603814887050148822D5
:102D6C00581488326014884268148852701488622F
:102D7C00781488729014882498148834A014884489
:102D8C00A8148854B0148864B8148874C8148816AD
:102D9C00D0148826D8148836E0148846E81488564F
:102DAC00F0148866F8148876081588181015882889
:102DBC0018158838201588482815885830158868C3
:102DCC00381588784815881A5015882A5815883A65
:102DDC006015884A6815885A7015886A7815887A3B
:102DEC008815881C9015882C9815883CA015884C43
:102DFC00A815885CB015886CB815887CC815881E19
:102E0C00D015882ED815883EE015884EE815885EBA
:102E1C00F015886EF815887E1016C8201816C83064
:102E2C002016C8402816C8503016C8603816C8700E
:102E3C005016C8225816C8326016C8426816C852B6
:102E4C007016C8627816C8729016C8249816C834C2
:102E5C00A016C844A816C854B016C864B816C874CE
:102E6C00D016C826D816C836E016C846E816C85676
:102E7C00F016C866F816C8760817C8181017C828B0
:102E8C001817C8382017C8482817C8583017C868EA
:102E9C003817C8784817C81A5017C82A5817C83A8C
:102EAC006017C84A6817C85A7017C86A7817C87A62
:102EBC008817C81C9017C82C9817C83CA017C84C6A
:102ECC00A817C85CB017C86CB817C87CC817C81E40
:102EDC00D017C82ED817C83EE017C84EE817C85EE2
:102EEC00F017C86EF817C87E10180821181808318A
:102EFC002018084128180851301808613818087132
:102F0C0050180823581808336018084368180853D9
:102F1C0070180863781808739018082598180835E5
:102F2C00A0180845A8180855B0180865B8180875F1
:102F3C00D0180827D8180837E0180847E818085799
:102F4C00F0180867F81808771019082918190839A3
:102F5C0020190849281908593019086938190879AD
:102F6C004819081B5019082B5819083B6019084BB5
:102F7C006819085B7019086B7819087B8819081D8B
:102F8C009019082D9819083DA019084DA819085D2D
:102F9C00B019086DB819087DC819081FD019082F69
:102FAC00D819083FE019084FE819085FF019086FA5
:102FBC00F819087F101A4821181A4831201A48416C
:102FCC00281A4851301A4861381A4871501A482347
:102FDC00581A4833601A4843681A4853701A4863A1
:102FEC00781A4873901A4825981A4835A01A4845FB
:102FFC00A81A4855B01A4865B81A4875D01A482707
:10300C00D81A4837E01A4847E81A4857F01A486760
:10301C00F81A4877101B4829181B4839201B4849B7
:10302C00281B4859301B4869381B4879501B482BC2
:10303C00581B483B601B484B681B485B701B486B1C
:10304C00781B487B881B481D901B482D981B483DBE
:10305C00A01B484DA81B485DB01B486DB81B487D94
:10306C00C81B481FD01B482FD81B483FE01B484F9C
:10307C00E81B485FF01B486FF81B487F101C882129
:10308C00181C8831201C8841281C8851301C8861F0
:10309C00381C8871501C8823581C8833601C88434A
:1030AC00681C8853701C8863781C8873901C882556
:1030BC00981C8835A01C8845A81C8855B01C8865B0
:1030CC00B81C8875D01C8827D81C8837E01C88470A
:1030DC00E81C8857F01C8867F81C8877101D882915
:1030EC00181D8839201D8849281D8859301D88696C
:1030FC00381D8879501D882B581D883B601D884BC6
:10310C00681D885B701D886B781D887B901D882DD1
:10311C00981D883DA01D884DA81D885DB01D886D2B
:10312C00B81D887DC81D881FD01D882FD81D883FCD
:10313C00E01D884FE81D885FF01D886FF81D887FA3
:10314C00101EC821181EC831201EC841281EC85187
:10315C00301EC861381EC871501EC823581EC83393
:10316C00601EC843681EC853701EC863781EC8739F
:10317C00901EC825981EC835A01EC845A81EC85547
:10318C00B01EC865B81EC875D01EC827D81EC83753
:10319C00E01EC847E81EC857F01EC867F81EC8775F
:1031AC00101FC829181FC839201FC849281FC85903
:1031BC00301FC869381FC879501FC82B581FC83B0F
:1031CC00601FC84B681FC85B701FC86B781FC87B1B
:1031DC00901FC82D981FC83DA01FC84DA81FC85DC3
:1031EC00B01FC86DB81FC87DD01FC82FD81FC83FCF
:1031FC00E01FC84FE81FC85FF01FC86FF81FC87FDB
:10320C001820103020201040282010503020106042
:10321C00382010705020102258201032602010429C
:10322C0068201052702010627820107290201024A8
:10323C0098201034A0201044A8201054B020106402
:10324C00B8201074D0201026D8201036E02010465C
:10325C00E8201056F0201066F82010761021102867
:10326C0018211038202110482821105830211068BE
:10327C00382110785021102A5821103A6021104A18
:10328C006821105A7021106A7821107A9021102C24
:10329C009821103CA021104CA821105CB021106C7E
:1032AC00B821107CD021102ED821103EE021104ED8
:1032BC00E821105EF021106EF821107E182250309B
:1032CC00202250402822505030225060382250701A
:1032DC005822503260225042682250527022506262
:1032EC00782250729022502498225034A0225044BC
:1032FC00A8225054B0225064B8225074D0225026C8
:10330C00D8225036E0225046E8225056F022506621
:10331C00F822507610235028182350382023504878
:10332C002823505830235068382350785023502A83
:10333C005823503A6023504A6823505A7023506ADD
:10334C007823507A9023502C9823503CA023504C37
:10335C00A823505CB023506CB823507CD023502E43
:10336C00D823503EE023504EE823505EF023506E9D
:10337C00F823507E1824903020249040282490501C
:10338C0030249060382490705824903260249042FD
:10339C00682490527024906278249072982490340F
:1033AC00A0249044A8249054B0249064B824907421
:1033BC00D0249026D8249036E0249046E8249056C9
:1033CC00F0249066F82490761025902818259038D3
:1033DC0020259048282590583025906838259078DD
:1033EC005025902A5825903A6025904A6825905A85
:1033FC007025906A7825907A9025902C9825903C91
:10340C00A025904CA825905CB025906CB825907C9C
:10341C00D025902ED825903EE025904EE825905E44
:10342C00F025906EF825907E1826D0302026D040BE
:10343C002826D0503026D0603826D0705826D0326E
:10344C006026D0426826D0527026D0627826D07280
:10345C009826D034A026D044A826D054B026D064C8
:10346C00B826D074D826D036E026D046E826D056DA
:10347C00F026D066F826D0761027D0281827D0381A
:10348C002027D0482827D0583027D0683827D07824
:10349C005027D02A5827D03A6027D04A6827D05ACC
:1034AC007027D06A7827D07A9027D02C9827D03CD8
:1034BC00A027D04CA827D05CB027D06CB827D07CE4
:1034CC00D027D02ED827D03EE027D04EE827D05E8C
:1034DC00F027D06EF827D07E182810312028104104
:1034EC0028281051302810613828107158281033B2
:1034FC0060281043682810537028106378281073C4
:10350C0098281035A0281045A8281055B02810650B
:10351C00B8281075D8281037E0281047E82810571D
:10352C00F0281067F828107718291039202910492D
:10353C002829105930291069382910795029102B55
:10354C005829103B6029104B6829105B7029106BAF
:10355C007829107B9029102D9829103DA029104D09
:10356C00A829105DB029106DB829107DD029102F15
:10357C00D829103FE029104FE829105FF029106F6F
:10358C00F829107F182A5031202A5041282A5051EE
:10359C00302A5061382A5071582A5033602A5043CF
:1035AC00682A5053702A5063782A5073982A5035E1
:1035BC00A02A5045A82A5055B02A5065B82A5075F3
:1035CC00D82A5037E02A5047E82A5057F02A50673B
:1035DC00F82A5077182B5039202B5049282B50594A
:1035EC00302B5069382B5079582B503B602B504B5B
:1035FC00682B505B702B506B782B507B902B502D85
:10360C00982B503DA02B504DA82B505DB02B506DDE
:10361C00B82B507DD02B502FD82B503FE02B504F38
:10362C00E82B505FF02B506FF82B507F182C9031FB
:10363C00202C9041282C9051302C9061382C90717A
:10364C00582C9033602C9043682C9053702C9063C2
:10365C00782C9073982C9035A02C9045A82C9055D4
:10366C00B02C9065B82C9075D82C9037E02C9047E6
:10367C00E82C9057F02C9067F82C9077182D9039F7
:10368C00202D9049282D9059302D9069382D907906
:10369C00582D903B602D904B682D905B702D906B4E
:1036AC00782D907B982D903DA02D904DA82D905D60
:1036BC00B02D906DB82D907DD02D902FD82D903FA2
:1036CC00E02D904FE82D905FF02D906FF82D907FAE
:1036DC00182ED031202ED041282ED051302ED06132
:1036EC00382ED071582ED033602ED043682ED05344
:1036FC00702ED063782ED073982ED035A02ED04556
:10370C00A82ED055B02ED065B82ED075D82ED03767
:10371C00E02ED047E82ED057F02ED067F82ED07779
:10372C00182FD039202FD049282FD059302FD069BD
:10373C00382FD079582FD03B602FD04B682FD05BCF
:10374C00702FD06B782FD07B982FD03DA02FD04DE1
:10375C00A82FD05DB02FD06DB82FD07DD82FD03FF3
:10376C00E02FD04FE82FD05FF02FD06FF82FD07F05
:10377C00203018402830185030301860383018700D
:10378C005830183260301842683018527030186255
:10379C007830187298301834A0301844A830185467
:1037AC00B0301864B8301874D8301836E030184679
:1037BC00E8301856F0301866F8301876183118388A
:1037CC002031184828311858303118683831187899
:1037DC005831183A6031184A6831185A7031186AE1
:1037EC007831187A9831183CA031184CA831185CF3
:1037FC00B031186CB831187CD831183EE031184E05
:10380C00E831185EF031186EF831187E20325840CD
:10381C002832585030325860383258706032584222
:10382C006832585270325862783258729832583422
:10383C00A0325844A8325854B0325864B832587434
:10384C00D8325836E0325846E8325856F03258667C
:10385C00F83258761833583820335848283358588B
:10386C0030335868383358785833583A6033584A9C
:10387C006833585A7033586A7833587A9833583CAE
:10388C00A033584CA833585CB033586CB833587CC0
:10389C00D833583EE033584EE833585EF033586E08
:1038AC00F833587E2034984028349850303498603F
:1038BC0038349870603498426834985270349862F6
:1038CC0078349872A0349844A8349854B0349864DE
:1038DC00B8349874D8349836E0349846E83498560E
:1038EC00F0349866F834987618359838203598481E
:1038FC002835985830359868383598785835983A2E
:10390C006035984A6835985A7035986A7835987A3F
:10391C009835983CA035984CA835985CB035986C87
:10392C00B835987CD835983EE035984EE835985E99
:10393C00F035986EF835987E2036D8402836D85019
:10394C003036D8603836D8706036D8426836D8529F
:10395C007036D8627836D872A036D844A836D85487
:10396C00B036D864B836D874E036D846E836D8566F
:10397C00F036D866F836D8761837D8382037D84885
:10398C002837D8583037D8683837D8785837D83A95
:10399C006037D84A6837D85A7037D86A7837D87AA7
:1039AC009837D83CA037D84CA837D85CB037D86CEF
:1039BC00B837D87CD837D83EE037D84EE837D85E01
:1039CC00F037D86EF837D87E20381841283818517F
:1039DC003038186138381871603818436838185303
:1039EC007038186378381873A0381845A8381855EB
:1039FC00B0381865B8381875E0381847E8381857D3
:103A0C00F0381867F83818772039184928391859B8
:103A1C0030391869383918795839183B6039184BCE
:103A2C006839185B7039186B7839187B9839183DE0
:103A3C00A039184DA839185DB039186DB839187DF2
:103A4C00D839183FE039184FE839185FF039186F3A
:103A5C00F839187F203A5841283A5851303A586171
:103A6C00383A5871603A5843683A5853703A586328
:103A7C00783A5873A03A5845A83A5855B03A586510
:103A8C00B83A5875E03A5847E83A5857F03A5867F8
:103A9C00F83A5877203B5849283B5859303B5869DD
:103AAC00383B5879603B584B683B585B703B586BC4
:103ABC00783B587B983B583DA03B584DA83B585DF4
:103ACC00B03B586DB83B587DD83B583FE03B584F06
:103ADC00E83B585FF03B586FF83B587F203C9841CF
:103AEC00283C9851303C9861383C9871603C984324
:103AFC00683C9853703C9863783C9873A03C98450C
:103B0C00A83C9855B03C9865B83C9875E03C9847F3
:103B1C00E83C9857F03C9867F83C9877203D9849DA
:103B2C00283D9859303D9869383D9879603D984BBF
:103B3C00683D985B703D986B783D987BA03D984DA7
:103B4C00A83D985DB03D986DB83D987DD83D983FA7
:103B5C00E03D984FE83D985FF03D986FF83D987FB9
:103B6C00203ED841283ED851303ED861383ED871DD
:103B7C00603ED843683ED853703ED863783ED873C5
:103B8C00A03ED845A83ED855B03ED865B83ED875AD
:103B9C00E03ED847E83ED857F03ED867F83ED87795
:103BAC00203FD849283FD859303FD869383FD87979
:103BBC00603FD84B683FD85B703FD86B783FD87B61
:103BCC00A03FD84DA83FD85DB03FD86DB83FD87D49
:103BDC00E03FD84FE83FD85FF03FD86FF83FD87F31
:103BEC0028402050304020603840207060402042F7
:103BFC00684020527040206278402072A0402044DF
:103C0C00A8402054B0402064B8402074E0402046C6
:103C1C00E8402056F0402066F840207620412048AD
:103C2C002841205830412068384120786041204A92
:103C3C006841205A7041206A7841207AA041204C7A
:103C4C00A841205CB041206CB841207CE041204E62
:103C5C00E841205EF041206EF841207E2842605001
:103C6C0030426060384260706842605270426062FC
:103C7C0078426072A0426044A8426054B0426064D2
:103C8C00B8426074E0426046E8426056F0426066BA
:103C9C00F84260762043604828436058304360689F
:103CAC00384360786043604A6843605A7043606A86
:103CBC007843607AA043604CA843605CB043606C6E
:103CCC00B843607CE043604EE843605EF043606E56
:103CDC00F843607E2844A0503044A0603844A07063
:103CEC006844A0527044A0627844A072A844A054C6
:103CFC00B044A064B844A074E044A046E844A05684
:103D0C00F044A066F844A0762045A0482845A05869
:103D1C003045A0683845A0786045A04A6845A05A4F
:103D2C007045A06A7845A07AA045A04CA845A05C37
:103D3C00B045A06CB845A07CE045A04EE845A05E1F
:103D4C00F045A06EF845A07E2846E0503046E06075
:103D5C003846E0706846E0527046E0627846E072A1
:103D6C00A846E054B046E064B846E074E846E05635
:103D7C00F046E066F846E0762047E0482847E058F1
:103D8C003047E0683847E0786047E04A6847E05AD7
:103D9C007047E06A7847E07AA047E04CA847E05CBF
:103DAC00B047E06CB847E07CE047E04EE847E05EA7
:103DBC00F047E06EF847E07E2848205130482061FB
:103DCC003848207168482053704820637848207325
:103DDC00A8482055B0482065B8482075E8482057B9
:103DEC00F0482067F8482077284920593049206945
:103DFC00384920796049204B6849205B7049206B19
:103E0C007849207BA049204DA849205DB049206D00
:103E1C00B849207DE049204FE849205FF049206FE8
:103E2C00F849207F284A6051304A6061384A6071F5
:103E3C00684A6053704A6063784A6073A84A605558
:103E4C00B04A6065B84A6075E84A6057F04A6067E6
:103E5C00F84A6077284B6059304B6069384B607971
:103E6C00684B605B704B606B784B607BA04B604D1C
:103E7C00A84B605DB04B606DB84B607DE04B604F04
:103E8C00E84B605FF04B606FF84B607F284CA051A3
:103E9C00304CA061384CA071684CA053704CA0639E
:103EAC00784CA073A84CA055B04CA065B84CA0752C
:103EBC00E84CA057F04CA067F84CA077284DA059BF
:103ECC00304DA069384DA079684DA05B704DA06B4A
:103EDC00784DA07BA84DA05DB04DA06DB84DA07DD8
:103EEC00E04DA04FE84DA05FF04DA06FF84DA07FC6
:103EFC00284EE051304EE061384EE071684EE05390
:103F0C00704EE063784EE073A84EE055B04EE0651D
:103F1C00B84EE075E84EE057F04EE067F84EE077AB
:103F2C00284FE059304FE069384FE079684FE05B3B
:103F3C00704FE06B784FE07BA84FE05DB04FE06DC9
:103F4C00B84FE07DE84FE05FF04FE06FF84FE07F57
:103F5C0030502860385028706850285270502862B1
:103F6C0078502872A8502854B0502864B85028743F
:103F7C00E8502856F0502866F850287628512858D2
:103F8C0030512868385128786851285A7051286A5D
:103F9C007851287AA851285CB051286CB851287CEB
:103FAC00E851285EF051286EF851287E3052686036
:103FBC00385268707052686278526872A8526854AD
:103FCC00B0526864B8526874E8526856F052686629
:103FDC00F8526876285368583053686838536878B4
:103FEC006853685A7053686A7853687AA853685C47
:103FFC00B053686CB853687CE853685EF053686ED5
:10400C00F853687E3054A8603854A8707054A86275
:10401C007854A872B054A864B854A874E854A8563C
:10402C00F054A866F854A8762855A8583055A868B6
:10403C003855A8786855A85A7055A86A7855A87A42
:10404C00A855A85CB055A86CB855A87CE855A85ED6
:10405C00F055A86EF855A87E3056E8603856E870D2
:10406C007056E8627856E872B056E864B856E87450
:10407C00F056E866F856E8762857E8583057E8685E
:10408C003857E8786857E85A7057E86A7857E87AEA
:10409C00A857E85CB057E86CB857E87CE857E85E7E
:1040AC00F057E86EF857E87E305828613858287178
:1040BC007058286378582873B0582865B8582875F4
:1040CC00F0582867F85828773059286938592879D2
:1040DC006859285B7059286B7859287BA859285D3A
:1040EC00B059286DB859287DE859285FF059286FC8
:1040FC00F859287F305A6861385A6871705A686369
:10410C00785A6873B05A6865B85A6875F05A686717
:10411C00F85A6877305B6869385B6879705B686BF4
:10412C00785B687BA85B685DB05B686DB85B687D2D
:10413C00E85B685FF05B686FF85B687F305CA86178
:10414C00385CA871705CA863785CA873B05CA865D7
:10415C00B85CA875F05CA867F85CA877305DA869B6
:10416C00385DA879705DA86B785DA87BB05DA86D93
:10417C00B85DA87DE85DA85FF05DA86FF85DA87FCD
:10418C00305EE861385EE871705EE863785EE87313
:10419C00B05EE865B85EE875F05EE867F85EE877F3
:1041AC00305FE869385FE879705FE86B785FE87BCF
:1041BC00B05FE86DB85FE87DF05FE86FF85FE87FAF
:1041CC00386030707060306278603072B06030642B
:1041DC00B8603074F0603066F8603076306130680A
:1041EC00386130787061306A7861307AB061306CE7
:1041FC00B861307CF061306EF861307E386270707E
:10420C0078627072B0627064B8627074F0627066DA
:10421C00F862707630637068386370787063706AB7
:10422C007863707AB063706CB863707CF063706E96
:10423C00F863707E3864B0707864B072B864B0742F
:10424C00F064B066F864B0763065B0683865B07804
:10425C007065B06A7865B07AB065B06CB865B07CE2
:10426C00F065B06EF865B07E3866F0707866F07206
:10427C00B866F074F866F0763067F0683867F078F6
:10428C007067F06A7867F07AB067F06CB867F07CAA
:10429C00F067F06EF867F07E3868307178683073CC
:1042AC00B8683075F8683077386930797069306B78
:1042BC007869307BB069306DB869307DF069306FEA
:1042CC00F869307F386A7071786A7073B86A707583
:1042DC00F86A7077386B7079786B707BB06B706D37
:1042EC00B86B707DF06B706FF86B707F386CB07161
:1042FC00786CB073B86CB075F86CB077386DB07909
:10430C00786DB07BB86DB07DF06DB06FF86DB07F2F
:10431C00386EF071786EF073B86EF075F86EF077E9
:10432C00386FF079786FF07BB86FF07DF86FF07FB5
:10433C0078703872B8703874F8703876387138789C
:10434C007871387AB871387CF871387EB8727874B4
:10435C00F8727876387378787873787AB873787C62
:10436C00F873787EF874B8763875B8787875B87A4A
:10437C00B875B87CF875B87E3877F8787877F87AAD
:10438C00B877F87CF877F87E7879387BB879387D0F
:10439C00F879387FB87B787DF87B787FF87DB87FAB
:1043AC000000803F00000000ECFF7F3FD40FC93AB3
:1043BC00B1FF7F3FC70F493B4EFF7F3FC1CB963BC1
:1043CC00C4FE7F3F890FC93B13FE7F3F3053FB3B3D
:1043DC0039FD7F3F59CB163C39FC7F3F02ED2F3C1A
:1043EC0011FB7F3F900E493CC1F97F3F0030623C8E
:1043FC004AF87F3F4B517B3CACF67F3F38398A3CC7
:10440C00E6F47F3FB6C9963CF8F27F3F1C5AA33CBA
:10441C00E3F07F3F69EAAF3CA7EE7F3F9B7ABC3C61
:10442C0043EC7F3FB00AC93CB8E97F3FA69AD53C24
:10443C0005E77F3F7B2AE23C2BE47F3F2DBAEE3C25
:10444C0029E17F3FB949FB3C00DE7F3F90EC033D07
:10445C00AFDA7F3F2F340A3D37D77F3FB87B103D13
:10446C0098D37F3F2CC3163DD1CF7F3F880A1D3D8B
:10447C00E2CB7F3FCC51233DCCC77F3FF698293D03
:10448C008FC37F3F07E02F3D2ABF7F3FFC26363D81
:10449C009EBA7F3FD56D3C3DEAB57F3F91B4423D1E
:1044AC000FB17F3F2FFB483D0DAC7F3FAF414F3DE0
:1044BC00E3A67F3F0E88553D91A17F3F4CCE5B3DDF
:1044CC00189C7F3F6814623D78967F3F625A683D26
:1044DC00B1907F3F38A06E3DC28A7F3FE9E5743DC5
:1044EC00AB847F3F742B7B3D6D7E7F3F6CB8803DF2
:1044FC0008787F3F0ADB833D7B717F3F94FD863DCF
:10450C00C76A7F3F0A208A3DEC637F3F6A428D3D3C
:10451C00E95C7F3FB464903DBF557F3FE786933D98
:10452C006D4E7F3F05A9963DF4467F3F0ACB993DE2
:10453C00543F7F3FF9EC9C3D8D377F3FCF0EA03D24
:10454C009D2F7F3F8C30A33D87277F3F3052A63D68
:10455C00491F7F3FBA73A93DE4167F3F2B95AC3DB5
:10456C00580E7F3F80B6AF3DA4057F3FBBD7B23D11
:10457C00C9FC7E3FDAF8B53DC7F37E3FDD19B93D86
:10458C009DEA7E3FC33ABC3D4CE17E3F8D5BBF3D17
:10459C00D4D77E3F397CC23D34CE7E3FC69CC53DD0
:1045AC006DC47E3F36BDC83D7FBA7E3F86DDCB3DB8
:1045BC0069B07E3FB7FDCE3D2DA67E3FC81DD23DD6
:1045CC00C99B7E3FB93DD53D3D917E3F895DD83D30
:1045DC008B867E3F377DDB3DB17B7E3FC49CDE3DD1
:1045EC00B0707E3F2EBCE13D88657E3F76DBE43DBE
:1045FC00385A7E3F9AFAE73DC14E7E3F9A19EB3D01
:10460C0023437E3F7638EE3D5E377E3F2E57F13D9D
:10461C00722B7E3FC075F43D5E1F7E3F2C94F73DA0
:10462C0024137E3F73B2FA3DC2067E3F92D0FD3D0D
:10463C0038FA7D3F4577003E88ED7D3F2E06023EE1
:10464C00B1E07D3F0295033EB2D37D3FC223053ED0
:10465C008CC67D3F6EB2063E40B97D3F0541083E9B
:10466C00CCAB7D3F86CF093E309E7D3FF35D0B3E4C
:10467C006E907D3F4AEC0C3E85827D3F8B7A0E3EE0
:10468C0074747D3FB708103E3D667D3FCC96113E5D
:10469C00DE577D3FCA24133E59497D3FB2B2143ECA
:1046AC00AC3A7D3F8340163ED82B7D3F3DCE173E26
:1046BC00DD1C7D3FE05B193EBC0D7D3F6BE91A3E76
:1046CC0073FE7C3FDE761C3E03EF7C3F38041E3EBF
:1046DC006CDF7C3F7B911F3EAECF7C3FA51E213E05
:1046EC00C9BF7C3FB6AB223EBDAF7C3FAD38243E4C
:1046FC008A9F7C3F8CC5253E318F7C3F5152273E93
:10470C00B07E7C3FFCDE283E086E7C3F8D6B2A3EE3
:10471C003A5D7C3F04F82B3E444C7C3F61842D3E3B
:10472C00283B7C3FA2102F3EE5297C3FC99C303EA4
:10473C007A187C3FD428323EE9067C3FC4B4333E21
:10474C0031F57B3F9840353E53E37B3F50CC363EB2
:10475C004DD17B3FEC57383E20BF7B3F6CE3393E5D
:10476C00CDAC7B3FCF6E3B3E539A7B3F15FA3C3E24
:10477C00B2877B3F3E853E3EEA747B3F4910403E0C
:10478C00FC617B3F379B413EE74E7B3F0726433E18
:10479C00AB3B7B3FB9B0443E48287B3F4D3B463E4C
:1047AC00BE147B3FC2C5473E0E017B3F1850493EAD
:1047BC0037ED7A3F4FDA4A3E3AD97A3F67644C3E3E
:1047CC0016C57A3F60EE4D3ECBB07A3F38784F3EFF
:1047DC00599C7A3FF101513EC1877A3F898B523EF9
:1047EC0002737A3F0115543E1C5E7A3F589E553E2B
:1047FC0010497A3F8F27573EDD337A3FA4B0583E9D
:10480C00841E7A3F97395A3E04097A3F6AC25B3E4E
:10481C005EF3793F1A4B5D3E91DD793FA8D35E3E46
:10482C009DC7793F135C603E83B1793F5CE4613E88
:10483C00439B793F836C633EDC84793F86F4643E12
:10484C004E6E793F667C663E9A57793F2204683EED
:10485C00C040793FBA8B693EBF29793F2F136B3E1D
:10486C009812793F7F9A6C3E4AFB783FAB216E3EA3
:10487C00D6E3783FB2A86F3E3BCC783F942F713E85
:10488C007BB4783F51B6723E939C783FE83C743EC3
:10489C008684783F5AC3753E526C783FA649773E62
:1048AC00F853783FCCCF783E773B783FCB557A3E68
:1048BC00D122783FA4DB7B3E040A783F56617D3ED3
:1048CC0010F1773FE1E67E3EF7D7773F2236803E08
:1048DC00B7BE773FC0F8803E51A5773F4ABB813EBB
:1048EC00C58B773FC07D823E1372773F2240833E5B
:1048FC003A58773F7002843E3C3E773FAAC4843ED0
:10490C001724773FCE86853ECC09773FDF48863E1D
:10491C005BEF763FDA0A873EC4D4763FC1CC873E44
:10492C0007BA763F938E883E249F763F5050893E3F
:10493C001B84763FF8118A3EEC68763F8AD38A3E18
:10494C00974D763F07958B3E1B32763F6E568C3ECD
:10495C007A16763FC0178D3EB3FA753FFCD88D3E64
:10496C00C6DE753F229A8E3EB3C2753F325B8F3ED8
:10497C007BA6753F2C1C903E1C8A753F10DD903E2B
:10498C00976D753FDD9D913EED50753F945E923E67
:10499C001D34753F351F933E2717753FBFDF933E80
:1049AC000BFA743F31A0943EC9DC743F8D60953E88
:1049BC0062BF743FD220963ED5A1743F00E1963E73
:1049CC002284743F17A1973E4966743F1661983E46
:1049DC004B48743FFE20993E272A743FCEE0993E07
:1049EC00DD0B743F86A09A3E6EED733F27609B3EB5
:1049FC00D9CE733FAF1F9C3E1FB0733F20DF9C3E50
:104A0C003F91733F789E9D3E3972733FB85D9E3ED9
:104A1C000E53733FDF1C9F3EBE33733FEEDB9F3E56
:104A2C004714733FE59AA03EACF4723FC259A13EC5
:104A3C00EBD4723F8718A23E04B5723F33D7A23E27
:104A4C00F894723FC595A33EC774723F3F54A43E81
:104A5C007054723F9F12A53EF433723FE5D0A53ED1
:104A6C005213723F128FA63E8CF2713F254DA73E1A
:104A7C009FD1713F1F0BA83E8EB0713FFEC8A83E60
:104A8C00578F713FC486A93EFB6D713F6F44AA3EA0
:104A9C007A4C713F0102AB3ED42A713F77BFAB3EDB
:104AAC000809713FD47CAC3E17E7703F153AAD3E18
:104ABC0002C5703F3CF7AD3EC6A2703F49B4AE3E56
:104ACC006680703F3A71AF3EE15D703F102EB03E94
:104ADC00373B703FCBEAB03E6718703F6BA7B13ED7
:104AEC0073F56F3FEF63B23E5AD26F3F5820B33E1F
:104AFC001BAF6F3FA5DCB33EB88B6F3FD698B43E6F
:104B0C0030686F3FEC54B53E83446F3FE610B63EC1
:104B1C00B0206F3FC3CCB63EBAFC6E3F8488B73E24
:104B2C009ED86E3F2A44B83E5DB46E3FB2FFB83E8D
:104B3C00F88F6E3F1EBBB93E6D6B6E3F6E76BA3E04
:104B4C00BE466E3FA031BB3EEB216E3FB6ECBB3E8A
:104B5C00F2FC6D3FAFA7BC3ED5D76D3F8B62BD3E1F
:104B6C0093B26D3F4A1DBE3E2D8D6D3FEBD7BE3EC1
:104B7C00A1676D3F6F92BF3EF2416D3FD54CC03E79
:104B8C001D1C6D3F1E07C13E24F66C3F48C1C13E43
:104B9C0007D06C3F557BC23EC5A96C3F4435C33E24
:104BAC005E836C3F15EFC33ED45C6C3FC8A8C43E1B
:104BBC0024366C3F5C62C53E500F6C3FD21BC63E28
:104BCC0058E86B3F29D5C63E3BC16B3F628EC73E52
:104BDC00FB996B3F7C47C83E95726B3F7700C93E93
:104BEC000C4B6B3F53B9C93E5E236B3F1072CA3EF0
:104BFC008CFB6A3FAE2ACB3E95D36A3F2CE3CB3E6F
:104C0C007BAB6A3F8B9BCC3E3C836A3FCA53CD3E09
:104C1C00D95A6A3FEA0BCE3E52326A3FEAC3CE3EC5
:104C2C00A7096A3FCA7BCF3ED7E0693F8A33D03EA3
:104C3C00E4B7693F2AEBD03ECC8E693FAAA2D13EA5
:104C4C009165693F095AD23E323C693F4811D33EC7
:104C5C00AE12693F67C8D33E07E9683F647FD43E14
:104C6C003CBF683F4136D53E4C95683FFDECD53E88
:104C7C00396B683F99A3D63E0341683F135AD73E20
:104C8C00A816683F6B10D83E2AEC673FA3C6D83EE7
:104C9C0087C1673FB97CD93EC196673FAD32DA3EDA
:104CAC00D86B673F80E8DA3ECA40673F319EDB3EF7
:104CBC009915673FC153DC3E45EA663F2E09DD3E40
:104CCC00CCBE663F79BEDD3E3093663FA273DE3EBE
:104CDC007167663FA928DF3E8E3B663F8DDDDF3E68
:104CEC00880F663F4F92E03E5EE3653FEE46E13E45
:104CFC0010B7653F6AFBE13EA08A653FC4AFE23E58
:104D0C000B5E653FFA63E33E5431653F0E18E43E9B
:104D1C007904653FFECBE43E7BD7643FCB7FE53E19
:104D2C0059AA643F7533E63E147D643FFBE6E63ECC
:104D3C00AC4F643F5D9AE73E2122643F9C4DE83EB8
:104D4C0073F4633FB700E93EA1C6633FAEB3E93EDF
:104D5C00AC98633F8166EA3E956A633F3019EB3E3F
:104D6C005A3C633FBBCBEB3EFC0D633F217EEC3EDC
:104D7C007BDF623F6330ED3ED7B0623F80E2ED3EB9
:104D8C001082623F7994EE3E2653623F4C46EF3ED2
:104D9C001A24623FFBF7EF3EEAF4613F85A9F03E2F
:104DAC0098C5613FEA5AF13E2296613F290CF23ECA
:104DBC008A66613F43BDF23ED036613F386EF33EAA
:104DCC00F206613F071FF43EF2D6603FB1CFF43ECE
:104DDC00CFA6603F3580F53E8976603F9330F63E36
:104DEC002146603FCBE0F63E9615603FDC90F73EE7
:104DFC00E9E45F3FC840F83E19B45F3F8EF0F83EDF
:104E0C0027835F3F2DA0F93E12525F3FA54FFA3E1C
:104E1C00DB205F3FF7FEFA3E81EF5E3F22AEFB3EAA
:104E2C0005BE5E3F275DFC3E678C5E3F040CFD3E7D
:104E3C00A65A5E3FBBBAFD3EC3285E3F4A69FE3EA2
:104E4C00BEF65D3FB217FF3E97C45D3FF3C5FF3E14
:104E5C004D925D3F063A003FE15F5D3FFF90003FA2
:104E6C00532D5D3FE4E7003FA3FA5C3FB53E013FA5
:104E7C00D1C75C3F7395013FDD945C3F1CEC013F57
:104E8C00C7615C3FB142023F8E2E5C3F3299023FBC
:104E9C0034FB5B3F9FEF023FB8C75B3FF845033FD6
:104EAC001A945B3F3D9C033F5A605B3F6DF2033F9E
:104EBC00792C5B3F8948043F75F85A3F919E043F1B
:104ECC0050C45A3F84F4043F09905A3F624A053F4C
:104EDC00A05B5A3F2CA0053F16275A3FE2F5053F31
:104EEC006AF2593F824B063F9CBD593F0EA1063FCB
:104EFC00AD88593F86F6063F9C53593FE84B073F18
:104F0C006A1E593F36A1073F17E9583F6FF6073F16
:104F1C00A1B3583F924B083F0B7E583FA1A0083FCE
:104F2C005348583F9BF5083F7912583F7F4A093F39
:104F3C007FDC573F4E9F093F63A6573F09F4093F5B
:104F4C002670573FAD480A3FC739573F3D9D0A3F32
:104F5C004803573FB7F10A3FA7CC563F1C460B3FBF
:104F6C00E595563F6B9A0B3F025F563FA5EE0B3F04
:104F7C00FE27563FC9420C3FD9F0553FD7960C3F00
:104F8C0093B9553FD0EA0C3F2C82553FB33E0D3FB1
:104F9C00A44A553F81920D3FFB12553F38E60D3F19
:104FAC0031DB543FDA390E3F47A3543F658D0E3F3A
:104FBC003B6B543FDBE00E3F0F33543F3B340F3F12
:104FCC00C3FA533F84870F3F55C2533FB8DA0F3FA4
:104FDC00C789533FD52D103F1851533FDC80103FEC
:104FEC004918533FCDD3103F59DF523FA726113FED
:104FFC0049A6523F6B79113F186D523F19CC113FA6
:10500C00C633523FB01E123F54FA513F3071123F1B
:10501C00C2C0513F9AC3123F1087513FEE15133F48
:10502C003D4D513F2A68133F4A13513F50BA133F2D
:10503C0037D9503F5F0C143F039F503F585E143FCD
:10504C00AF64503F39B0143F3B2A503F0402153F28
:10505C00A8EF4F3FB753153FF4B44F3F54A5153F3E
:10506C001F7A4F3FD9F6153F2B3F4F3F4748163F0E
:10507C0017044F3F9F99163FE4C84E3FDFEA163F97
:10508C00908D4E3F073C173F1C524E3F188D173FDB
:10509C0089164E3F12DE173FD5DA4D3FF52E183FDD
:1050AC00029F4D3FC07F183F10634D3F73D0183F98
:1050BC00FD264D3F0F21193FCBEA4C3F9471193F10
:1050CC0079AE4C3F00C2193F08724C3F55121A3F43
:1050DC0078354C3F93621A3FC7F84B3FB8B21A3F32
:1050EC00F8BB4B3FC6021B3F097F4B3FBB521B3FDC
:1050FC00FA414B3F99A21B3FCC044B3F5FF21B3F45
:10510C007FC74A3F0C421C3F138A4A3FA2911C3F67
:10511C00874C4A3F1FE11C3FDC0E4A3F84301D3F49
:10512C0012D1493FD17F1D3F2993493F06CF1D3FE7
:10513C002155493F221E1E3FFA16493F266D1E3F40
:10514C00B3D8483F12BC1E3F4E9A483FE50A1F3F5A
:10515C00CA5B483F9F591F3F271D483F41A81F3F2F
:10516C0065DE473FCBF61F3F849F473F3B45203FC3
:10517C008560473F9393203F6721473FD2E1203F13
:10518C002AE2463FF92F213FCEA2463F067E213F21
:10519C005463463FFBCB213FBB23463FD719223FED
:1051AC0003E4453F9967223F2DA4453F43B5223F79
:1051BC003964453FD302233F2624453F4B50233FC0
:1051CC00F5E3443FA99D233FA5A3443FEEEA233FCB
:1051DC003763443F1A38243FAB22443F2C85243F8D
:1051EC0000E2433F25D2243F38A1433F041F253F13
:1051FC005160433FCB6B253F4C1F433F77B8253F56
:10520C0029DE423F0A05263FE89C423F8451263F57
:10521C00895B423FE39D263F0B1A423F2AEA263F19
:10522C0070D8413F5636273FB796413F6882273F9B
:10523C00E154413F61CE273FEC12413F401A283FD9
:10524C00DAD0403F0566283FA98E403FB0B1283FD9
:10525C005C4C403F41FD283FF009403FB848293F96
:10526C0067C73F3F1594293FC0843F3F57DF293F15
:10527C00FC413F3F802A2A3F1BFF3E3F8E752A3F51
:10528C001BBC3E3F82C02A3FFF783E3F5B0B2B3F4F
:10529C00C5353E3F1B562B3F6EF23D3FBFA02B3F0B
:1052AC00F9AE3D3F4AEB2B3F676B3D3FB9352C3F89
:1052BC00B8273D3F0F802C3FECE33C3F49CA2C3FC5
:1052CC0003A03C3F69142D3FFC5B3C3F6F5E2D3FC0
:1052DC00D9173C3F59A82D3F98D33B3F29F22D3F7E
:1052EC003B8F3B3FDE3B2E3FC14A3B3F78852E3FF9
:1052FC0029063B3FF7CE2E3F75C13A3F5B182F3F37
:10530C00A47C3A3FA5612F3FB7373A3FD3AA2F3F32
:10531C00ACF2393FE6F32F3F85AD393FDE3C303FF1
:10532C004268393FBB85303FE122393F7CCE303F6C
:10533C0065DD383F2217313FCB97383FAD5F313FAA
:10534C001652383F1DA8313F430C383F71F0313FA6
:10535C0055C6373FAA38323F4A80373FC780323F65
:10536C00233A373FC9C8323FDFF3363FAF10333FE4
:10537C007FAD363F7A58333F0467363F29A0333F21
:10538C006C20363FBCE7333FB8D9353F342F343F20
:10539C00E792353F8F76343FFB4B353FCFBD343FE3
:1053AC00F304353FF304353FCFBD343FFB4B353F62
:1053BC008F76343FE792353F342F343FB8D9353FA1
:1053CC00BCE7333F6C20363F29A0333F0467363FA0
:1053DC007A58333F7FAD363FAF10333FDFF3363F64
:1053EC00C9C8323F233A373FC780323F4A80373FE4
:1053FC00AA38323F55C6373F71F0313F430C383F26
:10540C001DA8313F1652383FAD5F313FCB97383F27
:10541C002217313F65DD383F7CCE303FE122393FEA
:10542C00BB85303F4268393FDE3C303F85AD393F6C
:10543C00E6F32F3FACF2393FD3AA2F3FB7373A3FB1
:10544C00A5612F3FA47C3A3F5B182F3F75C13A3FB3
:10545C00F7CE2E3F29063B3F78852E3FC14A3B3F76
:10546C00DE3B2E3F3B8F3B3F29F22D3F98D33B3FFA
:10547C0059A82D3FD9173C3F6F5E2D3FFC5B3C3F3D
:10548C0069142D3F03A03C3F49CA2C3FECE33C3F41
:10549C000F802C3FB8273D3FB9352C3F676B3D3F04
:1054AC004AEB2B3FF9AE3D3FBFA02B3F6EF23D3F89
:1054BC001B562B3FC5353E3F5B0B2B3FFF783E3FCA
:1054CC0082C02A3F1BBC3E3F8E752A3F1BFF3E3FCE
:1054DC00802A2A3FFC413F3F57DF293FC0843F3F92
:1054EC001594293F67C73F3FB848293FF009403F13
:1054FC0041FD283F5C4C403FB0B1283FA98E403F56
:10550C000566283FDAD0403F401A283FEC12413F55
:10551C0061CE273FE154413F6882273FB796413F18
:10552C005636273F70D8413F2AEA263F0B1A423F96
:10553C00E39D263F895B423F8451263FE89C423FD6
:10554C000A05263F29DE423F77B8253F4C1F433FD3
:10555C00CB6B253F5160433F041F253F38A1433F90
:10556C0025D2243F00E2433F2C85243FAB22443F0D
:10557C001A38243F3763443FEEEA233FA5A3443F48
:10558C00A99D233FF5E3443F4B50233F2624453F41
:10559C00D302233F3964453F43B5223F2DA4453FF9
:1055AC009967223F03E4453FD719223FBB23463F6F
:1055BC00FBCB213F5463463F067E213FCEA2463FA4
:1055CC00F92F213F2AE2463FD2E1203F6721473F96
:1055DC009393203F8560473F3B45203F849F473F47
:1055EC00CBF61F3F65DE473F41A81F3F271D483FB5
:1055FC009F591F3FCA5B483FE50A1F3F4E9A483FE1
:10560C0012BC1E3FB3D8483F266D1E3FFA16493FC9
:10561C00221E1E3F2155493F06CF1D3F2993493F6E
:10562C00D17F1D3F12D1493F84301D3FDC0E4A3FD4
:10563C001FE11C3F874C4A3FA2911C3F138A4A3FF3
:10564C000C421C3F7FC74A3F5FF21B3FCC044B3FD1
:10565C0099A21B3FFA414B3FBB521B3F097F4B3F6B
:10566C00C6021B3FF8BB4B3FB8B21A3FC7F84B3FC3
:10567C0093621A3F78354C3F55121A3F08724C3FD3
:10568C0000C2193F79AE4C3F9471193FCBEA4C3FA5
:10569C000F21193FFD264D3F73D0183F10634D3F2E
:1056AC00C07F183F029F4D3FF52E183FD5DA4D3F76
:1056BC0012DE173F89164E3F188D173F1C524E3F76
:1056CC00073C173F908D4E3FDFEA163FE4C84E3F34
:1056DC009F99163F17044F3F4748163F2B3F4F3FAC
:1056EC00D9F6153F1F7A4F3F54A5153FF4B44F3FE1
:1056FC00B753153FA8EF4F3F0402153F3B2A503FCD
:10570C0039B0143FAF64503F585E143F039F503F75
:10571C005F0C143F37D9503F50BA133F4A13513FD7
:10572C002A68133F3D4D513FEE15133F1087513FF3
:10573C009AC3123FC2C0513F3071123F54FA513FCD
:10574C00B01E123FC633523F19CC113F186D523F59
:10575C006B79113F49A6523FA726113F59DF523FA3
:10576C00CDD3103F4918533FDC80103F1851533FA5
:10577C00D52D103FC789533FB8DA0F3F55C2533F61
:10578C0084870F3FC3FA533F3B340F3F0F33543FD3
:10579C00DBE00E3F3B6B543F658D0E3F47A3543F00
:1057AC00DA390E3F31DB543F38E60D3FFB12553FE3
:1057BC0081920D3FA44A553FB33E0D3F2C82553F7D
:1057CC00D0EA0C3F93B9553FD7960C3FD9F0553FD3
:1057DC00C9420C3FFE27563FA5EE0B3F025F563FDA
:1057EC006B9A0B3FE595563F1C460B3FA7CC563F9B
:1057FC00B7F10A3F4803573F3D9D0A3FC739573F12
:10580C00AD480A3F2670573F09F4093F63A6573F3E
:10581C004E9F093F7FDC573F7F4A093F7912583F23
:10582C009BF5083F5348583FA1A0083F0B7E583FBB
:10583C00924B083FA1B3583F6FF6073F17E9583F0B
:10584C0036A1073F6A1E593FE84B073F9C53593F0F
:10585C0086F6063FAD88593F0EA1063F9CBD593FC9
:10586C00824B063F6AF2593FE2F5053F16275A3F35
:10587C002CA0053FA05B5A3F624A053F09905A3F56
:10588C0084F4043F50C45A3F919E043F75F85A3F2C
:10589C008948043F792C5B3F6DF2033F5A605B3FB4
:1058AC003D9C033F1A945B3FF845033FB8C75B3FF1
:1058BC009FEF023F34FB5B3F3299023F8E2E5C3FE1
:1058CC00B142023FC7615C3F1CEC013FDD945C3F81
:1058DC007395013FD1C75C3FB53E013FA3FA5C3FD6
:1058EC00E4E7003F532D5D3FFF90003FE15F5D3FDC
:1058FC00063A003F4D925D3FF3C5FF3E97C45D3FB6
:10590C00B217FF3EBEF65D3F4A69FE3EC3285E3FBE
:10591C00BBBAFD3EA65A5E3F040CFD3E678C5E3F53
:10592C00275DFC3E05BE5E3F22AEFB3E81EF5E3F37
:10593C00F7FEFA3EDB205F3FA54FFA3E12525F3F67
:10594C002DA0F93E27835F3F8EF0F83E19B45F3FE0
:10595C00C840F83EE9E45F3FDC90F73E9615603FA7
:10596C00CBE0F63E2146603F9330F63E8976603FB1
:10597C003580F53ECFA6603FB1CFF43EF2D6603F06
:10598C00071FF43EF206613F386EF33ED036613F9E
:10599C0043BDF23E8A66613F290CF23E2296613F7E
:1059AC00EA5AF13E98C5613F85A9F03EEAF4613FA1
:1059BC00FBF7EF3E1A24623F4C46EF3E2653623F04
:1059CC007994EE3E1082623F80E2ED3ED7B0623FAA
:1059DC006330ED3E7BDF623F217EEC3EFC0D633F8E
:1059EC00BBCBEB3E5A3C633F3019EB3E956A633FB1
:1059FC008166EA3EAC98633FAEB3E93EA1C6633F15
:105A0C00B700E93E73F4633F9C4DE83E2122643FAE
:105A1C005D9AE73EAC4F643FFBE6E63E147D643F87
:105A2C007533E63E59AA643FCB7FE53E7BD7643F96
:105A3C00FECBE43E7904653F0E18E43E5431653FDD
:105A4C00FA63E33E0B5E653FC4AFE23EA08A653F5E
:105A5C006AFBE13E10B7653FEE46E13E5EE3653F13
:105A6C004F92E03E880F663F8DDDDF3E8E3B663FFA
:105A7C00A928DF3E7167663FA273DE3E3093663F16
:105A8C0079BEDD3ECCBE663F2E09DD3E45EA663F63
:105A9C00C153DC3E9915673F319EDB3ECA40673FE0
:105AAC0080E8DA3ED86B673FAD32DA3EC196673F8D
:105ABC00B97CD93E87C1673FA3C6D83E2AEC673F65
:105ACC006B10D83EA816683F135AD73E0341683F67
