:020000040800F2
:1000000000000220DD3D0008053D0008073D000816
:10001000093D00080B3D00080D3D000800000000F0
:100020000000000000000000000000000F3D00087C
:10003000113D000800000000133D0008153D0008B8
:100040002D3E00082D3E00082D3E00082D3E0008E4
:100050002D3E00082D3E00082D3E00082D3E0008D4
:100060002D3E0008193D00082D3E0008213D0008E6
:100070002D3E00082D3E00082D3E00082D3E0008B4
:100080002D3E00082D3D00082D3E00082D3E0008A5
:100090002D3E00082D3E00082D3E00082D3E000894
:1000A0002D3E00082D3E00082D3E00082D3E000884
:1000B0002D3E00082D3E00082D3E0008393D000869
:1000C000593D00082D3E00082D3E00082D3E000839
:1000D0002D3E00082D3E00082D3E00082D3E000854
:1000E0002D3E00082D3E00082D3E00082D3E000844
:1000F0002D3E00082D3E00082D3E00082D3E000834
:100100002D3E00082D3E00082D3E00082D3E000823
:100110002D3E00082D3E00082D3E00082D3E000813
:10012000793D00082D3E00082D3E0008853D000861
:100130002D3E00082D3E00082D3E00082D3E0008F3
:100140002D3E00082D3E00082D3E00082D3E0008E3
:100150002D3E00082D3E00082D3E00082D3E0008D3
:100160002D3E00082D3E00082D3E00082D3E0008C3
:100170002D3E00082D3E00082D3E00080000000026
:080180002D3E00082D3E000891
:1001880010B5054C237833B9044B13B10448AFF3C9
:1001980000800123237010BD8400002000000000AF
:1001A800403F000808B5034B1BB103490348AFF3B0
:1001B800008008BD0000000088000020403F0008C3
:1001C80081F0004102E000BF83F0004330B54FEA00
:1001D80041044FEA430594EA050F08BF90EA020F6D
:1001E8001FBF54EA000C55EA020C7FEA645C7FEA00
:1001F800655C00F0E2804FEA5454D4EB5555B8BF23
:100208006D420CDD2C4480EA020281EA030382EA93
:10021800000083EA010180EA020281EA0303362D25
:1002280088BF30BD11F0004F4FEA01314FF4801CF8
:100238004CEA113102D0404261EB410113F0004F0A
:100248004FEA03334CEA133302D0524263EB4303C1
:1002580094EA050F00F0A780A4F10104D5F1200E5F
:100268000DDB02FA0EFC22FA05F2801841F10001BA
:1002780003FA0EF2801843FA05F359410EE0A5F18E
:1002880020050EF1200E012A03FA0EFC28BF4CF0BF
:10029800020C43FA05F3C01851EBE37101F0004575
:1002A80007D54FF0000EDCF1000C7EEB00006EEB82
:1002B8000101B1F5801F1BD3B1F5001F0CD349080C
:1002C8005FEA30004FEA3C0C04F101044FEA445263
:1002D80012F5800F80F09A80BCF1004F08BF5FEAEA
:1002E800500C50F1000041EB045141EA050130BDCA
:1002F8005FEA4C0C404141EB010111F4801FA4F16D
:100308000104E9D191F0000F04BF01460020B1FAC1
:1003180081F308BF2033A3F10B03B3F120020CDAF9
:100328000C3208DD02F1140CC2F10C0201FA0CF0D7
:1003380021FA02F10CE002F11402D8BFC2F1200C3C
:1003480001FA02F120FA0CFCDCBF41EA0C019040F2
:10035800E41AA2BF01EB0451294330BD6FEA04043B
:100368001F3C1CDA0C340EDC04F11404C4F1200226
:1003780020FA04F001FA02F340EA030021FA04F338
:1003880045EA030130BDC4F10C04C4F1200220FA8F
:1003980002F001FA04F340EA0300294630BD21FACD
:1003A80004F0294630BD94F0000F83F4801306BF93
:1003B80081F480110134013D4EE77FEA645C18BF87
:1003C8007FEA655C29D094EA050F08BF90EA020F1E
:1003D80005D054EA000C04BF1946104630BD91EA16
:1003E800030F1EBF0021002030BD5FEA545C05D119
:1003F8004000494128BF41F0004130BD14F5800458
:100408003CBF01F5801130BD01F0004545F0FE41CB
:1004180041F470014FF0000030BD7FEA645C1ABF00
:10042800194610467FEA655C1CBF0B46024650EA37
:10043800013406BF52EA033591EA030F41F4002163
:1004480030BD00BF90F0000F04BF0021704730B5E9
:100458004FF4806404F132044FF000054FF00001BE
:1004680050E700BF90F0000F04BF0021704730B57F
:100478004FF4806404F1320410F0004548BF404254
:100488004FF000013EE700BF42004FEAE2014FEAA9
:1004980031014FEA02701FBF12F07F4393F07F4F84
:1004A80081F06051704732F07F4208BF704793F087
:1004B8007F4F04BF41F40021704730B54FF460749A
:1004C80001F0004521F000411CE700BF50EA01029D
:1004D80008BF704730B54FF000050AE050EA010246
:1004E80008BF704730B511F0004502D5404261EBB6
:1004F80041014FF4806404F132045FEA915C3FF4F7
:10050800D8AE4FF003025FEADC0C18BF03325FEA93
:10051800DC0C18BF033202EBDC02C2F1200300FA44
:1005280003FC20FA02F001FA03FE40EA0E0021FA69
:1005380002F11444BDE600BF70B54FF0FF0C4CF457
:10054800E06C1CEA11541DBF1CEA135594EA0C0F09
:1005580095EA0C0F00F0DEF82C4481EA030621EA44
:100568004C5123EA4C5350EA013518BF52EA03357F
:1005780041F4801143F4801338D0A0FB02CE4FF031
:100588000005E1FB02E506F00042E0FB03E54FF061
:100598000006E1FB03569CF0000F18BF4EF0010E59
:1005A800A4F1FF04B6F5007F64F5407404D25FEA55
:1005B8004E0E6D4146EB060642EAC62141EA555108
:1005C8004FEAC52040EA5E504FEACE2EB4F1FD0C4A
:1005D80088BFBCF5E06F1ED8BEF1004F08BF5FEAC8
:1005E800500E50F1000041EB045170BD06F000467A
:1005F80046EA010140EA020081EA0301B4EB5C0427
:10060800C2BFD4EB0C0541EA045170BD41F480111E
:100618004FF0000E013C00F3AB8014F1360FDEBF43
:10062800002001F0004170BDC4F10004203C35DA1F
:100638000C341BDC04F11404C4F1200500FA05F3A2
:1006480020FA04F001FA05F240EA020001F0004243
:1006580021F0004110EBD37021FA04F642EB0601B9
:100668005EEA430E08BF20EAD37070BDC4F10C04E3
:10067800C4F1200500FA04F320FA05F001FA04F2A7
:1006880040EA020001F0004110EBD37041F1000193
:100698005EEA430E08BF20EAD37070BDC4F120059E
:1006A80000FA05F24EEA020E20FA04F301FA05F206
:1006B80043EA020321FA04F001F0004121FA04F2AE
:1006C80020EA020000EBD3705EEA430E08BF20EA7E
:1006D800D37070BD94F0000F0FD101F000464000B8
:1006E80041EB010111F4801F08BF013CF7D041EA3A
:1006F800060195F0000F18BF704703F0004652003E
:1007080043EB030313F4801F08BF013DF7D043EA0E
:100718000603704794EA0C0F0CEA135518BF95EAC4
:100728000C0F0CD050EA410618BF52EA4306D1D14B
:1007380081EA030101F000414FF0000070BD50EA6A
:10074800410606BF1046194652EA430619D094EAF4
:100758000C0F02D150EA013613D195EA0C0F05D1DE
:1007680052EA03361CBF104619460AD181EA030132
:1007780001F0004141F0FE4141F470014FF00000EA
:1007880070BD41F0FE4141F4780170BD70B54FF085
:10079800FF0C4CF4E06C1CEA11541DBF1CEA135505
:1007A80094EA0C0F95EA0C0F00F0A7F8A4EB0504E7
:1007B80081EA030E52EA03354FEA013100F08880DE
:1007C8004FEA03334FF0805545EA131343EA1263A7
:1007D8004FEA022245EA111545EA10654FEA00265C
:1007E8000EF000419D4208BF964244F1FD0404F515
:1007F800407402D25B084FEA3202B61A65EB030571
:100808005B084FEA32024FF480104FF4002CB6EB2D
:10081800020E75EB030E22BFB61A754640EA0C00AD
:100828005B084FEA3202B6EB020E75EB030E22BFED
:10083800B61A754640EA5C005B084FEA3202B6EB2E
:10084800020E75EB030E22BFB61A754640EA9C00ED
:100858005B084FEA3202B6EB020E75EB030E22BFBD
:10086800B61A754640EADC0055EA060E18D04FEA7B
:10087800051545EA16754FEA06164FEAC30343EA1B
:1008880052734FEAC2025FEA1C1CC0D111F4801FE8
:100898000BD141EA00014FF000004FF0004CB6E7E1
:1008A80011F4801F04BF01430020B4F1FD0C88BF80
:1008B800BCF5E06F3FF6AFAEB5EB030C04BFB6EB8B
:1008C800020C5FEA500C50F1000041EB045170BD7E
:1008D8000EF0004E4EEA113114EB5C04C2BFD4EBAB
:1008E8000C0541EA045170BD41F480114FF0000E2F
:1008F800013C90E645EA060E8DE60CEA135594EAAB
:100908000C0F08BF95EA0C0F3FF43BAF94EA0C0FAD
:100918000AD150EA01347FF434AF95EA0C0F7FF422
:1009280025AF104619462CE795EA0C0F06D152EA76
:1009380003353FF4FDAE1046194622E750EA41065A
:1009480018BF52EA43067FF4C5AE50EA41047FF46B
:100958000DAF52EA43057FF4EBAE12E74FEA4102CE
:10096800B2F1E04324BFB3F5001CDCF1FE5C0DD905
:1009780001F0004C4FEAC0024CEA5070B2F1004F4F
:1009880040EB830008BF20F00100704711F0804F52
:1009980021D113F13872BCBF01F00040704741F417
:1009A80080114FEA5252C2F11802C2F1200C10FA1B
:1009B8000CF320FA02F018BF40F001004FEAC123FF
:1009C8004FEAD32303FA0CFC40EA0C0023FA02F3A3
:1009D8004FEA4303CCE77FEA625307D150EA013379
:1009E8001EBF4FF0FE4040F44000704701F0004049
:1009F80040F0FE4040F40000704700BF53B94AB9C8
:100A0800002908BF00281CBF4FF0FF314FF0FF300E
:100A180000F072B9ADF1080C6DE904CE00F006F8EB
:100A2800DDF804E0DDE9022304B070472DE9F04762
:100A3800089E04468846002B4BD18A42154667D942
:100A4800B2FA82F24AB1C2F1200701FA02F320FA9F
:100A580007F7954047EA030894404FEA154E230CE0
:100A6800B8FBFEF71FFA85FC0EFB178843EA08431C
:100A780007FB0CF1994209D9EB1807F1FF3080F018
:100A88001B81994240F21881023F2B445B1AA4B2A1
:100A9800B3FBFEF00EFB103344EA034400FB0CFCEE
:100AA800A44509D92C1900F1FF3380F00781A4452A
:100AB80040F2048102382C4440EA0740A4EB0C04BD
:100AC80000271EB1D4400023C6E900433946BDE8DB
:100AD800F0878B4209D9002E00F0EB800027C6E989
:100AE800000138463946BDE8F087B3FA83F7002F8E
:100AF80047D18B4202D3824200F2FA80841A61EB1A
:100B0800030301209846002EE0D0C6E90048DDE73F
:100B180002B9FFDEB2FA82F2002A40F08F80491B48
:100B28004FEA154E1FFA85F80127B1FBFEFC230C8E
:100B38000EFB1C1143EA014308FB0CF1994207D94B
:100B4800EB180CF1FF3002D2994200F2CD808446B6
:100B5800591AA3B2B1FBFEF00EFB101443EA044489
:100B680008FB00F8A04507D92C1900F1FF3302D281
:100B7800A04500F2B6801846A4EB080440EA0C40F1
:100B88009FE7C7F1200CBB4022FA0CFE4EEA030E89
:100B980001FA07F420FA0CF521FA0CF34FEA1E4883
:100BA8002543B3FBF8F92C0C08FB19331FFA8EFA0E
:100BB80044EA034309FB0AF49C4202FA07F200FAEA
:100BC80007F10BD91EEB030309F1FF3080F0878092
:100BD8009C4240F28480A9F1020973441B1BADB208
:100BE800B3FBF8F008FB103345EA034400FB0AFAAC
:100BF800A24508D91EEB040400F1FF336BD2A245CD
:100C080069D90238744440EA0940A0FB0289A4EB80
:100C18000A044C45C2464B4654D351D0002E69D0E5
:100C2800B1EB0A0564EB030404FA0CFCFD40FC403C
:100C38004CEA0505C6E90054002747E7C2F120033E
:100C480020FA03F7954001FA02F021FA03F34FEA7C
:100C5800154E3843010CB3FBFEF71FFA85F80EFB5F
:100C6800173341EA034107FB08F38B4204FA02F405
:100C780007D9691807F1FF3C2FD28B422DD9023FC3
:100C88002944CB1A81B2B3FBFEF00EFB103341EAC4
:100C9800034100FB08F38B4207D9691800F1FF3CB8
:100CA80017D28B4215D902382944C91A40EA074796
:100CB8003BE73746304609E70746E7E61846FBE6CE
:100CC8004145ABD2B8EB020A69EB0E020138134674
:100CD800A4E76046E9E7184695E76746D1E7814605
:100CE8007CE702382C4447E7ACF1020C2B442FE791
:100CF800384608E73746E9E6704700BF38B50E4A78
:100D08000E4B054618784FF47A73B3FBF0F310686E
:100D1800B0FBF3F000F096F8044658B90F2D09D847
:100D2800024629464FF0FF3000F04AF8044B2046AF
:100D38001D6038BD0120FCE71800002000000020DD
:100D48000400002008B50B4B1A6842F400721A60C0
:100D58001A6842F480621A601A6842F480721A6053
:100D6800032000F01BF80020FFF7C8FF02F09EFEEA
:100D7800002008BD003C0240034A044B11681B7860
:100D88000B441360704700BFB4000020000000202F
:100D9800014B1868704700BFB4000020074AD368A9
:100DA80023F4E0631B041B0C43F0BF63000243F40D
:100DB800003300F4E0600343D360704700ED00E0C7
:100DC800174B70B5DC68C4F30224C4F10705042D81
:100DD80004F1040328BF04254FF0FF36062B06FA5A
:100DE80005F38CBF033C002421EA0303A34006FA61
:100DF80004F422EA0404002843EA0403A8BF00F12B
:100E080060404FEA0313BCBF00F00F00054ADBB295
:100E1800AABF00F56140135480F8003370BD00BFCD
:100E280000ED00E014ED00E0002808DB4209012392
:100E380000F01F0003FA00F0014B43F8220070474E
:100E480000E100E00138B0F1807F0AD2064B074A82
:100E58005860F02182F823100020072298601A6059
:100E680070470120704700BF10E000E000ED00E08F
:100E78000368DAB223F47F7323F003031821103ACE
:100E8800B2FBF1F20449032A88BF0433895C836505
:100E9800C165806D704700BF583F000870B50446B3
:100EA800FFF776FF0546002C71D0002384F8343014
:100EB8002268022384F83530136823F00103136095
:100EC80021680B68D8073CD40B68324DA0691D40D7
:100ED800D4E901231343E268134322691343626987
:100EE8001343E26903431343226A1343626A042AE1
:100EF80043EA050302BFD4E90B5635432B430B6085
:100F08004B69042A23F0070343EA02030BD1A26AC0
:100F1800E56A13433DB1F8B9012A2DD001D3022A5D
:100F280001D1EA012BD44B612046FFF7A1FFE26D06
:100F38003F239340836000200123606584F83530A7
:100F480009E0FFF725FF401B0528B9D92023636571
:100F5800032084F8350070BDB0F5005F13D1032A73
:100F6800E1D801A050F822F0870F00082B0F0008E5
:100F7800870F0008810F0008B5F1C07FD3D1402347
:100F880063650120E5E7022AF9D9032AC8E70120A9
:100F9800E1E700BF3F8010F070B590F83440012CB5
:100FA80036D0012480F8344090F83540866D012C05
:100FB8004FF000054FF0020428D180F8354004684E
:100FC8004565256825F48025256063608368402B86
:100FD8000EBFA260A160E260C26D08BFE1603F235E
:100FE8009340B360236843F016032360636943F0BA
:100FF80080036361036C1BB1236843F0080323601B
:10100800236843F001032360002070BD80F834504A
:101018000220FAE790F83530022B03D0802343658D
:10102800012070470268052380F83530136823F0E3
:101038000103136000207047F7B5002301935C4B50
:10104800856D1F68C36D2E6808229A403242044697
:101058000CD001680868400708D5086820F004002B
:101068000860AA60626D42F00102626501229A403E
:10107800324208D021684969090641BFAA60626DF9
:1010880042F00202626504229A40324208D0216886
:101098000968880741BFAA60626D42F00402626570
:1010A80010229A40324210D02368196809070CD5DB
:1010B800AA601A68500337D51B68190301D4236C3A
:1010C80000E0A36C0BB120469847E16D20228A40CE
:1010D80032423AD023681868C60636D5AA6094F812
:1010E8003520052A1A6827D122F016021A605A6993
:1010F80022F080025A61226C0AB9A26C1AB11A68ED
:1011080022F008021A603F238B40AB60002384F86A
:101118003430012384F83530236D002B45D0204628
:1011280003B0BDE8F04018471A68D2055EBF1A68D8
:1011380022F008021A60C2E7500327D51B6819037A
:1011480031D4636C0BB120469847636D6BB3636D04
:10115800DA0719D50523226884F83530136823F097
:10116800010313604FF41653B7FBF3F7019B0133E8
:10117800BB42019302D81368DB07F7D4002384F835
:101188003430012384F83530E36CC6E71A6812F46A
:10119800807208D1196821F010011960012384F8C0
:1011A800342084F83530E36BCCE703B0F0BD00BFE2
:1011B8001800002090F835007047406D7047000017
:1011C8002DE9F04F85B00B68DFF8AC81684ADFF88D
:1011D800AC91019300234FF0010C019C0CFA03FC25
:1011E80004EA0C06B44540F0AE804C6824F01007C1
:1011F800022F16D14FEAD30A00EB8A0A03F0070B35
:10120800DAF820504FEA8B0B4FF00F0E0EFA0BFE58
:1012180025EA0E0E0D6905FA0BF545EA0E05CAF822
:1012280020504FEA430A0325D0F800B005FA0AF522
:10123800ED4304F0030E05EA0B0B0EFA0AFE013F1C
:101248004EEA0B0E012FC0F800E011D8876807EAB4
:10125800050BCF6807FA0AFE4EEA0B078760476856
:1012680027EA0C0CC4F300179F4047EA0C074760B5
:10127800C7683D408F6807FA0AF73D43C560E50037
:1012880061D54FF0000BCDF80CB0D8F84470394D4B
:1012980047F48047C8F84470D8F8447007F480478A
:1012A8000397039F23F0030707F1804707F59C374F
:1012B80003F0030ED7F808A04FEA8E0E4FF00F0C7C
:1012C8000CFA0EFCA8422AEA0C0C43D005F58065FE
:1012D800A84241D005F58065A8423FD005F5806554
:1012E800A8423DD005F58065A8423BD048453BD093
:1012F80005F50065A84239D005F58065A84214BFF8
:101308000825072505FA0EF545EA0C05BD601568A0
:10131800F74314F4803F0CBF3D40354315605568D2
:1013280014F4003F0CBF3D4035435560956814F4F4
:10133800801F0CBF3D4035439560D568A40254BF5B
:101348003D403543D5600133102B7FF444AF05B0E1
:10135800BDE8F08F5D46D5E70125D3E70225D1E743
:101368000325CFE70425CDE70525CBE70625C9E703
:10137800003C0140000002400038024000140240D6
:101388000369194214BF0120002070470AB1816126
:1013980070470904FBE7000008B5044B596901428E
:1013A80002D0586102F0C2FA08BD00BF003C0140FB
:1013B80070B5044608B9012070BD90F83D3003F0BF
:1013C800FF021BB980F83C2002F08CFB2268242322
:1013D80084F83D30136823F00103136001F0ACF981
:1013E8006368414A93424DD8404A9042E3D9226803
:1013F8003F495568B0FBF1F125F03F050D435560B5
:10140800156A25F03F05013129431162D169364D2E
:1014180021F44F41AB4221F0FF0100F1FF3048D8E1
:101428005B00B0FBF3F0431CC3F30B03042B38BF82
:1014380004230B43D361D4E907301168034321F037
:10144800C0010B4313609168D4E9030321F40341FD
:10145800034321F0FF010B439360D4E90530D168C1
:10146800034321F0FF010B43D360136843F00103EA
:10147800136000202023206484F83D30206384F822
:101488003E0099E71B4A904295D92268184E556844
:10149800B0FBF6F625F03F0535435560156A4FF465
:1014A8009671714325F03F054FF47A76B1FBF6F15A
:1014B800A9E7A56855B903EB4303B0FBF3F0431C58
:1014C800C3F30B036BB143F40043B2E719256B4335
:1014D800B0FBF3F0431CC3F30B0313B143F44043D5
:1014E800A7E70123A5E700BFA08601007F841E00AF
:1014F80040420F00FF083D0090F83D30202B10B50A
:1015080032D100292ED0002A2CD090F83C30012B63
:101518002AD00468012380F83C302368DB075EBFCB
:10152800236843F001032360236823F400632360E6
:10153800222380F83D30202380F83E3000230364C6
:101548004285428D0285094AC2622268416242F49C
:1015580080622260626880F83C3042F4E062626037
:10156800184610BD0120FCE70220FAE70000FFFF43
:10157800F8B590F83D30202B044617464FD1002986
:101588004BD0002A49D090F83C30012B47D001239A
:1015980080F83C3003681A68D2075EBF186840F0CC
:1015A8000100186018681A4620F4006042F8100B11
:1015B80000252123202684F83D3084F83E602564E8
:1015C8006785638D1748E062606B174F61629BB255
:1015D8002385C763154FC764C0E910558564056541
:1015E800FFF7DAFC78B923681A6842F480621A6057
:1015F8005A6884F83C0042F440725A605A6842F4CF
:1016080000625A60F8BD84F83D6084F83E50236C4F
:1016180084F83C5043F0100323640120F2E70220D1
:10162800F0E700BF0000FFFF851600084916000814
:1016380070477047704770477047704770477047EA
:1016480038B5846B636B0025DD63A36BDD63FFF73F
:10165800B4FD022811D02268136823F48063136054
:101668002023658584F83D3084F83E50236C43F090
:10167800100323642046FFF7E2FF38BD70B5846B82
:10168800236894F83D2094F83E00E16A5D68666B33
:1016980025F440755D600025F563A66BD2B2F5634D
:1016A80002F02105212DC0B205D002F02205222D1D
:1016B80023D1202821D1596821F400615960292AB1
:1016C8004FF0000363850DD121232363282384F879
:1016D8003D302046FFF7AEFF2268536843F440735D
:1016E800536070BD2A2AF7D122232363282384F864
:1016F8003D30204602F0C6F9EEE794F83E20002A75
:10170800EFD0628D92B2012A02BF1A6822F4806279
:101718001A605A6811F5803F22F440725A6006D068
:10172800082904D0B1F12A4F01D0202903D11A6821
:1017380042F400721A605A6822F480525A605A6859
:1017480022F400625A6000236385236C1BB1204693
:10175800FFF775FFC5E7202284F83D2094F83E2066
:1017680084F83E30402A04D123632046FFF766FF01
:10177800B7E7122323632046FFF75BFFB1E7704703
:10178800806B026890F83D1070B51468466B856BE5
:10179800002324F48064F363EB63146043851468C6
:1017A800336524F001042B65146090F83D40602CEB
:1017B800C9B208D1202280F83D2080F83E30036469
:1017C800FFF7DDFF70BD01F0280128290DD114684D
:1017D80044F001041460146844F4806414600363E2
:1017E80080F83D10FFF72BFFECE7202280F83D2022
:1017F80080F83E30F6E7000090F83D2090F83E1063
:101808000368102910B5D2B2044605D1222A02BFB6
:10181800196821F40061196002F0280128293AD1D9
:101828000022226384F83D105A6812F4006259D0ED
:101838005A68606B22F400625A6090F83530012BC8
:101848003C4B35D00365FFF7E5FB50B12268606B70
:10185800136823F001031360202384F83D30036DDF
:10186800984794F83D30226C5207DBB212D5282BEA
:1018780010D12268536823F4E06353602E4BE3626F
:10188800202200232363204684F83D2084F83E303C
:10189800FFF7D2FE10BD5968090504D4602A1CBFA1
:1018A800202284F83D200022226384F83E20BBE7F2
:1018B800A06B0365FFF7AEFB0028D2D023685A69F6
:1018C800520605D51A69636A1A70636A013363623E
:1018D8002268A06B136823F001031360202384F8A7
:1018E8003D30BCE794F83D10602915D1202184F8DB
:1018F8003D1022645A69500605D51A69636A1A7040
:10190800636A013363622268136823F0010313607A
:101918002046FFF734FFA4E75A69510605D51A692E
:10192800636A1A70636A013363622046FFF787FEB1
:1019380097E700BF891700080000FFFF036830B56C
:101948005A68C56A90F83E100446C9B290F83D003E
:1019580010298DB0C0B202D0402940F0B0829969F8
:10196800586910F0010F07D1B5F52A0F02D0B5F16B
:101978002A4F52D10DB030BD95054ED5E26AB2F569
:101988002A0F0CD10122E26294F83E20402A11D19C
:10199800226D52B9626C02F0FE021A61EAE7E26A4D
:1019A800B2F12A4FF0D10822EDE7626C42F0010251
:1019B800D2B2F2E72269B2F5804F1BD194F83D20EC
:1019C800212A626C12D102F0FE021A61626B12B90E
:1019D800A16B0029CED0D26B1AB9A26BD26B002AA8
:1019E800C8D05A6842F400625A60C3E742F0010264
:1019F800D2B2EAE7226D32B9626CD21102F0060265
:101A080042F0F002C9E7226D012AB3D1626CD2110B
:101A180002F0060242F0F102BFE7050703D595057B
:101A280001D5626CE4E7850740F1DD80950540F15A
:101A3800DA8094F83E10E26A256B94F83D0022287B
:101A4800C9B240F0C880206D40B9402906D1019044
:101A58005A6901929B690193019B8BE7216D81B9BA
:101A68002069B0F5404F0CD102915A6902929A69E7
:101A78000292029A1A6842F480721A60236D013346
:101A880028E0618D89B251B903915A6903929A6924
:101A98000392039A1A6842F400721A6019E0618D81
:101AA80089B201294AD112F5803F1CD11A6822F463
:101AB80080621A605A6812F400620DD01A6822F423
:101AC80080621A60002204925A6904929B69049306
:101AD800049B002323654DE705925A6905929A698C
:101AE8000592059AD6E7082A1CD0202A1AD0122D6A
:101AF8000DD1012A16D11A6822F480621A600022D8
:101B080006925A6906929B690693069BE1E7102A9A
:101B1800F1D8A04921FA02F2D007ECD51A6842F4AC
:101B28008062EBE71A6822F480621A60002207924A
:101B38005A6907929A690792079AABE7618D89B249
:101B480002292AD1102A03D89249D140C90720D4A2
:101B5800196821F480611960196841F400611960FD
:101B680059680D050DD512F5803F06D0511E1F2965
:101B780007D8894ACA40D00703D55A6842F4805228
:101B88005A60002208925A6908929B690893089B38
:101B98009FE7196841F48061E1E7196841F48061C1
:101BA8001960596809050ED512F5803F07D0013A2A
:101BB8001F2A08D8784921FA02F2D20703D55A68B1
:101BC80042F480525A60002209925A6909929B692C
:101BD8000993099B7DE700220A925A690A929B6938
:101BE8000A930A9BC6E611F0040F596800F0A88012
:101BF8000D053FF5BFAEC0F38001000669D5550558
:101C080067D5002968D194F83D20258D94F83E10B9
:101C1800E06AD2B2C9B2C5B9212A18D1082878D049
:101C2800202876D010F5803F73D05A6822F4E062FD
:101C38005A6011232363002384F83E30202384F85C
:101C48003D302046FFF7F4FC94E6212A05D04029D0
:101C58007FF490AE222A7FF48DAE628D92B21AB9CB
:101C68005A6822F48062BFE694F83E20402A26D1C2
:101C7800226D62B9E26C012AA26C04D1D2B21A6157
:101C8800236D023326E7C2F307221A61F6E6226DB6
:101C9800012A02D1A26CD2B2F7E7226D022A7FF4A0
:101CA80069AE94F83D20222A04D11A6842F4807261
:101CB8001A605FE694F83D20212A7FF45BAE626AE1
:101CC80012F8011B19616262638D013B9BB2638547
:101CD80050E600293FF44EAE90057FF54BAEE16A21
:101CE80094F83D20212A7FF445AE628D92B2002AF5
:101CF800E5D108290DD020290BD011F5803F08D057
:101D0800596821F4E06159601123236384F83E2067
:101D180094E75A6822F4E0625A601A6842F4007242
:101D28001A6000232022236384F83D2094F83E2083
:101D380084F83E30402A204684D1FFF77EFC19E61D
:101D480009053FF517AE4506C0F380014DD550058E
:101D58004BD500294CD194F83D20222A7FF40AAEB5
:101D6800628D92B2032A19D91A69636A1A70636A72
:101D780001336362638D013B9BB26385638D9BB2C4
:101D8800032B7FF4F7AD2268536823F48063536014
:101D9800F0E500BF1400010081800080E06A02289D
:101DA8003FF4E8AD012A3FF6E5AD1A6822F48062F7
:101DB8001A605A6822F4E0625A601A69636A1A70F3
:101DC800636A01336362638D013B9BB263852023A1
:101DD80084F83D3094F83E3084F83E10402B68D1AA
:101DE80021632046FFF72AFCC4E500293FF4C2AD71
:101DF80092057FF5BFADE26A608D616A80B2042802
:101E080009D15A6822F480625A601B690B70636AB0
:101E18000133636258E7608D80B203280CD158689B
:101E2800042A20F480605860EFD0022AEDD01A68A6
:101E380022F480621A60E8E7608D80B20228E4D15B
:101E4800012A01D0102A28D11A6822F480621A6067
:101E58001B690B70626A531C6362638D013B9BB202
:101E6800638523681B695370636A22680133636260
:101E7800638D013B9BB26385536823F440735360C1
:101E8800202384F83D3094F83E30402B4FF0000377
:101E980084F83E300DD12363A3E7042A01D0022A37
:101EA80003D11A6842F48062D1E71A6842F40072DA
:101EB800CDE7122323632046FFF7BBFB5AE5216CCD
:101EC80021B35969002511F0020F29D012F4007FBF
:101ED80026D0226C02B19D6994F83D2002F02802B8
:101EE800282A16D15A6822F480625A606FEA95014E
:101EF8002B064FF0000301F0010154BFA289228B89
:101F080084F83C302046FFF796FB33E59D69596914
:101F1800D9E76FF002025A61002384F83C3029E5C2
:101F2800CD0640F1B180950540F1AE8094F83D5062
:101F38005A6822F4E0625A6000220B925A690B92A6
:101F48001A6842F001021A600B9A1A6822F4806239
:101F58001A605A681105EDB220D505F0F702222A59
:101F68004AD1A06B0268526892B26285628D92B2C1
:101F78001AB1226C42F0040222645A6822F4006208
:101F88005A60FFF717F9012808D0A06B794B036551
:101F9800FFF740F810B1A06B036D9847638D9BB2B3
:101FA80013B323685A69520709D51A69636A1A7004
:101FB800636A01336362638D013B9BB26385236867
:101FC8005A69500609D51A69636A1A70636A013337
:101FD8006362638D013B9BB26385638D9BB21BB1CA
:101FE800236C43F004032364236C13B320460DB021
:101FF800BDE83040FFF700BC606B0268526892B2DF
:102008006285628D92B21AB1226C42F00402226497
:102018005A6822F400625A60FFF7CCF80128BDD054
:10202800606B544B0365FEF7F5FF0028B6D0606B74
:10203800B2E72A2D06D12363282384F83D302046B1
:1020480001F020FD94F83D30282B0CD14A4BE36277
:10205800202200232363204684F83D2084F83E3064
:10206800FFF7EAFA86E4236B222B02D0222D7FF4B5
:1020780081AC00232022236384F83D2084F83E307D
:10208800204601F0FFFC75E400F0F7002128C1F3B9
:10209800800535D1090627D5510525D53DBB94F8CE
:1020A8003D10628D92B2C9B2002A3FF463AC626AF5
:1020B80012F8015B1D616262628D013A92B262851B
:1020C800628D92B2002A7FF455AC29297FF452AC74
:1020D8005A6822F480625A602823206384F83D30CD
:1020E8002046FFF7A7FA45E4002D3FF443AC9505D9
:1020F8007FF540AC628D92B2002A7FF4E0AD39E4FE
:10210800480627D5510525D53DBB94F83D20618D5E
:1021180089B2D2B200293FF42DAC1969636A1970EB
:10212800636A01336362638D013B9BB26385638D90
:102138009BB2002B7FF41EAC2A2A7FF41BAC2268CA
:10214800536823F48063536022232363282384F88D
:102158003D3095E7002D3FF40DAC92057FF50AACB4
:10216800628D92B2002A3FF405AC1A69636A1A704C
:102178004DE600BF891700080000FFFFF8B50368A7
:102188005F695E68C7F30025044635B1C6F30025CC
:102198001DB16FF480725A610125B90506D5F205A3
:1021A80042BF6FF4007245F002055A61780537D5D1
:1021B800F10535D594F83EC0618D94F83D20206B2B
:1021C800BCF1200F89B2D2B25AD1002958D102F0FD
:1021D800F701212903D0282A52D1212850D194F877
:1021E8003D20E16A0829D2B201D020292AD1282A23
:1021F80028D12C4AE2625A6822F4E0625A606FF4ED
:1022080080625A611A6822F480621A6000232022D0
:102218002363204684F83D2084F83E30FFF70CFA0B
:102228003A053CD5F3053AD523686FF4006245F0CA
:1022380008055A61236C1D4325642046BDE8F84013
:10224800FFF7DABA212A17D11649E1622263202260
:1022580084F83D20002284F83E205A6822F4E06287
:102268005A606FF480625A611A6822F480621A60B8
:102278002046FFF7DFF9D3E76FF480625A61CFE7B2
:102288006FF480625A6194F83E20102A04BF1A68DD
:1022980042F4007245F0040508BF1A60C0E7002D3B
:1022A800C8D1F8BD0000FFFF2DE9F341044618B975
:1022B800012002B0BDE8F0810368DD0710D423686F
:1022C800980758D423681A0700F19A8023685B0797
:1022D80000F1B880A269002A40F019810020E8E7DF
:1022E800A64B9A6802F00C02042A07D09A6802F0FA
:1022F8000C02082A0AD15B68590207D59F4B1B6854
:102308009A03DCD56368002BD9D1D1E763689B4D6C
:10231800B3F5803F11D12B6843F480332B60FEF76F
:1023280037FD964D06462B689B03C8D4FEF730FD53
:10233800801B6428F7D90320BBE7B3F5A02F04D18D
:102348002B6843F480232B60E5E72A6822F4803267
:102358002A602A6822F480222A60002BDFD1FEF747
:1023680017FD06462B689F03A9D5FEF711FD801BB4
:102378006428F7D9DFE7814B9A6812F00C0F07D071
:102388009A6802F00C02082A11D15B685E020ED42A
:102398007A4B1A68950702D5E268012A88D11A682B
:1023A800216922F0F80242EAC1021A608AE7E2686B
:1023B800734BB2B101221A60FEF7EAFC6F4D064674
:1023C8002B68980707D52B68226923F0F80343EA9E
:1023D800C2032B6076E7FEF7DBFC801B0228EFD9EF
:1023E800A9E71A60FEF7D4FC644D06462B689907E6
:1023F8007FF568AFFEF7CCFC801B0228F6D99AE778
:102408006269604B7AB101221A60FEF7C1FC5B4D2C
:1024180006466B6F9F073FF559AFFEF7B9FC801B67
:102428000228F6D987E71A60FEF7B2FC534D064634
:102438006B6F98077FF54AAFFEF7AAFC801B02284E
:10244800F6D978E74D4B1A6C12F0805228D10192D8
:102458001A6C42F080521A641B6C03F0805301938B
:10246800019B0126484D2B68D9051BD5A368434D10
:10247800012B27D12B6F43F001032B67FEF788FC54
:102488003E4D074641F288382B6F9B0739D5002E01
:102498003FF420AF394A136C23F08053136419E7D3
:1024A8000026DFE72B6843F480732B60FEF770FC8F
:1024B80007462B68DA05D9D4FEF76AFCC01B022848
:1024C800F7D938E7052B04D12B6F43F004032B67AA
:1024D800D0E72A6F22F001022A672A6F22F004024D
:1024E8002A67002BCAD1FEF753FC41F28838074609
:1024F8002B6F9807CBD5FEF74BFCC01B4045F7D98F
:1025080019E7FEF745FCC01B4045BDD913E71B4D35
:10251800AB6803F00C03082B3FF4CAAE1B4E002334
:10252800022A336034D1FEF733FC07462B68990141
:102538001ED4D4E907321343626A43EA8213E26A7B
:1025480043EA0263A26A0D4C5208013A43EA024385
:102558006B6001233360FEF71BFC054623689A0174
:102568003FF5BCAEFEF714FC401B0228F6D9E2E6A4
:10257800FEF70EFCC01B0228D8D9DCE60038024062
:1025880000004742800E474200700040600047420A
:10259800FEF7FEFB04462B689B017FF59FAEFEF716
:1025A800F7FB001B0228F6D9C5E600BF134908B59A
:1025B8008B6803F00C03042B03D0082B03D01048BE
:1025C80000E0104808BD4A684B68496813F4800366
:1025D80014BF0C480A48C1F3881118BF002302F041
:1025E8003F02A1FB0001FEF709FA044B5B68C3F345
:1025F800014301335B00B0FBF3F0E3E7003802402E
:102608000024F40040787D012DE9F0410D46044690
:1026180010B90120BDE8F081434B1A6802F00F029F
:102628008A4227D321688F072CD4C8073FD43E4B52
:102638001A6802F00F02AA4264D8226851076AD4C5
:10264800130707D5394A2169936823F4604343EA9D
:10265800C1039360FFF7AAFF344B354A9B68C3F365
:102668000313D35CD840334B18600020FEF746FBB9
:102678000020CFE7CAB21A701B6803F00F038B4221
:10268800C7D1CFE7294B11F0040F1EBF9A6842F457
:10269800E0529A600E0742BF9A6842F460429A601C
:1026A8009A68A06822F0F00202439A60BDE7626867
:1026B8001E4B012A1CD11B6813F4003FA9D01B4EE6
:1026C800B36823F003031343B360FEF761FB41F2E1
:1026D80088380746B368626803F00C03B3EB820FCF
:1026E800A5D0FEF755FBC01B4045F3D9032091E761
:1026F800911E01291B6802D813F0007FDEE713F052
:10270800020FDBE7EAB21A701B6803F00F03AB4253
:102718007FF47FAF91E70549E0688B6823F4E053C5
:1027280003438B608CE700BF003C02400038024046
:10273800603F000818000020044B054A9B68C3F35B
:102748008223D35C034A1068D8407047003802409F
:10275800703F000818000020F8B504460E461546DC
:102768001F4621688A6836EA020301D000202DE05E
:102778006B1CF7D0FEF70CFBC01B8542F1D8236811
:102788005A6822F0E0025A606268B2F5827F0AD184
:10279800A268B2F5004F02D0B2F5806F03D11A6873
:1027A80022F040021A60A26AB2F5005F07D11A68E7
:1027B80022F400521A601A6842F400521A60012387
:1027C80084F85130002384F850300320F8BD38B520
:1027D80013464268B2F5827F04461FD18268B2F57B
:1027E800004F02D0B2F5806F07D125682868B2F58E
:1027F800806F20F04000286007D00A4680212046DC
:10280800FFF7AAFF20B9002038BD0A460121F6E7E4
:10281800636D43F0200363650320F5E70A46012151
:10282800EEE7000073B51346124A134E1568426866
:10283800B5FBF6F64FF47A757543B2F5827F044618
:1028480001950BD10A468021FFF786FF78B1636DA9
:1028580043F020036365032002B070BD019B33B1D0
:10286800019B013B019323689B681B06F6D400205B
:10287800F2E700BF1800002000366E0110B50446CC
:10288800002836D00023836290F8513003F0FF020D
:102898001BB980F8502001F0A9F92168A269022328
:1028A80084F851300B6823F040030B60D4E9013001
:1028B8000343E06803432069034360690343E06915
:1028C8000343206A0343A06A034302F400700343EE
:1028D8000B60120C636A02F004021A434A60CB6967
:1028E80023F40063CB6100200123606584F8513034
:1028F80010BD0120FCE72DE9F3411E4690F8503049
:10290800012B04460D46904600F09B80012380F879
:102918005030FEF73DFA074694F85100C0B201283E
:1029280040F08D80002D5DD0B8F1000F5AD0032300
:1029380084F851300020A3686065A063A4F836804D
:10294800A087E087C4E9100020682563B3F5004F2D
:1029580008BF0368A4F8348004BF43F480430360CD
:102968000368E2685B065EBF036843F040030360E8
:10297800B2F5006F63683ED113B1B8F1010F07D10A
:1029880035F8023BC3602563E38E013B9BB2E386C7
:10299800E38E9BB2A3B93A4631462046FFF742FF81
:1029A800002849D1A36833B901932368DA680192F2
:1029B8009B680193019B606D003018BF012011E0F6
:1029C80022689368980705D5236B33F8021BD160FA
:1029D8002363D9E7FEF7DCF9C01BB042D8D3711CDA
:1029E800D6D00320012384F85130002384F85030D6
:1029F80002B0BDE8F08113B1B8F1010F08D12B780E
:102A08000373236B01332363E38E013B9BB2E3869D
:102A1800E38E9BB2002BBED023689A68920703D539
:102A2800226B12781A73ECE7FEF7B2F9C01BB042BA
:102A3800EED3731CECD0D4E720236365B2E7022001
:102A4800D0E70220D4E72DE9F7431E4690F850302E
:102A58000A9F012B04460D46914600F0E2800123AF
:102A680080F85030FEF794F994F851306168DBB281
:102A7800012B80460AD0B1F5827F40F0D080A06853
:102A8800002840F0CC80042B40F0C980002D00F0D5
:102A9800C480B9F1000F00F0C080002E00F0BD80A6
:102AA80094F85130C4F83890042B1CBF052384F8DF
:102AB800513000236365C4E910332368E687E6864E
:102AC8001A68A687500658BF1A68256358BF42F08F
:102AD8004002A68658BF1A60E268B2F5006F58D166
:102AE80009B1012E07D135F8022BDA60E38E256390
:102AF800013B9BB2E3860125E38E9BB2ABB9E38F22
:102B08009BB293B9424639462046FFF78BFE002810
:102B180040F08180A368002B32D123680190DA68E5
:102B280001929B680193019B2AE0226893689907A8
:102B38000DD5E38E9BB253B14DB1236B33F8021B15
:102B4800D1602363E38E013B9BB2E3860025936843
:102B5800DB070CD5E38F9BB24BB1A36BD26823F88C
:102B6800022BA363E38F013B9BB2E3870125FEF7AA
:102B78000FF9A0EB08008742BED87E1CBCD003200A
:102B8800012384F85130002384F8503003B0BDE8A5
:102B9800F08309B1012E08D12A781A73236B013307
:102BA8002363E38E013B9BB2E3860125E38E9BB250
:102BB8001BB9E38F9BB2002BA4D0226893689807B7
:102BC8000ED5E38E9BB25BB155B1236B1B781373A3
:102BD800236B01332363E38E013B9BB2E38600251D
:102BE80022689368D9070DD5E38F9BB253B1A36BC5
:102BF800D2681A70A36B0133A363E38F013B9BB2C6
:102C0800E3870125FEF7C4F8A0EB08008742CDD87A
:102C18007B1CCBD0B3E7202363650120B0E70220FB
:102C2800AEE70220B2E7000038B5044690F850003D
:102C3800012870D0012084F8500094F85100C0B2E7
:102C4800012808D06568B5F5827F60D1A568002D98
:102C58005DD104285BD100295BD0002A59D0002B14
:102C680057D094F85100A38604281CBF052084F887
:102C7800510000206065E386E387A38794F851300C
:102C88002163042BC4E91000E06C0CBF234B244BD8
:102C9800A2630BBF03640364224B234BC363216805
:102CA800224BC364002303650C31E38FFEF774F9EC
:102CB800034650B1636D012043F01003636584F847
:102CC8005100002384F8503038BD2268A06C516848
:102CD80041F001015160C0E90F33C0E913330C32F0
:102CE800E38E216BFEF758F90028E3D123681A68B0
:102CF80052065EBF1A6842F040021A605A6842F0F3
:102D080020025A605A6842F002025A60D9E702204B
:102D1800D7E70120D5E70220D6E700BF3F2D0008FE
:102D28004B2D0008792D0008CB2D0008572D0008E1
:102D380070477047704708B5806BFFF7FBFF08BD09
:102D4800704708B5806BFFF7FBFF08BD7047806BC5
:102D5800026808B5536823F003035360436D43F0DA
:102D680010034365012380F85130FFF7EFFF08BDDA
:102D780038B50546846BFEF70BF82B681B68DB0536
:102D880002461AD42368596821F02001596059680D
:102D980021F00301596020466421FFF718FD08B1AE
:102DA800202363650023E387012384F85130636D92
:102DB8001BB12046FFF7CAFF38BD2046FFF7B8FF12
:102DC800FAE738B50546846BFDF7E2FF2B681B6808
:102DD800DB0502461ED421684B6823F020034B60B4
:102DE80020466421FFF71EFD18B1636D43F02003F0
:102DF80063652268536823F0030353600023E38666
:102E0800E387012384F85130636D1BB12046FFF737
:102E18009DFF38BD2046FFF78CFFFAE7304A03686C
:102E2800904212D0B0F1804F0FD0A2F57C42904270
:102E38000BD002F58062904207D002F58062904282
:102E480003D002F57842904219D14A6823F0700302
:102E58001343234A904229D0B0F1804F26D0A2F5DF
:102E68007C42904222D002F5806290421ED002F548
:102E7800806290421AD002F57842904216D0194AE0
:102E8800904213D002F5806290420FD002F5806222
:102E980090420BD0A2F59832904207D002F580629A
:102EA800904203D002F58062904203D1CA6823F4AD
:102EB800407313434A6923F08003134303608B680C
:102EC800C3620B688362064B984203D003F58063A4
:102ED800984201D10B69036301234361704700BF26
:102EE800000001400040014010B50446A0B190F830
:102EF8003D3003F0FF021BB980F83C2000F0E6FEED
:102F0800022384F83D302068211DFFF787FF012345
:102F180084F83D30002010BD0120FCE710B584681E
:102F28000A4324F47F4442EA03232343836010BD09
:102F380090F83C30012B70B504464FF0020019D0D0
:102F480084F83D002068012384F83C30836823F42A
:102F58007F4323F0770383600B68402B65D015D837
:102F6800102B0CD007D853B10123002084F83D3032
:102F780084F83C0070BD202B01D0302BF4D182683E
:102F880043F0070322F0700213431AE0602B34D099
:102F980019D8502BE8D14A68CE68016A056A25F02D
:102FA80001050562836921F00A0123F0F00343EA71
:102FB80006130A4383610262836823F0700343F0B7
:102FC80057038360D0E7702B0CD0B3F5005FCBD1EB
:102FD800CB68D1E90121FFF7A1FF2268936843F488
:102FE800804308E0CB68D1E90121FFF797FF226809
:102FF800936843F077039360B6E74D68CE68016A3B
:1030080021F0100101628269036A22F4704223F000
:10301800A00343EA051342EA063282610362836829
:1030280023F0700343F06703CBE74A68CE68016A70
:10303800056A25F001050562836921F00A0123F07C
:10304800F00343EA06130A4383610262836823F0AC
:10305800700343F04703B4E790F83C30012B30B5D8
:103068004FF0020314D0046880F83D306268A3680A
:103078000D68496822F0700223F080030B432A434D
:103088006260A360012380F83D30002380F83C3063
:10309800184630BDF0B54C1E06464FEA940C002584
:1030A800D0ED007A14364FEA8C0E2F4675450BD1B9
:1030B80000EB0C1004F0030404300C1BA14234D1C3
:1030C800C2ED007A1F60F0BD56ED046A16ED037A72
:1030D800F4EEE67AF1EE10FA48BFF0EE667AF4EE16
:1030E800C77A48BF6F1C56ED026AF1EE10FA48BF66
:1030F800F0EE477AF4EEE67A48BFAF1C16ED017A97
:10310800F1EE10FA48BFF0EE667AF4EEC77A48BFDF
:10311800EF1CF1EE10FA05F1040554BFB0EE677A22
:103128002F461036F0EE477AC0E7B0EC017AF4EE9D
:10313800C77AF1EE10FA54BFB0EE677A2746F0EE80
:10314800477A0134BAE7000030B5DFED177A8D0809
:1031580003462C46103384B900EB051001F0030335
:1031680000EB830398421AD107EE101AB8EE477A9B
:10317800C7EE876AC2ED006A30BD13ED047A77EEB8
:10318800877A13ED037A77EE877A13ED027A77EE72
:10319800877A13ED017A013C77EE877ADAE7B0ECAB
:1031A800017A77EE877ADDE700000000F0B54C1E63
:1031B80006464FEA940C0025D0ED007A14364FEA03
:1031C8008C0E2F4675450BD100EB0C1004F0030450
:1031D80004300C1BA14234D1C2ED007A1F60F0BD4F
:1031E80056ED046A16ED037AF4EEE67AF1EE10FA7B
:1031F800C8BFF0EE667AF4EEC77AC8BF6F1C56ED0A
:10320800026AF1EE10FAC8BFF0EE477AF4EEE67AF9
:10321800C8BFAF1C16ED017AF1EE10FAC8BFF0EE88
:10322800667AF4EEC77AC8BFEF1CF1EE10FA05F122
:103238000405D4BFB0EE677A2F461036F0EE477A11
:10324800C0E7B0EC017AF4EEC77AF1EE10FAD4BF19
:10325800B0EE677A2746F0EE477A0134BAE7000005
:10326800DFED1E7A38B515468A0803461446F0EE97
:10327800676A1033BCB900EB021001F0030300EBDE
:103288008303984221D107EE101AB8EE477A87EEE9
:10329800870AB5EEC00AF1EE10FA1BDB00F0F6FD66
:1032A80085ED000A38BD13ED047AE7EE077A013C94
:1032B80013ED037AE7EE077A13ED027AE7EE077A61
:1032C80013ED017AE7EE077AD3E7B0EC017AE7EE7F
:1032D800077AD6E7C5ED006AE4E700BF0000000002
:1032E800012938B59FED2A5A154602D185ED005AB5
:1032F80038BD8A0803461446F0EE457AB0EE457AA2
:1033080010331CBB00EB021001F0030300EB830336
:10331800984235D106EE901AF8EE666AF7EE005A32
:1033280076EEE55A87EE266A87EEA50AC6EEA57AF6
:1033380026EE466AA6EE270AB5EEC00AF1EE10FAA6
:10334800D4DB00F0A3FD85ED000AD1E753ED046A54
:10335800E6EEA67A013C37EE267A53ED036AE6EEEE
:10336800A67A37EE267A53ED026AE6EEA67A37EEAB
:10337800267A53ED016A37EE267AE6EEA67ABFE79B
:10338800F0EC016A37EE267AE6EEA67AC0E700BFCF
:1033980000000000012930B5DFED257A02D1C2ED29
:1033A800007A30BD8D0803462C46B0EE677A10339C
:1033B800E4B900EB051001F0030300EB8303984226
:1033C8002ED106EE901AF8EE666AF7EE005A76EEFF
:1033D800E55A87EE266A87EEA57AC6EEA57A26EE26
:1033E800466AA6EE277AF0EE477AD8E753ED046AE4
:1033F800E6EEA67A013C37EE267A53ED036AE6EE4E
:10340800A67A37EE267A53ED026AE6EEA67A37EE0A
:10341800267A53ED016A37EE267AE6EEA67AC6E7F3
:10342800F0EC016A37EE267AE6EEA67AC7E700BF27
:1034380000000000074A136823F004031360064BDA
:10344800C0081870C0EB401300EB8300034BC000AA
:103458001880704710E000E0A2000020A0000020C3
:10346800094B1B885843094B002258609A601A6818
:1034780042F001021A601A6802F00112012AFAD019
:1034880000221A609A607047A000002010E000E057
:10349800094B1B785843094B002258609A601A68F8
:1034A80042F001021A601A6802F00112012AFAD0E9
:1034B80000221A609A607047A200002010E000E025
:1034C80037B502AC0A4D04F8040D00222846102135
:1034D800FDF75CFF3223214601220648FFF70BFA6D
:1034E800012210212846FDF751FF03B030BD00BF6F
:1034F800000002403842002013B50D4C8DF806102C
:1035080040F050008DF804000022204610218DF86C
:103518000520FDF73BFF642301A903220548FFF7B7
:10352800EAF9012210212046FDF730FF02B010BD54
:10353800000002403842002001460320FFF7DCBFAC
:1035480001460220FFF7D8BF38B5054C054D0821C4
:103558002846FDF715FF08B1013CF8D138BD00BF7A
:10356800005A6202000002401FB5FF2304AA8DF82A
:103578000E30002302F8013D322300930DF10E01B5
:1035880001230448FFF75FFA9DF80F0005B05DF8C6
:1035980004FB00BF3842002037B5104C40F0100043
:1035A8008DF804000022204610218DF80520FDF733
:1035B800EDFE322301A902220948FFF79CF90A20EF
:1035C800FFF766FFFFF7D0FF0122054610212046CE
:1035D800FDF7DCFE284603B030BD00BF0000024006
:1035E8003842002007B5FFF7AFFF0020FFF7D4FFF0
:1035F8008DF807009DF80700000903B05DF804FB8B
:1036080037B502AC4FF4CA630A4D24F8043D284686
:1036180000221021FDF7BAFE322321460222064875
:10362800FFF769F9012210212846FDF7AFFE03B024
:1036380030BD00BF000002403842002030B51424DD
:1036480095B02246002109A800F018FC2246002166
:1036580003A800F013FC00241B4B01941A6C42F0E1
:1036680080521A641B6C03F080530193019B174B23
:1036780002941A6842F480421A601B6803F480437B
:1036880002930122029B1023CDE90B230821A823D2
:103698000225CDE9101308A8042313930895CDE952
:1036A8000E541295FEF700FE0F23CDE903354FF4B3
:1036B800A0504FF48053CDE90603052103A80594D3
:1036C800FEF7A2FF15B030BD003802400070004080
:1036D80080B58CB00024874D874EFDF733FBFFF78C
:1036E800ADFF1422002107A800F0C8FB03942B6B40
:1036F800824843F001032B632B6B03F00103039310
:10370800039B04942B6B43F002032B632B6B03F096
:103718000203049322461021049BFDF737FE784BE1
:1037280076480994082207A90127CDE907234FF015
:103738001008FDF745FD032307A970480A93CDE952
:1037480007870997FDF73CFD224621460920FDF72A
:1037580037FB0920FDF768FB01942B6B43F48003CA
:103768002B632B6B03F480030193019B02942B6B57
:1037780043F400132B632B6B624D03F400132246B2
:10378800214602930B20029BFDF71AFB0B20FDF745
:103798004BFB224621461120FDF712FB1120FDF7B5
:1037A80043FB224621463820FDF70AFB3820FDF767
:1037B8003BFB224621463B20FDF702FB3B20FDF761
:1037C80033FB5149AC624FF48273C5E900134FF4DF
:1037D80000702823C5E906034FF00A092846C5E901
:1037E8000244C5E90447C5E90844C5F82C90FFF729
:1037F80045F84246214607A800F040FB434B346198
:103808003046C6E90034C6E90244B4614FF4805A30
:10381800CDE90544FFF768FB07A93046CDF81CA0A1
:10382800FFF786FB05A93046CDE90544384EFFF77A
:1038380013FCDFF8F4C0374BB460C6E900C34FF09F
:10384800040E4FF48043C6E903E340228023304648
:10385800C6E90723C6E90544FDF7AAFD02222E4959
:1038680030462E4EFDF748FEA820C6E9004AFFF76D
:10387800E1FDFE20FFF724FE4846FFF7F1FDFFF7C4
:10388800BFFE2046FFF75CFEE020FFF755FEFFF77E
:10389800A9FE234B18704FF4FA70FFF7E1FD2321BE
:1038A8003846FFF729FE0F20FFF7F2FDFC20FFF74F
:1038B80007FE4846FFF7ECFD2046FFF701FE0F2004
:1038C800FFF7E6FDFFF740FE224641460B48FDF7AD
:1038D8005DFD32233A4613492846FFF70CF81920B4
:1038E800FFF7BEFD44F208033846F754FFF7D0FD52
:1038F800FEE700BF00380240B80000200000024088
:10390800000021103842002000300140000800402B
:1039180058010020A0860100D0410020AC01002001
:10392800A60000200800002000540040082838B5F0
:1039380040F08D80464B1B78032B40F08880454C27
:1039480044F20802A25C012A40F08180424D4349BA
:1039580043482A46FFF768F96B782A78DFED416A11
:103968001B0243EA0243AA78134313F4000F3E4AAA
:1039780018BF43F07F431360D2ED007A3B4BF8EE5B
:10398800E77A87EEA67AC3ED007A236804EB830210
:1039980082ED027A626801339342236057D1002393
:1039A8002360334C334B344822464FF48051FFF7A1
:1039B80071FB324B3048221D4FF48051FFF7F6FB64
:1039C80004F108024FF480512B48FFF7E3FC04F19F
:1039D8000C024FF480512848FFF742FC04F1100212
:1039E8004FF480512448FFF7AFFB04F114024FF461
:1039F80080512148FFF774FCD4ED007A204BFCEE8F
:103A0800E77A17EE902AD4ED017A1A70FCEEE77A7D
:103A180017EE902AD4ED027A5A70FCEEE77A17EE88
:103A2800902AD4ED037A9A70FCEEE77A17EE902A82
:103A3800D4ED047ADA70FCEEE77A17EE902AD4ED2A
:103A4800057A1A71FCEEE77A17EE902A5A7138BD9A
:103A5800A6000020AC010020A300002009000020DF
:103A68003842002000162348B0000020D44100202E
:103A7800B8410020A8000020B4010020AC000020BC
:103A88000C00002038B5064C064D7B2363720A22D1
:103A980021462846FDF76CFD0028F8D038BD00BF48
:103AA8000C000020580100207047000082B00C4B29
:103AB800002100915A6C42F480425A645A6C02F414
:103AC80080420092009A01911A6C42F080521A6466
:103AD8001B6C03F080530193019B02B0704700BF39
:103AE8000038024070B5064688B01422002103A8A9
:103AF80000F0C4F93268364B9A4267D1354C00253C
:103B08000195236B43F002032363236B03F0020345
:103B18000193019BC0201223CDE903034FF0010C50
:103B28000323CDE905C32C48042303A90793FDF714
:103B380047FB0295236CDFF8B0E043F400132364DD
:103B4800236C264C03F400130293029B4FF000737E
:103B5800C4E900E320464FF48063C4E90255C4E990
:103B68000435C4E90655C4E90855FDF797F908B1C5
:103B7800FFF79AFFB4631A4AA6631A4C4FF0007312
:103B8800C4E90023402100234FF480622046C4E9A1
:103B98000213C4E90423C4E90633C4E90833FDF772
:103BA8007DF908B1FFF780FF0022114674631F20DA
:103BB800A663FDF705F91F20FDF736F9002220203E
:103BC8001146FDF7FDF82020FDF72EF908B070BD6D
:103BD800005400400038024000040240D841002050
:103BE800A0600240F80000201060024070B5064650
:103BF80088B01422002103A800F040F932682D4B48
:103C08009A4255D1002503F5843301955A6C2A4C04
:103C180042F480525A645A6C02F480520192019A1A
:103C280002951A6B42F001021A631B6B03F0010341
:103C38000293029BE0210223CDE90313032005230D
:103C4800CDE9060303A91D48FDF7BAFADFF878C0E5
:103C58004FF0C063C4E900C34023C4E902352046DD
:103C68004FF48063C4E90435C4E90655C4E908552E
:103C7800FDF714F908B1FFF717FF114AB464A663FA
:103C8800104C4FF0C063C4E90023204600234FF4D2
:103C98008062C4E90233C4E90423C4E90633C4E9F1
:103CA8000833FDF7FBF808B1FFF7FEFEF464A663DE
:103CB80008B070BD00300140F04200200000024012
:103CC8001064024090420020586402400268094B88
:103CD8009A4282B00BD100230193074B1A6C42F031
:103CE80004021A641B6C03F004030193019B02B0E5
:103CF800704700BF00080040003802407047FEE7E8
:103D0800FEE7FEE7FEE7704770477047FDF734B8F7
:103D18000820FDF741BB00000148FDF78DB900BF41
:103D2800D84100200148FDF787B900BFF8000020FE
:103D380010B5054C2046FDF701FE20460222034936
:103D4800BDE81040FDF7D8BB58010020D041002045
:103D580010B5054C2046FEF711FA20460222034909
:103D6800BDE81040FDF7C8BB58010020D041002035
:103D78000148FDF761B900BF904200200148FDF7F6
:103D88005BB900BFF04200200F49D1F8883043F4F6
:103D98007003C1F888300D4B1A68002042F0010208
:103DA8001A6098601A6822F0847222F480321A60CD
:103DB800074A5A601A6822F480221A60D8604FF0C5
:103DC80000638B60704700BF00ED00E000380240E0
:103DD80010300024DFF834D0002103E00C4B5B588E
:103DE800435004310B480C4B42189A42F6D30B4A05
:103DF80002E0002342F8043B094B9A42F9D3FFF74B
:103E0800C3FF00F017F8FFF763FC704700000220BB
:103E1800903F00080000002084000020840000205B
:103E280050430020FEE70000014B1868704700BFB0
:103E38001C00002070B50D4E0D4CA41BA4100025CD
:103E4800A54209D10B4E0C4C00F076F8A41BA41027
:103E58000025A54205D170BD56F825309847013593
:103E6800EEE756F8253098470135F2E7883F000815
:103E7800883F0008883F00088C3F0008024403463A
:103E8800934200D1704703F8011BF9E710B52DEDF7
:103E9800028B8AB0B0EE408A00F048F8214B93F9C3
:103EA8000040631C2CD0B4EE488AF1EE10FA27D6F5
:103EB800B5EEC08AF1EE10FA22D5012300931A4B11
:103EC800019318EE100A00230893FCF7DDFA00228C
:103ED800CDE90401CDE902010023ACB9CDE90623FF
:103EE800684600F026F8B8B1089B1BB1FFF79CFFA5
:103EF800089B0360DDE90601FCF730FD00EE100ABF
:103F08000AB0BDEC028B10BD10461946FCF73EFC0A
:103F1800022CCDE90601E3D1FFF786FF21230360D8
:103F2800E2E700BF80000020783F0008B1EEC00A39
:103F38007047002070470000F8B500BFF8BC08BC07
:103F48009E467047F8B500BFF8BC08BC9E4670474F
:103F58000006101600061016000000000000000001
:103F68000102030406070809000000000102030417
:083F7800737172746600000011
:083F8000B4CAFF7F010000003C
:043F8800AD0100087F
:043F8C00890100089F
:103F9000010000001000000003FFFFFF0102030406
:103FA00005060708090A00000024F400200000208C
:103FB0000000000000000000000000000000000001
:103FC00000000000000000000000000000000000F1
:103FD00000000000000000000000000000000000E1
:103FE00000000000000000000000000000000000D1
:103FF00000000000000000000000000000000000C1
:1040000000000000000000000000000000000000B0
:0440100001000000AB
:0400000508003DDDD5
:00000001FF
